:020000040800F2
:10000000D809002029020008310200083302000844
:10001000350200083702000839020008000000001D
:100020000000000000000000000000003B0200088B
:100030003D020008000000003F02000841020008E5
:10004000430200084302000843020008430200087C
:10005000430200084302000843020008430200086C
:10006000430200084302000843020008430200085C
:10007000430200084302000843020008430200084C
:10008000430200084302000843020008430200083C
:10009000430200084302000843020008430200082C
:1000A000430200084302000843020008430200081C
:1000B000252E0008430200084302000843020008FE
:1000C00043020008430200084302000843020008FC
:1000D00043020008430200085D3C00084302000898
:1000E0004302000843020008430200080000000029
:1000F0000000000000000000000000000000000000
:1001000000000000000000000000000043020008A2
:1001100043020008430200084302000800000000F8
:10012000430200084302000843020008430200089B
:100130004302000800000000000000000000000072
:100140004302000843020008000000000000000015
:10015000000000000000000000000000000000009F
:1001600000000000000000004302000843020008F5
:100170004302000800000000000000000000000032
:10018000000000004302000800F002F800F03CF814
:100190000AA090E8000C82448344AAF10107DA45E2
:1001A00001D100F031F8AFF2090EBAE80F0013F0F8
:1001B000010F18BFFB1A43F001031847D05A000083
:1001C000F05A0000103A24BF78C878C1FAD8520714
:1001D00024BF30C830C144BF04680C6070470000C1
:1001E0000023002400250026103A28BF78C1FBD840
:1001F000520728BF30C148BF0B6070471FB504F0DD
:10020000DDFF1FBD10B510BD00F00AF91146FFF764
:10021000F5FF03F073FD00F028F903B4FFF7F2FFD8
:1002200003BC00F08DF900000948804709480047E9
:10023000FEE7FEE7FEE7FEE7FEE7FEE7FEE7FEE796
:10024000FEE7FEE704480549054A064B70470000F3
:10025000112E000889010008D8030020D8090020C9
:10026000D8050020D80500209FED1A1AF5EE000AE7
:1002700040EE010ABDEEE00AF5EEC00A10EE100AEB
:10028000F1EE10FA38BF401E00EE100A1349F7EEE7
:10029000001AB8EEC00A30EEC00ADFED0F0A20EEF9
:1002A000200AFCEEC00A10EE900AC0F3080000EE2F
:1002B000900A01EB8000F8EE600A90ED011A70EEF2
:1002C000600A90ED000A71EEE01A21EE800A00EE5D
:1002D000810A704783F9223E0000004488540008D8
:1002E000B5EEC00AF1EE10FA07D2DFED1E0AB4EE49
:1002F000E00AF1EE10FAA8BF7047DFED1B0AB5EE79
:10030000C00A60EE200ABDEEE01A11EE100AF1EE0E
:1003100010FA38BF401E00EE100A1549F7EE001A19
:10032000B8EEC00A30EEC00ADFED100A60EE200A17
:10033000BCEEE00A10EE100AC0F3080000EE100A4E
:1003400001EB8000B8EE400A90ED011A70EEC00A91
:1003500090ED000A71EEE01A21EE800A00EE810AAB
:1003600070470000CD024CB483F9223E00000044E7
:10037000885400084FF0000200B513469446964694
:10038000203922BFA0E80C50A0E80C50B1F12001A8
:10039000BFF4F7AF090728BFA0E80C5048BF0CC056
:1003A0005DF804EB890028BF40F8042B08BF7047B4
:1003B00048BF20F8022B11F0804F18BF00F8012B26
:1003C000704770477047704710B500F009F8006833
:1003D00010BD10B5044600F003F8046010BD000025
:1003E00000487047740300201FB584B000200A9CA9
:1003F00006AB04AA02A90094AFF3008018B1DDE9AE
:10040000020108B010BD0348204000F037F800207A
:100410000146F6E70000207C004870477403002086
:100420007546FFF7F9FFAE4605006946534620F0D2
:100430000700854618B020B5FFF704FFBDE820404F
:100440004FF000064FF000074FF000084FF0000B90
:1004500021F00701AC46ACE8C009ACE8C009ACE843
:10046000C009ACE8C0098D46704710B50446AFF32B
:1004700000802046BDE81040FFF7CFBE10B500F069
:1004800009F8BDE81040AFF30080002801D000F06B
:1004900057B8704710B5022803D0410103D50DA10C
:1004A00012E0002010BD010101D50FA10CE0C10038
:1004B00001D511A108E0810001D512A104E040009E
:1004C00001D513A100E0002115A000F03FF80120A4
:1004D00010BD0000496E76616C6964204F706572D2
:1004E0006174696F6E00000044697669646520423A
:1004F00079205A65726F00004F766572666C6F776F
:1005000000000000556E646572666C6F7700000035
:10051000496E657861637420526573756C74000070
:100520005349474650453A2041726974686D657475
:10053000696320657863657074696F6E3A200000A6
:1005400001491820ABBEFEE72600020070B5054643
:100550000C460A2000E06D1C00F011F835B1287837
:100560000028F8D102E0641C00F009F814B12078EA
:100570000028F8D1BDE870400A20AFF3008008B52C
:1005800069468DF800000320ABBE08BD704700002F
:1005900000B59FB00120FE490880B2EE0E0AFD486A
:1005A00080ED000A9FEDFC0AFC4880ED010A9FEDFA
:1005B000FC0A80ED000A9FEDFB0A80ED020A8068CC
:1005C000179004F045FDCDE91A01F4480068159034
:1005D00004F03EFD9FEDF40B53EC102BCDE916011A
:1005E0009DED160B51EC100B04F060F8CDE91801ED
:1005F0009DED1A0B53EC102B9DED180B51EC100BCD
:1006000004F054F8CDE91C019DED1C0B51EC100BCE
:1006100003F0B0FBE149C860084690ED010AF0EE36
:10062000000A20EE200AD0ED000A20EE200AD0EDCC
:10063000020A20EE200A80ED040A90ED000AD0EDB7
:10064000020A20EE200AD0ED000A20EE200AD0EDAA
:10065000020A20EE200A80ED050A90ED040AD0ED92
:10066000050A30EE200AF1EE000A30EE200AD0ED45
:10067000040A80EE801A80ED061A90ED040AD0ED8F
:10068000050A30EE200AF1EE000A70EE200A90ED25
:10069000051AB2EE000AF0EE001A01EEC10A80EE71
:1006A000201A80ED071A90ED040AD0ED050A30EE0D
:1006B000600AF1EE000A30EE600AD0ED040A90ED17
:1006C000051A70EE810AB1EE001A70EE810A80EE12
:1006D000201A80ED081A9FEDB60A80ED090A9FEDF9
:1006E000B40A80ED0C0A9FEDB20A80ED0E0A9FED70
:1006F000B00A80ED100A9FEDAE0A80ED0D0A9FED65
:10070000AC0A80ED0F0A9FEDAA0A80ED110A9FED59
:10071000A80A80ED120A9FEDA60A80ED130A9FED4C
:10072000A40A80ED140A9FEDA30A80ED150AB0EE2D
:10073000000A80ED160A9FEDA00AA04880ED000A8D
:100740009FED9D0A80ED010A9FED960A9C4880ED81
:100750000C0A9FED9C0A80ED080AB1EE0C0A80EDB0
:10076000090AB1EE040A80ED0A0A9FED8D0A80EDB8
:100770000B0A90ED0C0AF0EE000A20EE200A80ED44
:100780000D0A006B0D9004F063FCCDE910018C485C
:10079000806A0B9004F05CFC9FED8B0B53EC102BEC
:1007A000CDE90C019DED0C0B51EC100B03F07EFF1D
:1007B000CDE90E019DED100B53EC102B9DED0E0BB2
:1007C00051EC100B03F072FFCDE914017C4890ED61
:1007D0000C0A20EE000AD0ED0B0A60EE200A90ED24
:1007E0000B0A20EE800A8DED110A119804F030FCFE
:1007F000CDE912019DED140B53EC102B9DED120B66
:1008000051EC100B03F018FC9FED6F0B53EC102B09
:10081000CDE916019DED160B51EC100B03F00CFC0D
:10082000CDE91A016648C06A119004F011FCCDE9C7
:1008300014016348C06A0D9004F00AFCCDE9100170
:100840005F48006B099004F003FCCDE90C015C48A3
:10085000006B079004F0FCFB9FED5D0B53EC102B3D
:10086000CDE908019DED080B51EC100B03F01EFFC4
:10087000CDE90A019DED0C0B53EC102B9DED0A0BFD
:1008800051EC100B03F012FFCDE90E019DED100BA2
:1008900053EC102B9DED0E0B51EC100B03F006FFEB
:1008A000CDE912019DED140B53EC102B9DED120BB5
:1008B00051EC100B03F0FAFE9FED470B53EC102B9D
:1008C000CDE916019DED160B51EC100B04F0BEF8AE
:1008D000CDE918019DED1A0B53EC102B9DED180B73
:1008E00051EC100B03F0DAFCCDE91C019DED1C0B63
:1008F00051EC100B03F03EFA314988630846806AD8
:100900000D9004F0A5FBCDE910012D48006B0B9074
:1009100004F09EFB9FED2C0B53EC102BCDE90C014A
:100920009DED0C0B51EC100B03F0C0FECDE90E0158
:100930009DED100B53EC102B9DED0E0B51EC100B9D
:1009400003F0B4FECDE914011D4890ED0C0A20EE31
:10095000000AD0ED0B0A20EE200AD0ED0B0A20EEA3
:10096000200A8DED110A119804F072FBCDE91201F5
:100970009DED140B53EC102B9DED120B51EC100B55
:1009800003F05AFB9FED100B53EC102B28E00000F6
:100990007E00002040000020E17AB43FDC0200200D
:1009A00064149D4317B75139000000000000E03F78
:1009B00000000000CDCC4C3EBD37863454020020F0
:1009C000900200209A99193E00000000000010409B
:1009D0000000000000000040000000000000204077
:1009E000CDE916019DED160B51EC100B03F024FB25
:1009F000CDE91A01FE48806A0F9004F029FBCDE989
:100A00001201FB48006B0D9004F022FB1FED120B4E
:100A100053EC102BCDE90E019DED0E0B51EC100B9C
:100A200003F044FECDE910019DED120B53EC102BA9
:100A30009DED100B51EC100B03F038FECDE91601C3
:100A4000EB4890ED0C0A20EE000AD0ED0B0A20EEE8
:100A5000200AD0ED0B0A20EE200A8DED110A119824
:100A600004F0F6FA1FED280B53EC102BCDE9120120
:100A70009DED120B51EC100B03F0DEFACDE91401E1
:100A80009DED160B53EC102B9DED140B51EC100B40
:100A900003F0DCFFCDE918019DED1A0B53EC102B90
:100AA0009DED180B51EC100B03F0F8FBCDE91C0188
:100AB0009DED1C0B51EC100B03F05CF9CC49C863A5
:100AC0000846806A0D9004F0C3FACDE91001C848C9
:100AD000006B0B9004F0BCFA1FED450B53EC102B90
:100AE000CDE90C019DED0C0B51EC100B03F0DEFD7C
:100AF000CDE90E019DED100B53EC102B9DED0E0B6F
:100B000051EC100B03F0D2FDCDE91401B84890ED83
:100B10000C0A60EE000A90ED0B0A20EE800AD0ED80
:100B20000B0A20EE200A8DED110A119804F090FABC
:100B3000CDE912019DED140B53EC102B9DED120B22
:100B400051EC100B03F078FA1FED610B53EC102BF6
:100B5000CDE916019DED160B51EC100B03F06CFA6C
:100B6000CDE91A01A248406A0F9004F071FACDE96C
:100B700012019F48806A0B9004F06AFACDE90E01D9
:100B80009B48006B099004F063FA1FED710B53EC66
:100B9000102BCDE90A019DED0A0B51EC100B03F06F
:100BA00085FDCDE90C019DED0E0B53EC102B9DED59
:100BB0000C0B51EC100B03F079FDCDE910019DED0C
:100BC000120B53EC102B9DED100B51EC100B03F09E
:100BD0006DFDCDE916018648006A0B9004F038FAE5
:100BE000CDE90E018248806A079004F031FACDE920
:100BF0000A017F48006B059004F02AFA1FED8E0B66
:100C000053EC102BCDE906019DED060B51EC100BBA
:100C100003F04CFDCDE908019DED0A0B53EC102BC0
:100C20009DED080B51EC100B03F040FDCDE90C01DC
:100C30009DED0E0B53EC102B9DED0C0B51EC100B9E
:100C400003F034FDCDE91201694890ED0C0A20EE65
:100C5000000AD0ED0B0A60EE200A90ED0B0A20EEA0
:100C6000800A8DED0B0A0B9804F0F2F9CDE90E0124
:100C70005F48006A099004F0EBF91FEDAD0B53ECEF
:100C8000102BCDE90A019DED0A0B51EC100B03F07E
:100C90000DFDCDE90C019DED0E0B53EC102B9DEDE0
:100CA0000C0B51EC100B03F0C7F9CDE910019DEDD1
:100CB000120B53EC102B9DED100B51EC100B03F0AD
:100CC000BBF9CDE914019DED160B53EC102B9DEDF6
:100CD000140B51EC100B03F0AFF9CDE918019DEDA9
:100CE0001A0B53EC102B9DED180B51EC100B03F06D
:100CF000D5FACDE91C019DED1C0B51EC100B03F056
:100D000039F83B4908640846806A0D9004F0A0F960
:100D1000CDE910013648006B0B9004F099F91FEDF6
:100D2000D60B53EC102BCDE90C019DED0C0B51ECC7
:100D3000100B03F0BBFCCDE90E019DED100B53EC45
:100D4000102B9DED0E0B51EC100B03F0AFFCCDE919
:100D50001401274890ED0C0A20EE000AD0ED0B0A92
:100D600020EE200AD0ED0B0A20EE200A8DED110AAC
:100D7000119804F06DF9CDE912019DED140B53ECBF
:100D8000102B9DED120B51EC100B03F055F91FEDDC
:100D9000F20B53EC102BCDE916019DED160B51EC27
:100DA000100B03F049F9CDE91A011148006A1190BE
:100DB00004F04EF91FEDF80B53EC102BCDE91201A6
:100DC0009DED120B51EC100B03F070FCCDE91601F8
:100DD0000748C06A0F9004F03BF9CDE912010448BE
:100DE000C06A0B9004F034F9CDE90E01004801E02F
:100DF00090020020006B079004F02AF9CDE90A0167
:100E0000FD48006B039004F023F9CDE90601FA4890
:100E1000006A019004F01CF99FEDF80B53EC102BC5
:100E2000CDE902019DED020B51EC100B03F03EFCED
:100E3000CDE904019DED060B53EC102B9DED040B49
:100E400051EC100B03F032FCCDE908019DED0A0BCB
:100E500053EC102B9DED080B51EC100B03F026FC0E
:100E6000CDE90C019DED0E0B53EC102B9DED0C0B01
:100E700051EC100B03F01AFCCDE910019DED120BA3
:100E800053EC102B9DED100B51EC100B03F00EFCEE
:100E9000CDE914019DED160B53EC102B9DED140BB9
:100EA00051EC100B03F0D2FDCDE918019DED1A0BAA
:100EB00053EC102B9DED180B51EC100B03F0EEF9D9
:100EC000CDE91C019DED1C0B51EC100B02F052FF03
:100ED000C94948640846806A0D9004F0B9F8CDE924
:100EE0001001C548006B0B9004F0B2F89FEDC50BE4
:100EF00053EC102BCDE90C019DED0C0B51EC100BBC
:100F000003F0D4FBCDE90E019DED100B53EC102B3B
:100F10009DED0E0B51EC100B03F0C8FBCDE9140155
:100F2000B54890ED0C0A20EE000AD0ED0B0A20EE39
:100F3000200AD0ED0B0A20EE200A8DED110A11983F
:100F400004F086F8CDE912019DED140B53EC102B43
:100F50009DED120B51EC100B03F06EF89FEDA90BF9
:100F600053EC102BCDE916019DED160B51EC100B37
:100F700003F062F8CDE91A019F48406A0F9004F02F
:100F800067F8CDE912019C48806A0B9004F060F884
:100F9000CDE90E019848006B099004F059F89FEDD7
:100FA000990B53EC102BCDE90A019DED0A0B51EC86
:100FB000100B03F07BFBCDE90C019DED0E0B53EC08
:100FC000102B9DED0C0B51EC100B03F06FFBCDE9DA
:100FD00010019DED120B53EC102B9DED100B51ECFD
:100FE000100B03F063FBCDE916018348006A0B90F8
:100FF00004F02EF8CDE90E017F48806A079004F0D6
:1010000027F8CDE90A017C48006B059004F020F830
:101010009FED7C0B53EC102BCDE906019DED060BEB
:1010200051EC100B03F042FBCDE908019DED0A0BDA
:1010300053EC102B9DED080B51EC100B03F036FB1D
:10104000CDE90C019DED0E0B53EC102B9DED0C0B1F
:1010500051EC100B03F02AFBCDE91201664890ED2C
:10106000080AD0ED0C0A20EE200AD0ED0C0A20EE82
:10107000200AD0ED0B0A60EE200A90ED0B0A20EE5C
:10108000800A8DED0B0A0B9803F0E2FFCDE90E010B
:101090005948006A099003F0DBFF9FED5A0B53ECAF
:1010A000102BCDE90A019DED0A0B51EC100B03F05A
:1010B000FDFACDE90C019DED0E0B53EC102B9DEDCF
:1010C0000C0B51EC100B02F0B7FFCDE910019DEDB8
:1010D000120B53EC102B9DED100B51EC100B03F089
:1010E000B5FCCDE914019DED160B53EC102B9DEDD5
:1010F000140B51EC100B03F0A9FCCDE918019DED88
:101100001A0B53EC102B9DED180B51EC100B03F048
:10111000C5F8CDE91C019DED1C0B51EC100B02F044
:1011200029FE354988649FED390A394880ED000A67
:101130009FED360A80ED010A9FED340A80ED020A28
:101140009FED320A80ED030AB3EE090A80ED040A2E
:101150009FED2E0A80ED050A9FED2C0A80ED080A0E
:101160009FED2A0A80ED090A9FED280A80ED0A0A00
:101170009FED260A80ED0B0A9FED240A80ED0C0AF4
:101180009FED220A80ED0D0A9FED200A80ED100AE6
:101190009FED1E0A80ED110A9FED1C0A80ED120AD8
:1011A0009FED1A0A80ED130A9FED180A80ED140ACC
:1011B0009FED160A80ED150AB2EE0F0A154880ED74
:1011C000000A006803F044FF9FED130B53EC102B53
:1011D000CDE91A019DED1A0B51EC100B03F066FAE4
:1011E000CDE91C019DED1C0B51EC100B02F0C2FD72
:1011F0000B49086016E0000090020020000000008B
:10120000000000400000000000001040000000004E
:10121000B80100204400002039B4C876BE9FF63FD4
:101220004C0000209FED430A434880ED000A1FED6B
:10123000090A424880ED000A1FED0C0A404880ED83
:10124000030A1FED0E0A80ED040A1FED100A80ED5F
:10125000050A1FED120A80ED060A1FED140A80ED43
:10126000090A1FED160A80ED0A0A1FED180A80ED23
:101270000B0A1FED1A0A80ED0C0A00203149088084
:1012800031490880FB20314908801FED200A304891
:1012900080ED000A00202F4908809FED2F0B304879
:1012A00080ED000B1FED270A2E4880ED000A1FED90
:1012B000290A2D4880ED000A40F29F502B490880F2
:1012C0009FED2B0B2C4880ED000B1FED300A2B48B7
:1012D00080ED000A1FED330A294880ED000A002046
:1012E000284908801FED370A274880ED000A1FEDC6
:1012F000390A264880ED000A1FED3C0A244880ED9B
:10130000000A1FED3E0A234880ED000A1FED410A46
:10131000214880ED000A1FED430A204880ED000AB5
:1013200000201F4908734873802088737F20C8738A
:101330001FB000BDCDCCCC3D50000020540000209B
:101340001802002084000020860000207000002089
:10135000A4000020A0000020000000000000000009
:10136000B000002094000020980000208C00002095
:10137000000000000000F03F680000201C0000207A
:101380002000002034000020380000203C00002015
:10139000D4000020D0000020DC000020D800002075
:1013A000480300202DE9F04105460C460026606800
:1013B00000B100BF4FF0A04000F03BF807460F48D7
:1013C00000F037F80743AFB9606860B1D4E90001B5
:1013D0000843A1680843E1680843A968084A114026
:1013E0000843A86007E0A868054908402168084349
:1013F000A86000E001263046BDE8F0810001005001
:10140000E030FCFF70B505460C460026284600F08B
:1014100010F858B9D4E900010843A1680843E96805
:1014200044F2380291430843E86000E00126304668
:1014300070BD0146886800F00100704770B5054630
:101440000C460026606800B100BF2846FFF7F1FF98
:1014500020BB606870B1A16820680843E168084358
:101460002169084361690843E9680E4A114008434D
:10147000E8600BE0E168206808432169084361697E
:101480000843E968074A11400843E8606068296B2F
:1014900021F00F010143296300BF00E0012630461F
:1014A00070BD00003CC0F0FF70B501F440744FF413
:1014B000407595FAA5F5B5FA85F5EC4000F13005D3
:1014C00005EB84031C6801F01F061F25B540AC43E3
:1014D00001F01F06C2F38465B5402C431C6070BD4B
:1014E00070B501F000744FF0007595FAA5F5B5FAE6
:1014F00085F5EC4000F1140505EB84031C6801F050
:10150000F8754FF0F87696FAA6F6B6FA86F6F54034
:101510000726AE40B44301F0F8754FF0F87696FA1E
:10152000A6F6B6FA86F6F54002FA05F52C431C60DD
:1015300070BD000070B5D0F8B030074C0C40A3432C
:10154000054C0C4002F01806034DF5402C40234397
:10155000C0F8B03070BD0000FEFF070008B50549B7
:1015600049690143034A51611146496901400091AB
:1015700000BF08BD0010024008B50549C969014314
:10158000034AD1611146C9690140009100BF08BDFD
:101590000010024008B5054989690143034A916179
:1015A000114689690140009100BF08BD001002404A
:1015B00030B50246002000BF1368DB0F93B9D1E9B4
:1015C000003423438C682343CC6823430C692343B2
:1015D0004C6923438C6923431468034D2C402343F7
:1015E000136000E0012030BD0343F0FFF0B5034677
:1015F0000024506800B100BF08461D6800F01007C5
:101600000126BE40354000F010070126BE40B5421D
:1016100001D1012500E0002525BB506898B118686C
:1016200001F0100640F6FA75B540A843D2E900561D
:10163000354396683543D668354301F01006B5400A
:10164000284318600FE0186801F01006FA25B5402D
:10165000A843D6681568354301F01006B540284305
:10166000186000E001242046F0BD000070B5049C25
:10167000102C09D14D1E094E755D0544EA604D1EC2
:10168000755D0544AB6008E04D1E044E755D054474
:10169000AA604D1E755D0544EB6070BD3C540008AA
:1016A00010B54A1E044B9A5C825842F001034A1E50
:1016B000014CA25C835010BD3C54000830B54B1E59
:1016C000054CE35CC35823F4405313434C1E024DB6
:1016D0002C5D035130BD00003C54000830B54B1E5A
:1016E000064CE35C03445B686FF30F0313434C1E2B
:1016F000024D2C5D0444636030BD00003C54000882
:1017000030B54B1E054CE35CC35823F080031343F4
:101710004C1E024D2C5D035130BD00003C540008AE
:1017200030B54B1E054CE35CC35823F440631343B0
:101730004C1E024D2C5D035130BD00003C5400088E
:1017400030B54B1E054CE35CC35823F02003134314
:101750004C1E024D2C5D035130BD00003C5400086E
:1017600030B54B1E054CE35CC35823F040031343D4
:101770004C1E024D2C5D035130BD00003C5400084E
:1017800030B54B1E054CE35CC35823F44073134340
:101790004C1E024D2C5D035130BD00003C5400082E
:1017A000F0B502460B46186890FAA0F0B0FA80F443
:1017B0008BE00125A540186800EA050100297CD0CE
:1017C0005868012802D0586802281DD19868956889
:1017D00091FAA1F6B6FA86F677000326BE40B54325
:1017E00091FAA1F6B6FA86F6760000FA06F63543C7
:1017F000956000BFDD6818685668864300FB05F7F2
:101800003E43566000BF00BF1869D56891FAA1F643
:10181000B6FA86F677000326BE40B54391FAA1F6E4
:10182000B6FA86F6760000FA06F63543D56000BFB4
:101830005868022831D191FAA1F0B0FA80F0082856
:1018400014D25869156A91FAA1F6B6FA86F6B7006D
:101850000F26BE40B54391FAA1F6B6FA86F6B60059
:1018600000FA06F63543156200BF16E05869556A5E
:101870000E0A96FAA6F6B6FA86F6B7000F26BE400E
:10188000B5430E0A96FAA6F6B6FA86F6B60000FA40
:1018900006F63543556200BF00BF5868156891FAD7
:1018A000A1F6B6FA86F677000326BE40B54391FA54
:1018B000A1F6B6FA86F6760000E005E000FA06F634
:1018C0003543156000BF00BF641C1868E040002865
:1018D0007FF46FAFF0BD10B5426921EA020302EA5E
:1018E000010443EA0443836110BD4FF47A71B0FBF5
:1018F000F1F2521E4FF0E0235A6100229A61052254
:101900001A6100BF704700002DE9F0410446002530
:10191000B4F5401F2AD1204600F060F8B0F5405FD2
:1019200019D02B49084430B1B0F5801F0CD0B0F568
:10193000001F0FD103E001F073F9054615E000F038
:10194000F1F800B1234D10E000F0F4F808B14FF4C5
:1019500000450AE000BF01F063F9074601F02CF9E9
:10196000064601F039F9054600BF00BFB4F5400F47
:101970002AD1204600F032F8B0F5404F19D0164970
:10198000084430B1B0F5800F0CD0B0F5000F0FD186
:1019900003E001F045F9054615E000F0C3F800B199
:1019A0000C4D10E000F0C6F808B14FF400450AE015
:1019B00000BF01F035F9074601F0FEF8064601F0D8
:1019C0000BF9054600BF00BF2846BDE8F0810000C6
:1019D00000D0EFFF00127A000040BFFF014603482D
:1019E000006B084040EA11207047000000100240E0
:1019F0002DE9F041044600252CBB204600F086F876
:101A0000B0B1012804D002280BD003280FD103E085
:101A100001F006F9054615E000F084F800B1384DF4
:101A200010E000F087F808B14FF400450AE000BF6D
:101A300001F0F6F8074601F0BFF8064601F0DEF8BF
:101A4000054600BF00BF102C2AD1204600F05EF8EA
:101A5000B0F1805F19D02B49084430B1B0F5803F18
:101A60000CD0B0F5003F0FD103E001F0D9F80546E6
:101A700015E000F057F800B1214D10E000F05AF8E1
:101A800008B14FF400450AE000BF01F0C9F807466D
:101A900001F092F8064601F09FF8054600BF00BF2E
:101AA000122C2AD1204600F031F8B0F1905F19D005
:101AB0001549084430B1B0F5802F0CD0B0F5002F97
:101AC0000FD103E001F0ACF8054615E000F02AF86C
:101AD00000B10B4D10E000F02DF808B14FF40045B7
:101AE0000AE000BF01F09CF8074601F065F80646E1
:101AF00001F072F8054600BF00BF2846BDE8F0813E
:101B000000127A000000FFEF0000FCED01460448DF
:101B1000006B03228A40104040EA016070470000D9
:101B20000010024002480068C0F340007047000007
:101B3000001002400248006AC0F3400070470000F5
:101B4000001002400149086070470000E0000020DA
:101B500010B503460A460021147B214690680143D4
:101B600021F48060546840EA040121F400601468A4
:101B700040EA040121F48050D48940EA040121F4B0
:101B80000050146940EA040121F48040546A40EA9C
:101B9000040121F40040546A40EA04010E488342E3
:101BA00004D121F47020546940EA04010A488342B8
:101BB0000ED121F47000146A40EA040121F0807013
:101BC000946940EA040121F00070D46940EA0401FC
:101BD0005964002010BD0000002C0140016841F054
:101BE000800101607047016841F0010101607047A8
:101BF000C16841F00101C1607047000010B50246A4
:101C000013682548824208D0B2F1804F05D023489E
:101C1000824202D02248824204D123F070004C68F4
:101C200040EA04031C48824211D0B2F1804F0ED02A
:101C30001A4882420BD01A48824208D01948824280
:101C400005D01948824202D01848824204D123F4B8
:101C50004070CC6840EA040313608868D06200BF1B
:101C60000888906200BF0C48824208D00D4882422A
:101C700005D00D48824202D00C48824203D1086947
:101C8000106300BF00BF00BF506940F00100506109
:101C900000BF002010BD0000002C014000040040E7
:101CA000000800400040014000440140004801405D
:101CB00070B50246012901D1002420E0042901D198
:101CC00001241CE0102901D1022418E0402901D18F
:101CD000032414E0B1F5807F01D104240FE0B1F5B5
:101CE000806F01D105240AE0B1F5805F01D106249F
:101CF00005E0B1F5803F01D1072400E00824234628
:101D0000064CE55C02F1180428190468044DEE5CE9
:101D10000425B540AC43046070BD00004354000886
:101D20004C54000870B50246012901D1002420E07E
:101D3000042901D101241CE0102901D1022418E05A
:101D4000402901D1032414E0B1F5807F01D104249E
:101D50000FE0B1F5806F01D105240AE0B1F5805F95
:101D600001D1062405E0B1F5803F01D1072400E050
:101D700008242346064CE55C02F11804281904687F
:101D8000044DEE5C0825B5402C43046070BD000096
:101D9000435400084C5400082DE9F04106460C4617
:101DA00015460127B4F5805F21D007DC012C0CD04B
:101DB000102C10D0B4F5807F2BD112E0B4F5803F09
:101DC0001BD0B4F5801F24D11DE02946304600F019
:101DD0004DFD07461EE02946304600F095FD0746BA
:101DE00018E02946304600F0E1FD074612E029469A
:101DF000304600F029FE07460CE02946304600F048
:101E000061FE074606E02946304600F099FE074687
:101E100000E000BF00BF3846BDE8F0818163704735
:101E200081637047C16370478268024B1A400A435E
:101E300082607047F8BFFEFF2DE9F04104460D4671
:101E400001270026204600F07BF800286AD1E968C7
:101E50006868084329690843A9690843216849F269
:101E60000C62914308432060A868616821F44051E6
:101E70000143616000BF6869A16821F440710143BA
:101E8000A16000BF2948844204D10020FFF7B0FDC3
:101E9000064620E02648844204D11020FFF7A8FD22
:101EA000064618E02348844204D11220FFF7A0FD23
:101EB000064610E02048844205D14FF44010FFF759
:101EC00023FD064607E01D48844204D14FF440003C
:101ED000FFF71AFD06462EB3286818B300273146CF
:101EE000AB692868B3F5004F12D14FEA410808EBFF
:101EF0005008B8FBF0F81FFA88F24FF6F07802EAC3
:101F0000080CC2F342084CEA080CC4F80CC007E005
:101F100001EB5008B8FBF0F81FFA88F8C4F80C8001
:101F200000BF00BF3846BDE8F08100000038014026
:101F30000044004000480040004C00400050004079
:101F40000146086800F0010070470000F0B593B04A
:101F5000002010901190129018210AA8FEF70AFA9A
:101F60000020069007900890099018216846FEF717
:101F700001FA4FF08050FFF7F1FA4FF40020FFF71D
:101F8000EDFA4FF40030FFF7E9FA0F20009003203C
:101F900001900020049069469048FFF701FC022060
:101FA0000090032001900020049069464FF090407B
:101FB000FFF7F6FB0020109011904FF48040129034
:101FC00010A94FF0A040FFF71DFA4FF4D8600A9017
:101FD00004200B9000200C904FF400500D90032033
:101FE0000E904FF480500F900AA94FF0A040FFF7D9
:101FF00025FA4FF48030069000200790089006A93B
:102000007748FFF7CFF94FF480604FF0A041C968DF
:1020100021F4406101434FF0A042D16000BF00BFF6
:102020001046806820F0405011468860084680685D
:102030006C49084040F080501146886000BF6A48F3
:1020400000686A49B0FBF1F000EB800040000A2113
:10205000B0FBF1F400E0641E002CFCD14FF0A04373
:102060006348644900F440154FF4401696FAA6F60A
:10207000B6FA86F6F54000F0020606EBC60605EB5A
:10208000860603F10C0505EB860215685A4E0640DC
:10209000B54301EA00063543156000BF18465449B0
:1020A0000022134601F440164FF4401797FAA7F7A1
:1020B000B7FA87F7FE4000F1200707EB86052E6888
:1020C00006F0F02643EA02473E432E6000BF00BF01
:1020D000406820F080004FF0A041486000BF474AB0
:1020E00006214FF0A040FFF7DFF9002243494FF0EF
:1020F000A040FFF7F5F97F2240494FF0A040FFF7DD
:1021000019FA3F4A0C214FF0A040FFF7CDF9002209
:102110003B494FF0A040FFF7E3F97F2238494FF0E9
:10212000A040FFF707FA374A12214FF0A040FFF70F
:10213000BBF9002233494FF0A040FFF7D1F97F22CD
:1021400030494FF0A040FFF7F5F92F4A18214FF022
:10215000A040FFF7A9F900222B494FF0A040FFF75C
:10216000BFF97F2228494FF0A040FFF7E3F9274A43
:102170004FF480714FF0A040FFF796F900222349F9
:102180004FF0A040FFF7ACF97F2220494FF0A0406C
:10219000FFF7D0F900BF4FF0A04080681149084018
:1021A000401C4FF0A041886000BF88008968184A31
:1021B000114000F0804242F0004211434FF0A04233
:1021C000916000BF00BF1046806806490840001DAE
:1021D0001146886000BF13B0F0BD00000008004841
:1021E00000030050C0FFFF7FE0000020400D03000F
:1021F0000000C07DFEFF8700FEFFC77D0400600871
:10220000400020198000501D000180210002B025EF
:10221000C0FFFF3F00B58DB01C2106A8FEF7AAF84D
:1022200018216846FEF7A6F84FF40030FFF796F93C
:1022300080200090032001900020049069464FF018
:102240009040FFF7ADFA00200690079040200890DC
:10225000002009904FF400600A9000010B900020CC
:102260000C9006A90648FFF7A3F900200449096865
:1022700021F400710143024A116000BF0DB000BD9E
:102280002000014000B58BB0002007900890099015
:102290000A90182101A8FEF76DF84FF00050FFF7E3
:1022A0006BF94FF40030FFF759F91020019003202B
:1022B00002900020059001A94FF09040FFF770FABE
:1022C00038200790002008900A9007AA084909487A
:1022D000FFF78CF906480749096800F0100304224B
:1022E0009A409143034A116000BF0BB000BD00004B
:1022F000010010020074004038B50120FFF72EF9EC
:1023000001F0C2FC05460022022100F08FFA0446CB
:1023100021460B2001F0C0FC0B2001F0A7FC48482F
:10232000012100224B1E474CE35CC35844F21004C9
:10233000A34313434C1E434D2C5D035100BFFFF7D5
:10234000BDF9202201213E48FFF7FAF900220121C0
:102350003B48FFF705FA802201213948FFF7D0F901
:102360004FF4807201213648FFF70AFA4FF4806279
:1023700001213348FFF7D4F94FF0A041002000229B
:1023800010B901F1400200E02F4A00BF14460020BE
:102390002E4B012100902A48FFF768F90522012100
:1023A0002748FFF79BF901212548FFF779F901F04C
:1023B0006BFC05460222042100F038FA044621464F
:1023C000112001F069FC112001F050FC00220721CE
:1023D0001B48FFF773F9202207211948FFF7B0F9CE
:1023E000402207211648FFF7BBF9002207211448B5
:1023F000FFF786F9002207211148FFF7C1F90022F3
:1024000007210F48FFF78CF91148002212B900F19B
:10241000280101E000F1240100BF0C460020234602
:102420000C4A072100900648FFF720F910220721E7
:102430000348FFF753F907210148FFF731F938BD89
:10244000000002403C5400080C030050AC01002086
:10245000004400404803002000B587B0182101A8BF
:10246000FDF788FF4FF48000FFF778F84FF4002065
:10247000FFF774F84FF40030FFF770F84FF4802046
:10248000FFF76CF8012001900320029000200590D6
:1024900001A94FF09040FFF783F94FF4E04017494E
:1024A000886100BF4FF4A0400190012002900020FD
:1024B00003900490059001A91048FFF771F94FF4BB
:1024C000005001900120029000200390049005909C
:1024D00001A90A48FFF764F94FF4807001900220C7
:1024E00002900020039004900590069001A94FF0FF
:1024F0009040FFF755F907B000BD00000004004808
:1025000000B59DB0142118A8FDF734FF202110A8B4
:10251000FDF730FF282106A8FDF72CFF182168469B
:10252000FDF728FF4FF40060FFF734F80020ADF806
:102530006000199040F29F501A9000201B901C9050
:1025400018A96048FFF75AFB5E48FFF747FB0021D8
:102550005C48FFF769FC60201090012011901290F8
:102560004FF4E1601390002014901590169017908E
:1025700010AA10215348FFF70FFC10215148FFF714
:1025800097FB7020109010AA4FF480714D48FFF710
:1025900003FC4FF480714B48FFF78AFB1020494938
:1025A000896821F070010143464A916000BF002014
:1025B00011468968444A11400143424A916000BF74
:1025C00000BF1046C06820F040001146C86000BF40
:1025D00000BF0846C06820F48040C86000BF0020EB
:1025E000496821F070010143516000BF00BF1146EE
:1025F000496821F470010143516000BF00BF1046DB
:10260000806820F080001146886000BF10211046CD
:10261000FFF788FB4FF480712A48FFF783FB4FF4E4
:102620000060069040100790002008902B208DF845
:1026300024000020ADF8260006A92248FFF788FAFA
:102640004FF48020FEF78AFF4FF40030FEF786FF3C
:10265000022000900190032002900020039004903B
:102660000620059069461948FFF79AF84FF4B050D4
:10267000009002200190032002900020039004901B
:102680000620059069464FF09040FFF789F84FF417
:1026900088700C49096A01430A4A116200BF00BFF1
:1026A0001046406C40F400401146486400BF0846A4
:1026B000FFF799FA0348FFF791FA0248FFF798FAF3
:1026C0001DB000BD002C0140F8FFFEFF00040048D3
:1026D00030B597B0142112A8FDF74CFE20210AA8AE
:1026E000FDF748FE28216846FDF744FE0120FEF76D
:1026F00043FF01F0C9FA05460022012100F096F8D7
:10270000044621461C2001F0C7FA1C2001F0AEFA55
:102710000020ADF84800139043F63F0014900020CD
:102720001590169012A94FF08040FFF767FA4FF00E
:102730008040FFF753FA00214FF08040FFF774FB11
:1027400069464FF08040FFF703FA4FF08040FFF7F3
:102750004AFA4FF08040FFF741FA4FF08040FFF710
:1027600047FA17B030BD000030B58DB01C2106A867
:10277000FDF700FE18216846FDF7FCFD4FF4003020
:10278000FEF7FAFE4FF40030FEF7E8FE0C20009052
:102790000220019003200290002003900490072063
:1027A000059069464FF09040FEF7FAFF01F06CFA91
:1027B00005460022022100F039F804462146262071
:1027C00001F06AFA262001F051FA4FF4E130069048
:1027D00000200790089009900C200A9000200B9090
:1027E0004FF400400C9006A90F48FFF725FB00BFEF
:1027F0000D48006840F001000B49086000BF084622
:1028000000BF00BF00BF00F1080252E8002F42F0F5
:10281000800100F1080242E80013002BF3D100BF51
:1028200000BF0DB030BD000000440040F0B50346CD
:102830000C4603F00701C1F10700042801D9042068
:1028400001E0C1F107000646081D072801D200205B
:1028500000E0C81E05460120B040401E2040A840B0
:102860000127AF407F1E17403843F0BD70B50246C8
:10287000106A20F001001062136A5568946924F010
:1028800003041C4E04EA06000E6840EA060423F026
:1028900002000E6940EA060323F001004E6840EA98
:1028A00006031548824208D01448824205D01448D5
:1028B000824202D01348824213D123F008004E69AD
:1028C00040EA860323F004008E6840EA860325F47C
:1028D00080708E6940EA060525F40070CE6940EAF2
:1028E000460555609461C868506300BF13620020BC
:1028F00070BD00008FFFFEFF002C01400040014032
:1029000000440140004801402DE9F04104460D46D5
:10291000206A20F010002062266AD4F80480A7699B
:1029200027F440771C483840296840EA012726F000
:102930002000296940EA011626F01000696840EA83
:1029400001161648844208D01548844205D015481F
:10295000844202D01448844213D126F08000696971
:1029600040EA811626F04000A96840EA811628F462
:102970008060A96940EA810828F40060E96940EABA
:10298000C108C4F80480A7612046E968FFF748FA47
:1029900026620020BDE8F081FF8FFFFE002C014081
:1029A00000400140004401400048014070B502462B
:1029B000106A20F480701062136A5568D46924F09C
:1029C00003041C4E04EA06000E6840EA060423F4E1
:1029D00000700E6940EA062323F480704E6840EAD6
:1029E00006231548824208D01448824205D0144874
:1029F000824202D01348824213D123F400604E6910
:102A000040EA862323F480608E6840EA862325F41A
:102A100080508E6940EA061525F40050CE6940EAE0
:102A200046155560D461C868D06300BF13620020AA
:102A300070BD00008FFFFEFF002C014000400140F0
:102A4000004401400048014070B50246106A20F47D
:102A500080501062146A5568D36923F44073144897
:102A600018400E6840EA062324F400500E6940EA3C
:102A7000063424F480504E6840EA06340D48824201
:102A800008D00D48824205D00C48824202D00C4842
:102A9000824204D125F480408E6940EA8615556053
:102AA000D361C868106400BF1462002070BD0000CC
:102AB000FF8FFFFE002C0140004001400044014018
:102AC0000048014030B50246106A20F480301062A0
:102AD000136A546D154D04EA05000D6840EA0504BB
:102AE00023F400300D8A40EA054323F480308D88BA
:102AF00040EA05430E48824208D00E48824205D083
:102B00000D48824202D00D48824206D1506820F41E
:102B100080308D6940EA052050605465C868956D25
:102B2000906500BF1362002030BD00008FFFFEFFE4
:102B3000002C014000400140004401400048014099
:102B400030B50246106A20F480101062136A546D8A
:102B5000144820400D6840EA052423F400100D8A33
:102B600040EA055323F480108D8840EA05530E484F
:102B7000824208D00D48824205D00D48824202D0E0
:102B80000C48824206D1506820F480208D6940EACA
:102B9000852050605465C868D06500BF136200206E
:102BA00030BD0000FF8FFFFE002C014000400140BF
:102BB0000044014000480140014600BF044840680D
:102BC00000F0F0000009034A125C21FA02F070479D
:102BD0000010024070540008014600BF05484068DC
:102BE00000F4E060044A02EB1020027821FA02F0BF
:102BF000704700000010024080540008014600BFEA
:102C00000548406800F46050044A02EBD020027886
:102C100021FA02F0704700000010024080540008C2
:102C200010B5002400BF0B48406800F00C0020B134
:102C3000042804D0082808D103E0074C07E0064C1C
:102C400005E000F00BF8044601E0034C00BF00BFB4
:102C5000204610BD0010024000127A0010B500217D
:102C6000002200BF1448406800F4803002461AB1C8
:102C7000B2F5803F04D101E0104903E0104901E0C2
:102C80000E4900BF00BF00BF0B48C06A00F00F0034
:102C9000401CB1FBF0F30848406800F4701000F4E9
:102CA00070104FF4701494FAA4F4B4FA84F4E04071
:102CB000801C584310BD00000010024000093D0078
:102CC00000127A0010B502204D49096821F0070171
:102CD00001434B4A116000BF00BF00BF4848006875
:102CE00000F007000228F8D100BF4648006840F411
:102CF00080304449086000BF00BF00BF4148006801
:102D0000C0F340400028F8D04FF480304FF4E01179
:102D10003C4A526822F4741200F480330B431A4385
:102D2000384B5A601A46D26A60F30302DA6200BF77
:102D300000BF1846006840F080701946086000BF68
:102D400000BF00BF2F480068C0F340600028F8D0E3
:102D500000202C49496821F0F0010143294A5160C3
:102D600000BF10151146496821F4E061014351602C
:102D700000BF00201146496821F4605101435160B1
:102D800000BF02201146496821F003010143516050
:102D900000BF00BF00BF1B48406800F00C000828BF
:102DA000F8D11948FEF7A1FD1748FEF7CBFE1748EA
:102DB0001449096B030E03229A40914320F07F428D
:102DC0001143104A116300BF00201146096BC30E66
:102DD00092159A40914301430A4A116300BF90152E
:102DE0001146C96A21F4F8710143D16200BF800421
:102DF0001146496821F0E0610143516000BF10BDF8
:102E0000002002400010024000A24A04000001100D
:102E10000348006840F470000149086070470000F2
:102E200088ED00E010B52DED088B00BF4FF080401D
:102E3000006900F0010000287ED000BF6FF00100A3
:102E40004FF08041086100BFFE4890ED000AFE4847
:102E500080ED000AFD4890ED000AFB4880ED010A74
:102E6000FB4890ED000AB1EE400AF74880ED020AF7
:102E7000F8490860084600680078F7490870F54886
:102E8000006840784870F348006880788870F1489E
:102E90000068C078C870EF48006800790871ED4894
:102EA000006840794871EB48006880798871E9488A
:102EB0000068C079C871E7480068007A0872E54880
:102EC0000068407A4872E3480068807A8872E14876
:102ED0000068C07AC872E1480088E1490880DF488C
:102EE0004088E0490880DD488088DF490880DB4869
:102EF000C088DE490880D9480089DD490880D84863
:102F0000008800EE100AB8EE400AD04880ED000AB2
:102F1000006802F09DF841EC190B9FEDD60B53ECC5
:102F2000102B01F0C3FB41EC180B00F023FFC74945
:102F300008600846006800E0E5E302F089F841EC2B
:102F4000190B9FEDCE0B53EC102B01F0AFFB41ECB6
:102F5000180B00F00FFFBD4908600846006802F03A
:102F600077F841EC190B9FEDC70B53EC102B01F0D8
:102F700063F841EC180B00F0FDFEB4490860084608
:102F8000006802F065F841EC180B9FEDC00B53ECA4
:102F9000102B01F04FFB04D89FEDBE0AAB4880ED2B
:102FA000000AB1480088B1490988401A00EE100AA9
:102FB000B8EEC00AA34880ED000A006802F048F8A5
:102FC00041EC190B9FEDB40B53EC102B01F06EFB91
:102FD00041EC180B00F0CEFE9A490860A448008826
:102FE00000EE100AB8EE400AAD4880ED000A006815
:102FF00002F02EF841EC190B9FEDAA0B53EC102BAD
:1030000001F054FB41EC180B00F0B4FEA449086039
:1030100094480088A0F2B65000EE100AB8EEC00A3C
:103020008B4880ED000A006802F012F841EC190BA1
:103030009FED9E0B53EC102B01F038FB41EC180B6D
:1030400000F098FE824908607E48006802F000F8AF
:1030500041EC190B9FED970B53EC102B01F026FB65
:1030600041EC180B00F086FE944908609448006813
:1030700001F0EEFF41EC1B0B9FED920B53EC102B7C
:1030800001F014FB41EC190B8C48006801F0E0FFE3
:1030900041EC1A0B53EC192B00F0CEFF41EC180B4E
:1030A00000F068FE85490860084690ED000A8448F3
:1030B00080ED000A6548006801F0CAFF41EC190B79
:1030C0009FED7C0B53EC102B01F0F0FA41EC180B48
:1030D00000F050FE7D4908607D48006801F0B8FFAF
:1030E00041EC1B0B9FED770B53EC102B01F0DEFA3C
:1030F00041EC190B7548006801F0AAFF41EC1A0B6E
:1031000053EC192B00F098FF41EC180B00F032FE45
:103110006E490860084690ED000A6D4880ED000A8F
:103120004B48006801F094FF41EC190B9FED690BCF
:1031300053EC102B01F0BAFA41EC180B00F01AFE18
:10314000664908606648006801F082FF41EC1B0B8D
:103150009FED640B53EC102B01F0A8FA41EC190B16
:103160005E48006801F074FF41EC1A0B53EC192B18
:1031700000F062FF41EC180B00F0FCFD57490860BD
:10318000084690ED000A564880ED000A574800882E
:10319000401C00B2554908800846008804284FD1D9
:1031A0000020088052480088401C00B25049088026
:1031B00008460088322801D100200880214890ED7F
:1031C000000A20EE000A4B484949B1F9001000EB13
:1031D000810080ED000A9FED480A484880ED000A12
:1031E00000240DE0434800EB840090ED000A4348C2
:1031F000D0ED000A30EE200A80ED000A601C04B217
:10320000322CEFDD3D48006801F022FF41EC190B44
:103210009FED3B0B53EC102B01F040F841EC180BE9
:1032200000F0A8FD35490860084690ED000A00F05E
:1032300047FD354880ED000A006801F009FF65E0B0
:1032400086E0000018000020640300200C0000202D
:1032500028000020CC00002048030020AC01002002
:1032600000000020080000200200002004000020D0
:1032700006000020FCA9F1D24D62903FDC68006F8F
:103280008104F13F7E1D38674469F13F7B14AE47EE
:10329000E17A843F0AD7233CDBF97E6ABC74933F12
:1032A00024000020FCA9F1D24D62703FFF092E5688
:1032B000D4607ABF333333333333E33F1C00002011
:1032C000200000209A9999999999D93F10000020DF
:1032D00014000020666666666666E63F2C000020E5
:1032E00030000020343333333333D33F84000020A5
:1032F00034000020E4000020000000003C0000201A
:1033000000000000000049403800002041EC180B8C
:103310009FEDFD0B53EC102B01F08CF905D8B6EEA8
:10332000000AFB4880ED000A11E0F948006801F04E
:103330008FFE41EC180B9FEDF70B53EC102B01F0B7
:1033400054FB04D89FEDF50AF14880ED000A00BF58
:103350004FF40051F248FEF7BEFAF2480088002808
:1033600074D1F14890ED000AE948D0ED000A30EE42
:10337000600AEE4880ED030A90ED030A10EE101A81
:10338000084601F065FE41EC190B9FEDE90B53EC8B
:10339000102B01F08BF941EC180B00F0EBFC00EE68
:1033A000100AE248D0ED060A30EE200A80ED050A48
:1033B00090ED030A10EE101A084601F049FE41ECA8
:1033C000190B9FEDDD0B53EC102B01F06FF941EC65
:1033D000180B00F0CFFC00EE100AD448D0ED050A1F
:1033E00030EE200A80ED050A90ED040A10EE101A66
:1033F000084601F02DFE41EC190B9FEDCD0B53EC6F
:10340000102B01F053F941EC180B00F0B3FC00EE67
:10341000100AC648D0ED050A30EEC00A80ED050A54
:1034200090ED050A10EE101A084601F011FE41EC6D
:10343000180B9FEDC30B53EC102B01F0D6FA06D2FC
:10344000B0EE000AB94880ED050A16E0E6E0B7489C
:1034500090ED050A10EE101A084601F0F9FD41EC56
:10346000180B9FEDB90B53EC102B01F0E3F804D2CD
:103470001FED5F0AAD4880ED050AAC4890ED030AE8
:1034800080ED040A90ED050A80ED060A90ED050A2C
:1034900010EE101A084601F0DBFDAD4A03C29FEDA5
:1034A000AD0B53EC102BAA4890ED000B51EC100B18
:1034B00001F09BFA05D89FEDA70BA54880ED000B06
:1034C00010E09FEDA60B53EC102BA14890ED000BE4
:1034D00051EC100B01F0AEF804D29FEDA00B9C480C
:1034E00080ED000B9F480088401C00B29D49088079
:1034F00008460088642801D1002008809948B0F966
:10350000000000EE100AB8EEC00A974880ED000AED
:103510009FED960A964880ED000A934890ED000AC8
:103520009348D0ED000A80EE201A11EE104A204692
:1035300001F08EFD8F4A03C28E4890ED000B51ECD6
:10354000100B00F017FC044601F082FD41EC1A0B51
:103550009FED890B53EC102B01F0A8F841EC190BEF
:1035600000F008FC08EE100AB0EE480AFCF7B8FEBE
:10357000834880ED000A8348B0F9000000EE100A8D
:10358000B8EEC00A7E48D0ED000A20EE200A7E4840
:1035900080ED000A006801F05BFD41EC190B6C48FE
:1035A00090ED000B53EC102B51EC190B01F07EF851
:1035B00041EC180B00F0DEFB73490860084690ED03
:1035C000000AF0EE000A80EE201A80ED001A90ED5D
:1035D000000ADFED6E0A30EE200ABDEEC00A10EEE2
:1035E000100A00B26A490880674890ED000ADFEDD2
:1035F000670A30EE200ABDEEC00A10EE100A00B2D3
:10360000644908806248B0F900106348FEF706FC80
:103610006048B0F900106048FEF704FC4FF4805198
:103620003F48FEF758F93F48008801286BD15B48B6
:1036300090ED000A5A4880ED090A90ED060AD0ED97
:10364000090A20EE200AD0ED060A90ED0B1A00EED2
:10365000C10AD0ED070A90ED0E1A00EE810AD0EDF6
:10366000080A90ED101A00EE810A80ED0C0A90ED28
:10367000070AD0ED0F0A20EE200AD0ED080A90EDDF
:10368000111A00EE810AD0ED030A90ED061A20EE21
:10369000811AD0ED090AD0ED0A1AB0EE002A42EEE6
:1036A000210AD0ED0B1A70EEA10A01EE200A80ED7E
:1036B0000D0A90ED0A0A80ED0B0A90ED090A80EDE3
:1036C0000A0A90ED0E0A80ED100A90ED0C0A80EDCA
:1036D0000E0A90ED0F0A80ED110A90ED0D0A80EDB3
:1036E0000F0AD0ED140AB0EE600AFCF7F9FDB1EE56
:1036F000400A2B48D0ED0C0A20EE208AD0ED140AA7
:10370000B0EE600A4EE0A0E2000000000000E03FE2
:10371000380000209A99999999193E40CDCCF041F2
:10372000000400487E000020440000201802002011
:10373000F168E388B5F8E43EFCA9F1D24D62403F60
:103740000000000000000040000000000000000039
:1037500068000020000000000000F03F9A9999994D
:103760009999C93FA0000020A40000200000C84291
:10377000A8000020B00000204AD8124DFB211940BB
:10378000900000208C0000209400002000003444B1
:10379000BE000020C0000020002C014020000020BE
:1037A000DC020020FCF760FDFE48D0ED0D0A00EEC3
:1037B000208A80ED138A90ED130A80ED170A90EDB0
:1037C0001A0AD0ED150A90ED171A00EE810A80ED65
:1037D000190A90ED190AD0ED160A90ED171A00EEAD
:1037E000810A80ED190A90ED190AD0ED150A90EDC5
:1037F000181A00EEC10A80ED190A90ED190A10EEB0
:10380000101A084601F024FC41EC180B9FEDE60B62
:1038100053EC102B01F0E9F805D2B2EE040AE148AE
:1038200080ED190A15E0DF4890ED190A10EE101A24
:10383000084601F00DFC41EC180B9FEDDD0B53EC3D
:10384000102B00F0F7FE04D2BAEE040AD54880ED42
:10385000190AD44890ED170A80ED180A90ED190A5C
:1038600080ED1A0A90ED190A10EE101A084601F0C0
:10387000EFFB41EC190B9FEDD00B53EC102B00F03C
:10388000DBFB41EC180B00F075FAC64948660846A8
:1038900090ED140AD0ED190A90ED021A00EE810A9B
:1038A00080ED140A90ED140A10EE101A084601F08B
:1038B000CFFB41EC180B9FEDC20B53EC102B01F02A
:1038C00094F816D2B74890ED140A10EE101A084674
:1038D00001F0BEFB41EC190B9FEDB90B53EC102B23
:1038E00001F0B4F841EC180B00F044FAAD4908655A
:1038F00026E0AC4890ED140A10EE101A084601F0CC
:10390000A7FB41EC180B9FEDB00B53EC102B00F014
:1039100091FE15D2A34890ED140A10EE101A084635
:1039200001F096FB41EC190B9FEDA50B53EC102B0E
:1039300000F082FB41EC180B00F01CFA9949086575
:10394000A34890ED000AA348D0ED000A30EE600ACB
:10395000A14880ED030A90ED060AD0ED000A90ED33
:10396000031A00EE810A80ED050A90ED050AD0EDFC
:10397000010A90ED031A00EE810A80ED050A90ED30
:10398000050AD0ED000A90ED041A00EEC10A80EDA0
:10399000050A90ED050A10EE101A084601F058FBD2
:1039A00041EC180B9FED8D0B53EC102B01F01DF823
:1039B00005D2B2EE0E0A884880ED050A15E0864869
:1039C00090ED050A10EE101A084601F041FB41EC9B
:1039D000180B9FED840B53EC102B00F02BFE04D240
:1039E000BAEE0E0A7C4880ED050A7B4890ED030A8A
:1039F00080ED040A90ED050A80ED060A6948D0EDD5
:103A0000140AB0EE600AFCF72FFC734890ED051A1B
:103A10007648D0ED000A40EE010A7548C0ED000A74
:103A200090ED0E0AB1EE400AD0ED050A20EE200A14
:103A3000D0ED0F0A90ED061A00EEC10AD0ED100A83
:103A400090ED001A00EE810AD0ED110A90ED011AF6
:103A500000EE810AD0ED120A90ED021A00EE810A02
:103A600080ED040A90ED040A10EE101A084601F0E9
:103A7000EFFA41EC180B9FED5F0B53EC102B00F0AD
:103A8000B4FF04D29FED5D0A594880ED040A5848FE
:103A900090ED040A10EE101A084601F0D9FA41EC34
:103AA000180B9FED570B53EC102B00F0C3FD04D205
:103AB0009FED550A4E4880ED040A4D4890ED020AEC
:103AC00080ED030A90ED010A80ED020A90ED000AF4
:103AD00080ED010A90ED060A80ED070A90ED050AD7
:103AE00080ED060A90ED040A80ED050A474800883B
:103AF000401C00B24549088008460088642801D16E
:103B0000002008804148B0F9000000EE100AB8EE2D
:103B1000C00A3F4880ED000A1FEDEC0A3D4880EDE9
:103B2000000A3B4890ED000A3A48D0ED000A80EECA
:103B3000201A11EE104A204601F08AFA364A03C2D2
:103B40002B48D0ED040A3548B0F9000000EE100A09
:103B5000B8EEC00A20EE800A314880ED000A90EDF0
:103B6000000AF0EE000A80EE201A80ED001A90EDB7
:103B7000000A5FEDFA0A30EE200ABDEEC00A10EE30
:103B8000100A00B227490880254890ED000ADFEDB1
:103B9000260A30EE200ABDEEC00A10EE100A00B26E
:103BA000224945E0DC020020000000000000244023
:103BB00000000000000024C0FAB836548CA2734004
:103BC0006E861BF0F92119406E861BF0F92119C091
:103BD00040000020140000205402002000000000DB
:103BE00000002E400000000000002EC03000002029
:103BF000900200205C8FC2F5285CEF3F48E17A3FDD
:103C00005C8FC2F5285CEFBF48E17ABFA0000020BE
:103C1000A4000020A8000020B00000208C0000209C
:103C200094000020BE00002000003444C0000020AA
:103C300008800748B0F900100648FEF7EFF806487C
:103C4000B0F900100348FEF7EDF8BDEC088B10BD8D
:103C5000BE000020002C0140C000002000BF40201A
:103C60000149086200BF704700440040002809DB9A
:103C700000F01F02012191404209920002F1E0226E
:103C8000C2F800117047000002480068C0F302202B
:103C9000704700000CED00E010B5002804DB0A07B7
:103CA000130E054A135406E00A07140E034A00F0E7
:103CB0000F031B1FD45410BD00E400E018ED00E01A
:103CC00010B52DED028BB1EEC08A18EE100A20F06F
:103CD0000040C0F1FF40C00F0AD010EE100A20F0E3
:103CE0000040C0F1FF40C00F04BF0120FCF771FB92
:103CF000B0EE480ABDEC028B10BD00000120FDF7BC
:103D000049FC4FF08050FDF737FC03200246174B6B
:103D100019684FF6FF031940154B0B4343EA022184
:103D2000124B196000BFFFF7AFFF054600220F21BD
:103D3000FEF77CFD044621464FF0FF30FFF7ACFF55
:103D4000FEF7C0FFFEF7D8FAFEF700F9FEF762FAB9
:103D5000FEF7BEFCFEF708FDFEF794FAFCF718FC30
:103D6000FEF77AFBFEF7CCFB00BFFEE70CED00E0B0
:103D70000000FA0521F00042A2F16052B2F5801F66
:103D800001F0004328BFD2F17E6C51D9F1EE10CA88
:103D90001CF4400F14D15FEAC00C43EAC20202EBEC
:103DA000507008BF70475FEA4C0C40F10000DFF82C
:103DB00080C241F0578028BF20F0010001F052B8C6
:103DC000C30001F0004343EAC20202EB507008BF97
:103DD00070471B4248BF4FEA4C0C1CF4000F08BF51
:103DE000401CDFF84CC201F03DB8C30001F00043B5
:103DF00043EAC20202EB507204BF104670471B42F6
:103E000048BF4FEA4C0C1CF4000FDFF824C218BF67
:103E1000104641F0278008BF521C12F4000F08BF63
:103E2000104601F01F8021F0004201F0004330E015
:103E300050EA410C04BF084670475FEA125CBCF1CF
:103E4000FE0F1ED1F1EE10CA1CF4400FCDD15FEA77
:103E5000C00C9BD05FEA001C4FEAC20C4CEB507CBC
:103E600004BFC2002CEAD27C1CF4000F04BF4CEA51
:103E70000300DFF8BCC100F0F58721F00042A2F199
:103E80006052B2F5801F4FEA410C2ADB1CF5001F7F
:103E900016D2F1EE10CA1CF4806F06D02CF0005C34
:103EA0004CF0805CA1F140612AE04FF07F40DFF8E8
:103EB00084C143EA500000F0D5BF084601F083B941
:103EC00070B500F0D3FC00BF000000B9880000040A
:103ED000FFF7F3BF21F0704243EA507040EAC2009E
:103EE0007047F1EE10CA2CF0805C4CF0005C1CF4C2
:103EF000006F25D04B00B3F5001F51D301F1406195
:103F00001CF4400F40F07E800CF0405CC3004CF08D
:103F1000880C11D05CF0404C10F0805F0CD0034650
:103F200010F1005041F10001020108BF20F00050E3
:103F3000834218BF2CF0004C00F0604001F03FBA03
:103F40001CF4400F1AD01B4248BF4FEA4C0C1CF423
:103F5000000F13D112F1406248BF22F07F424FEAB6
:103F6000C00CBCF1010F43EAC20242EB50704FF0AB
:103F7000880228BF42F0804201F02AB912F1406263
:103F800048BF22F07F425FEAC00C43EAC20242EA25
:103F900050704FF0880218BF42F0404201F018B94B
:103FA00001F0004321F00041094214D0B1FA81FC34
:103FB000ACF10B0CCCF1200201FA0CF120FA02F268
:103FC00041EA02014FEA0C5200FA0CF0A1EB0201A7
:103FD00081EA03010FE0B0FA80F200FA02F002F188
:103FE00015024FEAD0214FEA0252A1EB02014FEA3B
:103FF000405081EA0301F1EE10CA2CF0805C4CF0D5
:10400000005C7BE762460CF0405CC3004CF0880C1F
:1040100092D05CF0404C094248BF520012F4000FAD
:104020008AD110F1005041F100012CF0004C83D1F5
:10403000880000408800001010B5DFF840E211F55C
:10404000801C13F580141EEA4C0F18BF1EEA440FA3
:1040500000F0C88091EA030F48BF83F0004300F1ED
:104060000A85841A71EB030C05D2121943EB0C0379
:10407000001B61EB0C014FEA1154A4EB135C23EA23
:104080006E0321EA045143F48013DCF1200E53D374
:1040900022FA0CFE10EB0E0023FA0CFE41EB0E018F
:1040A000CCF1200E03FA0EFE10EB0E0051F10001D0
:1040B000B1F5801FCCF1200E53D201EB045112FA5E
:1040C0000EF2BDE8104008BF7047F1EE10CA1CF4B4
:1040D000400F1ED14FF0110C92F0000F4CF0804CAD
:1040E00040F1C086401C38BF5FEA420240F0BA8609
:1040F000002814BF20F0010041F100014FEA410304
:1041000013F5001F24BF4CF0805CA1F1C04100F00A
:10411000A9BE11F0004F54BF1CF4000F1CF4800F17
:104120004FF0110C4CF0804C40F09C86401CC0F0CD
:10413000998641F10001E1E7012A43EB0302ACF16A
:10414000200CDCF11F0E32BF4FF0000E23FA0CF3EF
:1041500010EB030041EB0451B4EB115FAFD0A1EBC6
:10416000045101F5801149085FEA300002FA0EF2AD
:1041700042EA420201EB04515FEA320213D0BDE889
:104180001040F1EE10CA1CF4400F1AD14FF0110C80
:1041900092F0000F4CF0804CB0D5401C38BF5FEA65
:1041A0004202ABD1A4E7BDE810404FEA410313F54A
:1041B000001F38BF7047DFF8C8C0A1F1C04100F050
:1041C00051BE11F0004F54BF1CF4000F1CF4800FBF
:1041D0004FF0110C4CF0804C90D1401C8ED341F12B
:1041E00000018BE74EF4001E3EEA410418BF3EEA90
:1041F000430439D091EA030F48BF83F0004300F134
:104200003585841A71EB030C05D2121943EB0C03AC
:10421000001B61EB0C0152EA430E4FEA1154A4EB70
:10422000135C13D05FEA445E21EA04511CBF23F003
:104230000043ACF1010C7FF428AFBDE810404FF013
:10424000110C801841EB030100F0F7BC5FEA445EFB
:10425000BDE8104018BF704750EA410C08BF7047D6
:104260004FF0110C00F0E9BCBDE8104070B500F053
:10427000FDFA00BF64FBBE3E110000040000C0FF59
:1042800011000010491058BFC1F140415B1058BFE8
:10429000C3F140438B42EFF3008070472DE9C041EA
:1042A00030B4DFF864C33CEA111418BF3CEA1314BD
:1042B00000F04B8181EA03051CEA111444EAD5742D
:1042C00018BF1CEA131500F01D81A4EB05044FF084
:1042D000004545EAC12145EAC32341EA505143EA7A
:1042E000525304F17F74994204F500344FEAC02020
:1042F0004FEAC22208BF904200F0D0804FEA136517
:104300000FF20426765D4FEA134506FB05F7C7F169
:10431000807706FB07F74FEAD737A7FB036876429B
:10432000C8F58038A7FB06CE38BFA8F1010807FB07
:1043300008E64FF0000EA6FB028CE6FB03CEDCF194
:10434000000CCEF1004E38BFAEF1010EA6FB0C58AA
:104350004FF000074FF00005E6FB0E87A1FB08C6F3
:10436000A0FB07CE16EB0E0645F10005E1FB076545
:1043700015F1E04E7EBFA4F580345FEA46066D413C
:1043800016F18007F1EE10CA45F100054FEA172734
:1043900047EA05671CF4400F4FEA152536D14FEA6E
:1043A0004666A6F15E46B6F1085F2FD9B4F1FE6FFE
:1043B0002CD8384624F0010C05EBC471BCF1FE6F1B
:1043C00001EB0C11DFF844C202D8F0BCBDE800419B
:1043D00040F2488524425CBF01F5801E9EEAC47FFE
:1043E00002D4F0BCBDE8004140F13C85244277D4C2
:1043F000DFF81CC256EA080EA1F1C04118BF4CF00C
:10440000804CF0BCBDE8004100F02CBD4FEAD22248
:1044100042EA43524FEAD323A7FB02864FEAD02059
:1044200040EA415007FB03661EEA0E0F4FEAD12116
:1044300005FB026658BFA6EB0056B6EB00564FEAE6
:10444000520E4EEAC37E18EB0E0E56EB530E05D5F8
:1044500018EB02085E417F1C55F1000556EA080E74
:1044600024D01CF4400FA4D014F0010F18BF4FEA61
:104470004C0C1CF4000F08D036429AD4B8EB02085A
:104480009E417F1E75F1000593E7364291D518EBEA
:1044900002085E417F1C55F100058AE74FF4801544
:1044A0004FF000074FF000064FF0000824F0010C19
:1044B000384605EBC471BCF1FE6F01EB0C1102D85C
:1044C000F0BCBDE800811CEA0C0F5CBF01F5801E4A
:1044D0009EEAC47F02D4F0BCBDE80081244287D5A7
:1044E00056EA080C01F1C0411CBF06F0004C4CF02C
:1044F000804C4CF0005CF0BC4CF0140CBDE800416A
:1045000000F0F2BB50EA410E0CEA13150BD052EA50
:10451000430E13D000F02BFA641B86EA46062404EF
:1045200044EAD674D3E652EA430E00F02680F0BC8B
:1045300081EA030101F00041BDE80081F0BCBDE863
:104540000041DFF8D0C000F08DBCF0BCBDE80041F8
:1045500070B500F08BF900BF097EFC3E140000042A
:1045600000F007B881EA03014FF0000001F00041BC
:10457000704781EA030100F032BAF0BCBDE80041A7
:104580005FF828C000F06EBCFFFDFBF9F7F5F4F210
:10459000F0EEEDEBE9E8E6E4E3E1E0DEDDDBDAD8DE
:1045A000D7D5D4D3D1D0CFCDCCCBCAC8C7C6C5C43C
:1045B000C2C1C0BFBEBDBCBBBAB9B8B7B6B5B4B353
:1045C000B2B1B0AFAEADACABAAA9A8A8A7A6A5A43E
:1045D000A3A3A2A1A09F9F9E9D9C9C9B9A99999802
:1045E0009797969595949393929191908F8F8E8EA5
:1045F0008D8C8C8B8B8A8989888887878685858432
:1046000084838382828181800000FF071400004040
:104610001400001014000008B1FA81F201FA02F14E
:10462000C2F11D024FEA415003EB025303EBD121CB
:104630007047000051EA030C11D41CF5801F00F1F3
:104640000680994218BF704708BF9042704711F525
:10465000801F58BF13F5801F18D4994270471CF56E
:10466000801F09D550EA410C0EBF52EA430C8B4221
:10467000704708BF824270474FF4001C1CEB410F8B
:1046800038BF1CEB430F01D28B42704770B500F06E
:10469000EDF800BF0000003F19001604FFF7F2BD5F
:1046A0004FF000514FF08053FFF7ECBDDFF8B4C17D
:1046B00070B51CEA111E1EBF1CEA13159EEA0C0FF2
:1046C00095EA0C0F00F0948081EA030421EA4C1172
:1046D0004EEAD47E23EA4C13AE4441F4801143F4F5
:1046E0008013A1FB024CA0FB0365AEF17F7E36195F
:1046F00055EB0C05A1FB034C4CF10003A0FB021C85
:1047000016EB0C06654153F10003094218BF46F051
:10471000010613F4007F0BD14FEA03314FEA053055
:10472000340341EA155140EA16506FF003020AE0E3
:104730004FEAC3214FEAC520F40241EA555140EA4D
:1047400056506FF00202264602EB2E4201EB025554
:1047500085EACE7127D0F1EE10CA05461CF4400C54
:1047600014D15FEA440C18BF24F0004450F100005B
:1047700041F1000120EAD47040F2FD7C624517D27D
:10478000BDE87040DFF8E0C000F06CBB5FEACE74BB
:1047900054BF1CF4000F1CF4800F08BF10F101007F
:1047A00041F10001E8E740F2FE7C624504D270BDB1
:1047B00008BF11F4801FE3D0A84214BF4FF080441B
:1047C0004FF04044002E08BF0024BEF1806FD8BFD8
:1047D00001F1C041A8BFA1F1C04144F0130CA8BF32
:1047E0004CF0805CBDE8704040F37E8200F03ABB44
:1047F0009EEA0C0F0CEA131518BF95EA0C0F19D09E
:1048000091EA030F48BF4EF0010E50EA410418BF71
:1048100052EA430409D000F0AAF8641986EA460671
:104820004FEA044E4EEAD67E5BE74FEACE714FF078
:10483000000070BD00F01AF88900013E130000046A
:1048400000F005B800F007B852EA430C06D081EA40
:10485000030100F0C4B850EA410CF8D15FF824C05D
:1048600000F000BB0000FF07130000400EF1020E35
:104870002EF0030E01285EF8086B41EB010414F5DD
:10488000001418BFB4F5801F23D3364208D4012A80
:1048900043EB030515F5001518BFB5F5801F18D3B8
:1048A00001EB010C1CF5801F16D2364204D403EB39
:1048B000030C1CF5801F0FD2002C10D14FEAD17CC5
:1048C000002D0CEB4C0C0CF1020C08BF4CEBD37C14
:1048D00007E04FF0090C04E04FF0080C01E04FEA4C
:1048E000D37C0CEB4C0526FA05F606F00706B6F16C
:1048F000040C06D20EEB860CBDE870404CF0010CA7
:104900006047DFE80CF0222413025EF804CC1B2D74
:1049100008D1002C88BFB4F5801F34BF4CF4804C04
:104920004CF4004CBDE8704000F09CBA002C88BFED
:10493000B4F5001F24BF1946104670BD4FF00000AB
:104940004FF00041A1F5002170BD19461046012825
:1049500051EB010418BFD4F5001484BF5EF804CCF9
:104960002CF0806CBDE8704000F25B82704780B52F
:104970004FF003065C004FEA03334FEA3606640D3E
:104980004FEA133318BF43F480131CD153EA125E6D
:1049900004F1010402BF13460022203C1B4202BF67
:1049A000130B1205143CB3FA83FEAEF10B0ECEF1DD
:1049B000200C03FA0EF322FA0CFC02FA0EF2A4EB1E
:1049C0000E0443EA0C030FB416F0010F0CBC03BC39
:1049D00018BF2546CED180BD80B50126F3E7080873
:1049E000A0F500114FEA3101704753EA010C11D4D0
:1049F0001CF5801F00F106808B4218BF704708BF6E
:104A00008242704713F5801F58BF11F5801F18D4DC
:104A10008B4270471CF5801F09D552EA430C0EBF2C
:104A200050EA410C9942704708BF904270474FF4DA
:104A3000001C1CEB430F38BF1CEB410F01D2994205
:104A400070470FB40CBC03BCFFF720BE10B5DFF8F5
:104A500094E211F5801C13F580141EEA4C0F18BF68
:104A60001EEA440F00F0F38091EA030F48BF83F081
:104A700000433FF5F6AA841A71EB030C07D2121912
:104A80008CF0004C43EB0C03001B61EB0C01524219
:104A90004FEA1154A4EB135C23EAAE0321EA04515C
:104AA000C3EBAE0338BF5B1EDCF1200E48D322FA05
:104AB0000CFE10EB0E0043FA0CFE41EB0E01CCF1A4
:104AC000200E03FA0EFE10EB0E0051F10001CCF1A6
:104AD000200E4CD412FA0EF201EB0451BDE8104046
:104AE00008BF7047F1EE10CA1CF4400F14D14FF00C
:104AF000120C92F0000F4CF0804C40F1B381401C3E
:104B000018BFB2F1004F40F0AD8100280CBF491C26
:104B100020F0010000F0A6B911F0004F54BF1CF4C2
:104B2000000F1CF4800F4FF0120C4CF0804C40F042
:104B30009981401C40F0968141F1000100F092B94A
:104B400012EB020E43EB030218BF4FF0010E4EEAC8
:104B50004202ACF1200CDCF11E0E4BD943FA0CFEE4
:104B600010EB0E0051F1FF31CCF11E0EB2D50EF15B
:104B7000010E12FA0EFE404141EB010101EB445CD3
:104B80005FEA5C5C06D95FEA0E0201EB0451BDE806
:104B90001040A5E73BD24FEAD42C11F5001124F4C4
:104BA00000641AD0B1FA81F20B3AA41AA41ED2F111
:104BB0002003914030FA03F31943904001EBCC718C
:104BC000002C01EB0451BDE81040A8BF704701F173
:104BD000C0414FF0120C00F087B8B0FA80F310FA21
:104BE00003F101D1BDE8104019D0E41A173C480583
:104BF000C90AE3E701EB0451BDE81040401E61F132
:104C000000015FF0FF326BE701EB045110BD49106A
:104C100001EB0451BDE810404FEA30000BE0F1EE2B
:104C200010CA4FF000010CF4400CBCF5000F08BF97
:104C30004FF0004170474FF0120C4A0008BF00428D
:104C4000EDD0B2F5001F28BF704700F0EAB84EF46F
:104C5000001E3EEA410418BF3EEA430434D091EA04
:104C6000030F48BF83F000433FF5CBAA841A71EBD2
:104C7000030C07D212198CF0004C43EB0C03001B01
:104C800061EB0C0152EA033E4FEA1154A4EB135CB2
:104C900014D05FEA445E21EA045109D023F00043B6
:104CA0005242ACF1010CC3F1000338BF5B1EFBE6BE
:104CB000BDE81040801A61EB0301BCE7BDE810407D
:104CC00050EA410CB7D1AAE7BDE8104070B5FFF734
:104CD000CDFD00BF40DFF63E1100000483F000412F
:104CE000104670470000C0FFF1EE103A13F0807FCD
:104CF0001EBF01F000410020704713F4006F40F028
:104D0000AA80094248BF4CF4803C4FF4C0634FEA8C
:104D1000115203F1010321EA025122F400629A1AAE
:104D200048BF6FF0FE0241F48011352A3CD830D0E4
:104D3000152A1ED3203A0CD90028C2F1200321FAEB
:104D400002F001FA03F218BF42F001024FF0000135
:104D500030E0C2F1000302F1200201FA03F120FA6F
:104D600002F241EA020100FA03F208464FF00001A4
:104D700020E0C2F1200310B400FA03F401FA03F3B7
:104D800020FA02F021FA02F1224610BC43EA0000A8
:104D900010E050EA01324FF000004FF000014FF0F8
:104DA000004218BF521C05E04FF001024FF0000115
:104DB0004FF000001CF4803F2CF4803C18BF41F001
:104DC000004112421ED0F1EE103A13F4400F20D1F0
:104DD000520003D30CD0401C41F10001F1EE103A17
:104DE0004CF0804C43F00803E1EE103A00F03AB882
:104DF0005FEAAC72EFD4F1D1401C41F1000120F028
:104E00000100EBE71CF0804F08BF70472CF0004C0E
:104E1000E4E7094254BF13F4000F13F4800FDDD10F
:104E2000D9E7F1EE103A13F0807F1EBF01F0004188
:104E30000020704713F4006F08BF70472DE9F05051
:104E4000FFF7CAFD04F5C064A4F10104314301EB8E
:104E50000451BDE8F0504CF0005C4CF0800C00F0C8
:104E6000AEBA00001CF0700F08BF0A460FB4F1EE96
:104E7000101A0CF0405030EA814318BF4CF0804CBF
:104E80004FEA4C0310EA814F4FEAD36323EA112320
:104E900018BF23F0100341EA030101F0E073E1EED3
:104EA000101A4CEA030C0CF00F030A2B1DBF082B41
:104EB0000CF070034CEAC30C4FF4003304BF33EA28
:104EC0000C034CF4400C1CF0005F14D11CF0805F0C
:104ED0000BD11CF0804F31D11CF0006F12D111F4B6
:104EE000807F0FBC62D000F06ABA11F4806F0FBCF3
:104EF0002BD000F064BA11F4006F0FBC08BF7047EC
:104F000000F05DBA11F4007F0FBC40F058821CF035
:104F1000400F1EBF4FF0004040F0010070471CF0F2
:104F2000100F14BF81EA030242400CF00F000A2860
:104F300008BF4FF0FF324FF0000326E011F4805F0E
:104F40000FBC08BF704700F03ABAF1EE103A2CF0EF
:104F5000805C1CF0800F14BF01F0004200F00042A2
:104F600012420CBF12EA336F12EAF35F0DD31CF04A
:104F7000100F1DBF30A003C81143314808BF1043B4
:104F800013F4805F40F01B8270471CF0100F02F09A
:104F900000421DBF0FF2940003C81143254808BF0B
:104FA000104313F4805F40F00A8270471CF0400FFA
:104FB00040F028801CF4404F1BD01CF4004F1CBF55
:104FC000194610460CF4807218BF8CEA520C1CF083
:104FD000800F0CBF40F4800041F400218CEADC0318
:104FE00013F0100F1CBF2CF00F0C4CF0080C00F04D
:104FF0008DB91CF0100F1ABF12A393E803001348D9
:1050000000F084B91CF0800F14BF01F0004200F0E2
:1050100000421CF0100F1BBF0AA393E803000B48CB
:10502000114308BF104300F071B900BF0000000039
:105030000000F07F0000807FFFFFFFFFFFFFEF7F9A
:10504000FFFF7F7F000000000000F87F0000C07FAE
:1050500043004FEAD30C4FEA3C0C43401FBF4007CC
:105060000CF1605113F0FE4F70471CF0006F14D12B
:1050700033F0004004BF1946704783EA830383EA94
:10508000430303F0070343EACC010CF0004303F1B0
:105090005A5303F54013FFF7BFBA0CF0004343EA3D
:1050A000507010B540EACC0000F00FF8000000BAD4
:1050B000180000044FEA0001FFF791BC4FEAE0023C
:1050C0004FEA407042F0E04170470EF1020E2EF0C0
:1050D000030E4FEA40025EF8084B12F1807218BFCF
:1050E000B2F5000F22D3244207D44FEA410313F153
:1050F000807318BFB3F5000F18D34FEA400C1CF5AE
:10510000000F16D2244204D44FEA410C1CF5000FC4
:105110000FD2002A10D14FEAD07C002B0CEB4C0CA4
:105120000CF1020C08BF4CEBD17C07E04FF0090CEE
:1051300004E04FF0080C01E04FEAD17C0CEB4C038B
:1051400024FA03F404F00704B4F1040C06D20EEBC5
:10515000840CBDE810404CF0010C6047DFE80CF017
:105160001F2013025EF804CC1B2B08D1002A88BF35
:10517000B2F5000F34BF4CF4804C4CF4004CBDE849
:105180001040FFF76FBE002A88BFB2F1807F28BFB2
:10519000084610BD4FF00040A0F5800010BD084645
:1051A000420018BFD2F1807284BF5EF8042C22F056
:1051B0008062BDE8104000F28A8070474FF0000026
:1051C000E1EE100A7047FF2141EAD050C005704758
:1051D000F1EE101A11F0807F1CBF00F00040704704
:1051E00011F4006F40F08E8000F0004343EAD0538A
:1051F00023F48073C3F1C10323F00041172941D880
:10520000C3F1200310FA03F1C3F1200320F07F4023
:1052100040F4000020FA03F003F0004340EA0300EA
:1052200019D00B46F1EE101A41F00801E1EE101A08
:1052300011F4400F1CD1590009D318BF401C06D1EE
:105240007FEAE27398BF401C38BF20F0010042F0B3
:10525000804CFFF707BE12F0804F08BF7047F1EE99
:10526000101A944641F00801E1EE101AFFF7FABD5A
:1052700010F0004F14BF5FEAF1535FEA316338BFAB
:10528000401CE4E7182903EB912318BF6FF000419D
:105290000131F1EE101A41F00801E1EE101A11F49B
:1052A000400F18BF03F00040E2D168BF03F0004098
:1052B00009D6400203F0004000F1010004BF12F0E3
:1052C000004F20F001004FF0804CFFF7CBBDF1EE16
:1052D000101A11F0807F1CBF00F00040704711F4DD
:1052E000006F08BF704700F0004120F00040B0FAA6
:1052F00080F3A3F1080341F0C04100FA03F0A1EBF1
:10530000C351084442F0005C00F059B80CF00F03A0
:10531000092B08BF082000F064800A2B32D0082B2C
:1053200018BF704708BF1CF0400F31D01CF4803FFD
:1053300023D11CF0200F11D11CF0100F0BBF02461F
:105340000A466FF000406FF0004118BF4FF0FF3089
:1053500012F0004F1CBFC043C94370471CF0100F30
:105360000CBF02460A4612F0004F4FF0FF304FF0DC
:10537000FF311CBFC043C94370474FF000004FF0DE
:10538000000170471CF0400F18BF4FF000407047FD
:105390001CF0100F08D020F0704300F07F4242EA6A
:1053A000D3014FEA4370704700F0604021F07F4224
:1053B00042EA000201F07F4040EA727070472DE936
:1053C00000502DE90050FBF70FF8BDE80050BDE894
:1053D00000500CF00F0393F0090F18BF7047AFF3A4
:1053E00000801CF4801F24D01CF4E02F09D010F0A2
:1053F000080F02D1D0F1020070476FEACC314900AA
:1054000070474FF0604111EA407028BF40F04050B3
:10541000F1EE103A23F0704343EA0003E1EE103A54
:10542000EFF3008222F0704242EA000282F3008829
:1054300070471CEA004018BF01207047081C304428
:10544000586C80000000000404043C3C000008008C
:10545000000008000800000800000008000000022A
:105460000406080A0C101400010203040506080AC9
:105470000000000000000000010203040607080904
:10548000000000000102030400000000920E493CED
:10549000B10AC93C2BC3163D2EFB483D752B7B3D05
:1054A00004A9963D80B6AF3D36BDC83D2FBCE13D59
:1054B00073B2FA3D87CF093E8340163EB5AB223E1C
:1054C000A2102F3ECF6E3B3EC2C5473E0115543E53
:1054D000135C603E7F9A6C3ECCCF783EC07D823EAE
:1054E000938E883E229A8E3E32A0943E86A09A3EAB
:1054F000E59AA03E128FA63ED47CAC3EEF63B23E4E
:105500002A44B83E491DBE3E15EFC33E53B9C93EBD
:10551000CA7BCF3E4136D53E80E8DA3E4F92E03E30
:105520007533E63EBBCBEB3EEA5AF13ECBE0F63EAE
:10553000275DFC3EE4E7003F3D9C033F824B063F76
:105540009BF5083F6B9A0B3FDA390E3FCDD3103FE6
:105550002A68133FD9F6153FC07F183FC6021B3F8C
:10556000D17F1D3FCBF61F3F9967223F25D2243FB5
:105570005636273F1594293F4AEB2B3FDE3B2E3F03
:10558000BB85303FC9C8323FF304353F233A373F2C
:105590004268393F3B8F3B3FF9AE3D3F67C73F3FD6
:1055A00070D8413F01E2433F03E4453F65DE473F9A
:1055B00012D1493FF8BB4B3F029F4D3F207A4F3FEE
:1055C0003D4D513F4918533F31DB543FE595563F20
:1055D0005348583F6AF2593F1A945B3F532D5D3F41
:1055E00005BE5E3F2146603F97C5613F5A3C633F21
:1055F00059AA643F880F663FD86B673F3CBF683F3E
:10560000A7096A3F0C4B6B3F5E836C3F93B26D3FC3
:105610009ED86E3F73F56F3F0809713F5213723F7A
:105620004714733FDD0B743F0BFA743FC6DE753FC2
:1056300007BA763FC58B773FF853783F9812793F8A
:105640009DC7793F02737A3FBE147B3FCDAC7B3F51
:10565000283B7C3FC9BF7C3FAC3A7D3FCCAB7D3F14
:1056600023137E3FB0707E3F6DC47E3F580E7F3F58
:105670006D4E7F3FAB847F3F0FB17F3F97D37F3F1E
:1056800043EC7F3F11FB7F3F0000803F11FB7F3FDA
:1056900043EC7F3F97D37F3F0FB17F3FAB847F3F8A
:1056A0006D4E7F3F580E7F3F6DC47E3FB0707E3F92
:1056B00023137E3FCCAB7D3FAC3A7D3FC9BF7C3FDF
:1056C000283B7C3FCDAC7B3FBE147B3F02737A3FCF
:1056D0009DC7793F9812793FF853783FC58B773F44
:1056E00007BA763FC6DE753F0BFA743FDD0B743F99
:1056F0004714733F5213723F0809713F73F56F3FB0
:105700009ED86E3F93B26D3F5E836C3F0C4B6B3FF8
:10571000A7096A3F3CBF683FD86B673F880F663F69
:1057200059AA643F5A3C633F97C5613F2146603F99
:1057300005BE5E3F532D5D3F1A945B3F6AF2593FB1
:105740005348583FE595563F31DB543F4918533F86
:105750003D4D513F207A4F3F029F4D3FF8BB4B3F9D
:1057600012D1493F65DE473F03E4453F01E2433F35
:1057700070D8413F67C73F3FF9AE3D3F3B8F3B3F4E
:105780004268393F233A373FF304353FC9C8323FB7
:10579000BB85303FDE3B2E3F4AEB2B3F1594293F24
:1057A0005636273F25D2243F9967223FCBF61F3F2D
:1057B000D17F1D3FC6021B3FC07F183FD9F6153F62
:1057C0002A68133FCDD3103FDA390E3F6B9A0B3F57
:1057D0009BF5083F824B063F3D9C033FE4E7003FBB
:1057E000275DFC3ECBE0F63EEA5AF13EBBCBEB3EFA
:1057F0007533E63E4F92E03E80E8DA3E4136D53ED4
:10580000CA7BCF3E53B9C93E15EFC33E491DBE3ECC
:105810002A44B83EEF63B23ED47CAC3E128FA63E23
:10582000E59AA03E86A09A3E32A0943E229A8E3EF1
:10583000938E883EC07D823ECCCF783E7F9A6C3E70
:10584000135C603E0115543EC2C5473ECF6E3B3EE1
:10585000A2102F3EB5AB223E8340163E87CF093EB5
:1058600073B2FA3D2FBCE13D36BDC83D80B6AF3DB9
:1058700004A9963D752B7B3D2EFB483D2BC3163D61
:10588000B10AC93C920E493C00000000920E49BC8E
:10589000B10AC9BC2BC316BD2EFB48BD752B7BBD01
:1058A00004A996BD80B6AFBD36BDC8BD2FBCE1BD55
:1058B00073B2FABD87CF09BE834016BEB5AB22BE18
:1058C000A2102FBECF6E3BBEC2C547BE011554BE4F
:1058D000135C60BE7F9A6CBECCCF78BEC07D82BEAA
:1058E000938E88BE229A8EBE32A094BE86A09ABEA7
:1058F000E59AA0BE128FA6BED47CACBEEF63B2BE4A
:105900002A44B8BE491DBEBE15EFC3BE53B9C9BEB9
:10591000CA7BCFBE4136D5BE80E8DABE4F92E0BE2C
:105920007533E6BEBBCBEBBEEA5AF1BECBE0F6BEAA
:10593000275DFCBEE4E700BF3D9C03BF824B06BF72
:105940009BF508BF6B9A0BBFDA390EBFCDD310BFE2
:105950002A6813BFD9F615BFC07F18BFC6021BBF88
:10596000D17F1DBFCBF61FBF996722BF25D224BFB1
:10597000563627BF159429BF4AEB2BBFDE3B2EBFFF
:10598000BB8530BFC9C832BFF30435BF233A37BF28
:10599000426839BF3B8F3BBFF9AE3DBF67C73FBFD2
:1059A00070D841BF01E243BF03E445BF65DE47BF96
:1059B00012D149BFF8BB4BBF029F4DBF207A4FBFEA
:1059C0003D4D51BF491853BF31DB54BFE59556BF1C
:1059D000534858BF6AF259BF1A945BBF532D5DBF3D
:1059E00005BE5EBF214660BF97C561BF5A3C63BF1D
:1059F00059AA64BF880F66BFD86B67BF3CBF68BF3A
:105A0000A7096ABF0C4B6BBF5E836CBF93B26DBFBF
:105A10009ED86EBF73F56FBF080971BF521372BF76
:105A2000471473BFDD0B74BF0BFA74BFC6DE75BFBE
:105A300007BA76BFC58B77BFF85378BF981279BF86
:105A40009DC779BF02737ABFBE147BBFCDAC7BBF4D
:105A5000283B7CBFC9BF7CBFAC3A7DBFCCAB7DBF10
:105A600023137EBFB0707EBF6DC47EBF580E7FBF54
:105A70006D4E7FBFAB847FBF0FB17FBF97D37FBF1A
:105A800043EC7FBF11FB7FBF000080BF11FB7FBFD6
:105A900043EC7FBF97D37FBF0FB17FBFAB847FBF86
:105AA0006D4E7FBF580E7FBF6DC47EBFB0707EBF8E
:105AB00023137EBFCCAB7DBFAC3A7DBFC9BF7CBFDB
:105AC000283B7CBFCDAC7BBFBE147BBF02737ABFCB
:105AD0009DC779BF981279BFF85378BFC58B77BF40
:105AE00007BA76BFC6DE75BF0BFA74BFDD0B74BF95
:105AF000471473BF521372BF080971BF73F56FBFAC
:105B00009ED86EBF93B26DBF5E836CBF0C4B6BBFF4
:105B1000A7096ABF3CBF68BFD86B67BF880F66BF65
:105B200059AA64BF5A3C63BF97C561BF214660BF95
:105B300005BE5EBF532D5DBF1A945BBF6AF259BFAD
:105B4000534858BFE59556BF31DB54BF491853BF82
:105B50003D4D51BF207A4FBF029F4DBFF8BB4BBF99
:105B600012D149BF65DE47BF03E445BF01E243BF31
:105B700070D841BF67C73FBFF9AE3DBF3B8F3BBF4A
:105B8000426839BF233A37BFF30435BFC9C832BFB3
:105B9000BB8530BFDE3B2EBF4AEB2BBF159429BF20
:105BA000563627BF25D224BF996722BFCBF61FBF29
:105BB000D17F1DBFC6021BBFC07F18BFD9F615BF5E
:105BC0002A6813BFCDD310BFDA390EBF6B9A0BBF53
:105BD0009BF508BF824B06BF3D9C03BFE4E700BFB7
:105BE000275DFCBECBE0F6BEEA5AF1BEBBCBEBBEF6
:105BF0007533E6BE4F92E0BE80E8DABE4136D5BED0
:105C0000CA7BCFBE53B9C9BE15EFC3BE491DBEBEC8
:105C10002A44B8BEEF63B2BED47CACBE128FA6BE1F
:105C2000E59AA0BE86A09ABE32A094BE229A8EBEED
:105C3000938E88BEC07D82BECCCF78BE7F9A6CBE6C
:105C4000135C60BE011554BEC2C547BECF6E3BBEDD
:105C5000A2102FBEB5AB22BE834016BE87CF09BEB1
:105C600073B2FABD2FBCE1BD36BDC8BD80B6AFBDB5
:105C700004A996BD752B7BBD2EFB48BD2BC316BD5D
:105C8000B10AC9BC920E49BC00000080AC5C00089F
:105C900000000020E4000000C4010008905D00083E
:105CA000E4000020F4080000E0010008000000000B
:105CB00000000000000000000000000000000000E4
:105CC00000000000000000000000000000000000D4
:105CD00000000000000000000000000000000000C4
:105CE00000000000000000000000000000000000B4
:105CF00000000000000000000000000000000000A4
:105D00000000000000000000000000000000000093
:105D10000000000000000000000000000000000083
:105D20000000000000000000000000000000000073
:105D30000000000000000000000000000000000063
:105D40000000000000000000000000000000000053
:105D50000000000000000000000000000000000043
:105D60000000000000000000000000000000000033
:105D70000000000000000000000000000000000023
:105D800000000000000000000000000000127A0087
:040000050800018965
:00000001FF
