Component: ARM Compiler 5.06 update 7 (build 960) Tool: armlink [4d3601]

==============================================================================

Section Cross References

    startup_stm32f302xc.o(STACK) refers (Special) to heapauxi.o(.text) for __use_two_region_memory
    startup_stm32f302xc.o(HEAP) refers (Special) to heapauxi.o(.text) for __use_two_region_memory
    startup_stm32f302xc.o(RESET) refers (Special) to heapauxi.o(.text) for __use_two_region_memory
    startup_stm32f302xc.o(RESET) refers to startup_stm32f302xc.o(STACK) for __initial_sp
    startup_stm32f302xc.o(RESET) refers to startup_stm32f302xc.o(.text) for Reset_Handler
    startup_stm32f302xc.o(RESET) refers to stm32f3xx_it.o(i.TIM2_IRQHandler) for TIM2_IRQHandler
    startup_stm32f302xc.o(RESET) refers to stm32f3xx_it.o(i.USART2_IRQHandler) for USART2_IRQHandler
    startup_stm32f302xc.o(.text) refers (Special) to heapauxi.o(.text) for __use_two_region_memory
    startup_stm32f302xc.o(.text) refers to system_stm32f3xx.o(i.SystemInit) for SystemInit
    startup_stm32f302xc.o(.text) refers to __main.o(!!!main) for __main
    startup_stm32f302xc.o(.text) refers to startup_stm32f302xc.o(HEAP) for Heap_Mem
    startup_stm32f302xc.o(.text) refers to startup_stm32f302xc.o(STACK) for Stack_Mem
    main.o(i.Data_Init) refers to f2d.o(x$fpl$f2d) for __aeabi_f2d
    main.o(i.Data_Init) refers to dmul_clz.o(x$fpl$dmul) for __aeabi_dmul
    main.o(i.Data_Init) refers to d2f_clz.o(x$fpl$d2f) for __aeabi_d2f
    main.o(i.Data_Init) refers to daddsub_clz.o(x$fpl$dadd) for __aeabi_dadd
    main.o(i.Data_Init) refers to daddsub_clz.o(x$fpl$dsub) for __aeabi_dsub
    main.o(i.Data_Init) refers to ddiv_clz.o(x$fpl$ddiv) for __aeabi_ddiv
==============================================================================

Removing Unused input sections from the image.

    Removing main.o(.rev16_text), (4 bytes).
    Removing main.o(.revsh_text), (4 bytes).
    Removing main.o(.rrx_text), (6 bytes).
    Removing main.o(i.Error_Handler), (6 bytes).
    Removing stm32f3xx_it.o(.rev16_text), (4 bytes).
    Removing stm32f3xx_it.o(.revsh_text), (4 bytes).
    Removing stm32f3xx_it.o(.rrx_text), (6 bytes).
    Removing stm32f3xx_it.o(.constdata), (52 bytes).
    Removing stm32f3xx_ll_utils.o(.rev16_text), (4 bytes).
    Removing stm32f3xx_ll_utils.o(.revsh_text), (4 bytes).
    Removing stm32f3xx_ll_utils.o(.rrx_text), (6 bytes).
    Removing stm32f3xx_ll_utils.o(i.LL_PLL_ConfigSystemClock_HSE), (148 bytes).
    Removing stm32f3xx_ll_utils.o(i.LL_PLL_ConfigSystemClock_HSI), (104 bytes).
    Removing stm32f3xx_ll_utils.o(i.LL_RCC_HSE_IsReady), (16 bytes).
    Removing stm32f3xx_ll_utils.o(i.LL_RCC_HSI_IsReady), (16 bytes).
    Removing stm32f3xx_ll_utils.o(i.LL_RCC_PLL_ConfigDomain_SYS), (36 bytes).
    Removing stm32f3xx_ll_utils.o(i.LL_RCC_PLL_IsReady), (16 bytes).
    Removing stm32f3xx_ll_utils.o(i.LL_SetFlashLatency), (108 bytes).
==============================================================================

Image Symbol Table

    Local Symbols

    Symbol Name                              Value     Ov Type        Size  Object(Section)

    ../Core/Src/main.c                       0x00000000   Number         0  main.o ABSOLUTE
    ../Core/Src/stm32f3xx_it.c               0x00000000   Number         0  stm32f3xx_it.o ABSOLUTE
    ../Core/Src/system_stm32f3xx.c           0x00000000   Number         0  system_stm32f3xx.o ABSOLUTE
    ../Drivers/STM32F3xx_HAL_Driver/Src/stm32f3xx_ll_adc.c 0x00000000   Number         0  stm32f3xx_ll_adc.o ABSOLUTE
    ../Drivers/STM32F3xx_HAL_Driver/Src/stm32f3xx_ll_comp.c 0x00000000   Number         0  stm32f3xx_ll_comp.o ABSOLUTE
    ../Drivers/STM32F3xx_HAL_Driver/Src/stm32f3xx_ll_dac.c 0x00000000   Number         0  stm32f3xx_ll_dac.o ABSOLUTE
    ../Drivers/STM32F3xx_HAL_Driver/Src/stm32f3xx_ll_dma.c 0x00000000   Number         0  stm32f3xx_ll_dma.o ABSOLUTE
    ../Drivers/STM32F3xx_HAL_Driver/Src/stm32f3xx_ll_exti.c 0x00000000   Number         0  stm32f3xx_ll_exti.o ABSOLUTE
    ../Drivers/STM32F3xx_HAL_Driver/Src/stm32f3xx_ll_gpio.c 0x00000000   Number         0  stm32f3xx_ll_gpio.o ABSOLUTE
    ../Drivers/STM32F3xx_HAL_Driver/Src/stm32f3xx_ll_rcc.c 0x00000000   Number         0  stm32f3xx_ll_rcc.o ABSOLUTE
    ../Drivers/STM32F3xx_HAL_Driver/Src/stm32f3xx_ll_tim.c 0x00000000   Number         0  stm32f3xx_ll_tim.o ABSOLUTE
    ../Drivers/STM32F3xx_HAL_Driver/Src/stm32f3xx_ll_usart.c 0x00000000   Number         0  stm32f3xx_ll_usart.o ABSOLUTE
    ../Drivers/STM32F3xx_HAL_Driver/Src/stm32f3xx_ll_utils.c 0x00000000   Number         0  stm32f3xx_ll_utils.o ABSOLUTE
    ../clib/angel/boardlib.s                 0x00000000   Number         0  boardinit3.o ABSOLUTE
    ../clib/angel/boardlib.s                 0x00000000   Number         0  boardinit1.o ABSOLUTE
    ../clib/angel/boardlib.s                 0x00000000   Number         0  boardinit2.o ABSOLUTE
    ../clib/angel/boardlib.s                 0x00000000   Number         0  boardshut.o ABSOLUTE
    ../clib/angel/handlers.s                 0x00000000   Number         0  __scatter_zi.o ABSOLUTE
    ../clib/angel/handlers.s                 0x00000000   Number         0  __scatter_copy.o ABSOLUTE
    ../clib/angel/kernel.s                   0x00000000   Number         0  rtexit2.o ABSOLUTE
    ../clib/angel/kernel.s                   0x00000000   Number         0  __rtentry.o ABSOLUTE
    ../clib/angel/kernel.s                   0x00000000   Number         0  rtexit.o ABSOLUTE
    ../clib/angel/kernel.s                   0x00000000   Number         0  __rtentry2.o ABSOLUTE
    ../clib/angel/kernel.s                   0x00000000   Number         0  __rtentry4.o ABSOLUTE
    ../clib/angel/rt.s                       0x00000000   Number         0  rt_errno_addr.o ABSOLUTE
    ../clib/angel/rt.s                       0x00000000   Number         0  rt_raise.o ABSOLUTE
    ../clib/angel/rt.s                       0x00000000   Number         0  rt_errno_addr_intlibspace.o ABSOLUTE
    ../clib/angel/scatter.s                  0x00000000   Number         0  __scatter.o ABSOLUTE
    ../clib/angel/startup.s                  0x00000000   Number         0  __main.o ABSOLUTE
    ../clib/angel/sys.s                      0x00000000   Number         0  libspace.o ABSOLUTE
    ../clib/angel/sys.s                      0x00000000   Number         0  sys_stackheap_outer.o ABSOLUTE
    ../clib/angel/sys.s                      0x00000000   Number         0  indicate_semi.o ABSOLUTE
    ../clib/angel/sys.s                      0x00000000   Number         0  use_no_semi.o ABSOLUTE
    ../clib/angel/sysapp.c                   0x00000000   Number         0  sys_exit.o ABSOLUTE
    ../clib/angel/sysapp.c                   0x00000000   Number         0  sys_command.o ABSOLUTE
    ../clib/angel/sysapp.c                   0x00000000   Number         0  sys_wrch.o ABSOLUTE
    ../clib/armsys.c                         0x00000000   Number         0  argv_veneer.o ABSOLUTE
    ../clib/armsys.c                         0x00000000   Number         0  no_argv.o ABSOLUTE
    ../clib/armsys.c                         0x00000000   Number         0  _get_argv_nomalloc.o ABSOLUTE
    ../clib/armsys.c                         0x00000000   Number         0  argv_veneer.o ABSOLUTE
    ../clib/fenv.c                           0x00000000   Number         0  _rserrno.o ABSOLUTE
    ../clib/fenv.c                           0x00000000   Number         0  _fptrap.o ABSOLUTE
    ../clib/heapalloc.c                      0x00000000   Number         0  hrguard.o ABSOLUTE
    ../clib/heapaux.c                        0x00000000   Number         0  heapauxi.o ABSOLUTE
    ../clib/libinit.s                        0x00000000   Number         0  libshutdown2.o ABSOLUTE
    ../clib/libinit.s                        0x00000000   Number         0  libinit.o ABSOLUTE
    ../clib/libinit.s                        0x00000000   Number         0  libshutdown.o ABSOLUTE
    ../clib/libinit.s                        0x00000000   Number         0  libinit2.o ABSOLUTE
    ../clib/memcpset.s                       0x00000000   Number         0  rt_memclr_w.o ABSOLUTE
    ../clib/signal.c                         0x00000000   Number         0  defsig_general.o ABSOLUTE
    ../clib/signal.c                         0x00000000   Number         0  defsig_rtred_inner.o ABSOLUTE
    ../clib/signal.c                         0x00000000   Number         0  defsig_abrt_inner.o ABSOLUTE
    ../clib/signal.c                         0x00000000   Number         0  defsig_fpe_inner.o ABSOLUTE
    ../clib/signal.c                         0x00000000   Number         0  defsig_exit.o ABSOLUTE
    ../clib/signal.c                         0x00000000   Number         0  defsig_stak_inner.o ABSOLUTE
    ../clib/signal.c                         0x00000000   Number         0  defsig_fpe_formal.o ABSOLUTE
    ../clib/signal.c                         0x00000000   Number         0  defsig_fpe_outer.o ABSOLUTE
    ../clib/signal.c                         0x00000000   Number         0  __raise.o ABSOLUTE
    ../clib/signal.c                         0x00000000   Number         0  defsig_rtmem_outer.o ABSOLUTE
    ../clib/signal.c                         0x00000000   Number         0  defsig_other.o ABSOLUTE
    ../clib/signal.c                         0x00000000   Number         0  defsig_segv_inner.o ABSOLUTE
    ../clib/signal.c                         0x00000000   Number         0  defsig_cppl_inner.o ABSOLUTE
    ../clib/signal.c                         0x00000000   Number         0  defsig_pvfn_inner.o ABSOLUTE
    ../clib/signal.c                         0x00000000   Number         0  defsig_rtmem_formal.o ABSOLUTE
    ../clib/signal.c                         0x00000000   Number         0  defsig_rtmem_inner.o ABSOLUTE
    ../clib/signal.s                         0x00000000   Number         0  defsig.o ABSOLUTE
    ../clib/stdlib.c                         0x00000000   Number         0  exit.o ABSOLUTE
    ../fplib/d2f.s                           0x00000000   Number         0  d2f_clz.o ABSOLUTE
    ../fplib/daddsub.s                       0x00000000   Number         0  daddsub_clz.o ABSOLUTE
    ../fplib/dcmpi.s                         0x00000000   Number         0  dcmpi.o ABSOLUTE
    ../fplib/ddiv.s                          0x00000000   Number         0  ddiv_clz.o ABSOLUTE
    ../fplib/dflt.s                          0x00000000   Number         0  dflt_clz.o ABSOLUTE
    ../fplib/dleqf.s                         0x00000000   Number         0  dleqf.o ABSOLUTE
    ../fplib/dmul.s                          0x00000000   Number         0  dmul_clz.o ABSOLUTE
    ../fplib/dnaninf.s                       0x00000000   Number         0  dnaninf.o ABSOLUTE
    ../fplib/drenorm.s                       0x00000000   Number         0  drenorm_clz.o ABSOLUTE
    ../fplib/dretinf.s                       0x00000000   Number         0  dretinf.o ABSOLUTE
    ../fplib/drleqf.s                        0x00000000   Number         0  drleqf.o ABSOLUTE
    ../fplib/dunder.s                        0x00000000   Number         0  dunder_clz.o ABSOLUTE
    ../fplib/except.s                        0x00000000   Number         0  except.o ABSOLUTE
    ../fplib/f2d.s                           0x00000000   Number         0  f2d.o ABSOLUTE
    ../fplib/fnaninf.s                       0x00000000   Number         0  fnaninf.o ABSOLUTE
    ../fplib/fpinit.s                        0x00000000   Number         0  fpinit.o ABSOLUTE
    ../fplib/fretinf.s                       0x00000000   Number         0  fretinf.o ABSOLUTE
    ../fplib/funder.s                        0x00000000   Number         0  funder_clz.o ABSOLUTE
    ../fplib/retnan.s                        0x00000000   Number         0  retnan.o ABSOLUTE
    ../fplib/trapv.s                         0x00000000   Number         0  trapv.o ABSOLUTE
    ../fplib/usenofp.s                       0x00000000   Number         0  usenofp.o ABSOLUTE
    ../mathlib/sqrtf.c                       0x00000000   Number         0  sqrtf_full.o ABSOLUTE
    ../mathlib/sqrtf.c                       0x00000000   Number         0  sqrtf_full_x.o ABSOLUTE
    ..\..\Source\CommonTables\arm_common_tables.c 0x00000000   Number         0  arm_common_tables.o ABSOLUTE
    ..\..\Source\FastMathFunctions\arm_cos_f32.c 0x00000000   Number         0  arm_cos_f32.o ABSOLUTE
    ..\..\Source\FastMathFunctions\arm_sin_f32.c 0x00000000   Number         0  arm_sin_f32.o ABSOLUTE
    ..\Core\Src\main.c                       0x00000000   Number         0  main.o ABSOLUTE
    ..\Core\Src\stm32f3xx_it.c               0x00000000   Number         0  stm32f3xx_it.o ABSOLUTE
    ..\Core\Src\system_stm32f3xx.c           0x00000000   Number         0  system_stm32f3xx.o ABSOLUTE
    ..\Drivers\STM32F3xx_HAL_Driver\Src\stm32f3xx_ll_adc.c 0x00000000   Number         0  stm32f3xx_ll_adc.o ABSOLUTE
    ..\Drivers\STM32F3xx_HAL_Driver\Src\stm32f3xx_ll_comp.c 0x00000000   Number         0  stm32f3xx_ll_comp.o ABSOLUTE
    ..\Drivers\STM32F3xx_HAL_Driver\Src\stm32f3xx_ll_dac.c 0x00000000   Number         0  stm32f3xx_ll_dac.o ABSOLUTE
    ..\Drivers\STM32F3xx_HAL_Driver\Src\stm32f3xx_ll_dma.c 0x00000000   Number         0  stm32f3xx_ll_dma.o ABSOLUTE
    ..\Drivers\STM32F3xx_HAL_Driver\Src\stm32f3xx_ll_exti.c 0x00000000   Number         0  stm32f3xx_ll_exti.o ABSOLUTE
    ..\Drivers\STM32F3xx_HAL_Driver\Src\stm32f3xx_ll_gpio.c 0x00000000   Number         0  stm32f3xx_ll_gpio.o ABSOLUTE
    ..\Drivers\STM32F3xx_HAL_Driver\Src\stm32f3xx_ll_rcc.c 0x00000000   Number         0  stm32f3xx_ll_rcc.o ABSOLUTE
    ..\Drivers\STM32F3xx_HAL_Driver\Src\stm32f3xx_ll_tim.c 0x00000000   Number         0  stm32f3xx_ll_tim.o ABSOLUTE
    ..\Drivers\STM32F3xx_HAL_Driver\Src\stm32f3xx_ll_usart.c 0x00000000   Number         0  stm32f3xx_ll_usart.o ABSOLUTE
    ..\Drivers\STM32F3xx_HAL_Driver\Src\stm32f3xx_ll_utils.c 0x00000000   Number         0  stm32f3xx_ll_utils.o ABSOLUTE
    ..\\..\\Source\\CommonTables\\arm_common_tables.c 0x00000000   Number         0  arm_common_tables.o ABSOLUTE
    ..\\..\\Source\\FastMathFunctions\\arm_cos_f32.c 0x00000000   Number         0  arm_cos_f32.o ABSOLUTE
    ..\\..\\Source\\FastMathFunctions\\arm_sin_f32.c 0x00000000   Number         0  arm_sin_f32.o ABSOLUTE
    dc.s                                     0x00000000   Number         0  dc.o ABSOLUTE
    startup_stm32f302xc.s                    0x00000000   Number         0  startup_stm32f302xc.o ABSOLUTE
    RESET                                    0x08000000   Section      392  startup_stm32f302xc.o(RESET)
    !!!main                                  0x08000188   Section        8  __main.o(!!!main)
    !!!scatter                               0x08000190   Section       52  __scatter.o(!!!scatter)
    !!handler_copy                           0x080001c4   Section       26  __scatter_copy.o(!!handler_copy)
    !!handler_zi                             0x080001e0   Section       28  __scatter_zi.o(!!handler_zi)
    .ARM.Collect$$libinit$$00000000          0x080001fc   Section        2  libinit.o(.ARM.Collect$$libinit$$00000000)
    .ARM.Collect$$libinit$$00000001          0x080001fe   Section        4  libinit2.o(.ARM.Collect$$libinit$$00000001)
    .ARM.Collect$$libinit$$00000004          0x08000202   Section        0  libinit2.o(.ARM.Collect$$libinit$$00000004)
    .ARM.Collect$$libinit$$0000000A          0x08000202   Section        0  libinit2.o(.ARM.Collect$$libinit$$0000000A)
    .ARM.Collect$$libinit$$0000000C          0x08000202   Section        0  libinit2.o(.ARM.Collect$$libinit$$0000000C)
    .ARM.Collect$$libinit$$0000000E          0x08000202   Section        0  libinit2.o(.ARM.Collect$$libinit$$0000000E)
    .ARM.Collect$$libinit$$00000011          0x08000202   Section        0  libinit2.o(.ARM.Collect$$libinit$$00000011)
    .ARM.Collect$$libinit$$00000013          0x08000202   Section        0  libinit2.o(.ARM.Collect$$libinit$$00000013)
    .ARM.Collect$$libinit$$00000015          0x08000202   Section        0  libinit2.o(.ARM.Collect$$libinit$$00000015)
    .ARM.Collect$$libinit$$00000017          0x08000202   Section        0  libinit2.o(.ARM.Collect$$libinit$$00000017)
    .ARM.Collect$$libinit$$00000019          0x08000202   Section        0  libinit2.o(.ARM.Collect$$libinit$$00000019)
    .ARM.Collect$$libinit$$0000001B          0x08000202   Section        0  libinit2.o(.ARM.Collect$$libinit$$0000001B)
    .ARM.Collect$$libinit$$0000001D          0x08000202   Section        0  libinit2.o(.ARM.Collect$$libinit$$0000001D)
    .ARM.Collect$$libinit$$0000001F          0x08000202   Section        0  libinit2.o(.ARM.Collect$$libinit$$0000001F)
    .ARM.Collect$$libinit$$00000021          0x08000202   Section        0  libinit2.o(.ARM.Collect$$libinit$$00000021)
    .ARM.Collect$$libinit$$00000023          0x08000202   Section        0  libinit2.o(.ARM.Collect$$libinit$$00000023)
    .ARM.Collect$$libinit$$00000025          0x08000202   Section        0  libinit2.o(.ARM.Collect$$libinit$$00000025)
    .ARM.Collect$$libinit$$0000002C          0x08000202   Section        0  libinit2.o(.ARM.Collect$$libinit$$0000002C)
    .ARM.Collect$$libinit$$0000002E          0x08000202   Section        0  libinit2.o(.ARM.Collect$$libinit$$0000002E)
    .ARM.Collect$$libinit$$00000030          0x08000202   Section        0  libinit2.o(.ARM.Collect$$libinit$$00000030)
    .ARM.Collect$$libinit$$00000032          0x08000202   Section        0  libinit2.o(.ARM.Collect$$libinit$$00000032)
    .ARM.Collect$$libinit$$00000033          0x08000202   Section        2  libinit2.o(.ARM.Collect$$libinit$$00000033)
    .ARM.Collect$$libshutdown$$00000000      0x08000204   Section        2  libshutdown.o(.ARM.Collect$$libshutdown$$00000000)
    .ARM.Collect$$libshutdown$$00000002      0x08000206   Section        0  libshutdown2.o(.ARM.Collect$$libshutdown$$00000002)
    .ARM.Collect$$libshutdown$$00000004      0x08000206   Section        0  libshutdown2.o(.ARM.Collect$$libshutdown$$00000004)
    .ARM.Collect$$libshutdown$$00000006      0x08000206   Section        0  libshutdown2.o(.ARM.Collect$$libshutdown$$00000006)
    .ARM.Collect$$libshutdown$$00000009      0x08000206   Section        0  libshutdown2.o(.ARM.Collect$$libshutdown$$00000009)
    .ARM.Collect$$libshutdown$$0000000C      0x08000206   Section        0  libshutdown2.o(.ARM.Collect$$libshutdown$$0000000C)
    .ARM.Collect$$libshutdown$$0000000E      0x08000206   Section        0  libshutdown2.o(.ARM.Collect$$libshutdown$$0000000E)
    .ARM.Collect$$libshutdown$$00000011      0x08000206   Section        0  libshutdown2.o(.ARM.Collect$$libshutdown$$00000011)
    .ARM.Collect$$libshutdown$$00000012      0x08000206   Section        2  libshutdown2.o(.ARM.Collect$$libshutdown$$00000012)
    .ARM.Collect$$rtentry$$00000000          0x08000208   Section        0  __rtentry.o(.ARM.Collect$$rtentry$$00000000)
    .ARM.Collect$$rtentry$$00000002          0x08000208   Section        0  __rtentry2.o(.ARM.Collect$$rtentry$$00000002)
    .ARM.Collect$$rtentry$$00000004          0x08000208   Section        6  __rtentry4.o(.ARM.Collect$$rtentry$$00000004)
    .ARM.Collect$$rtentry$$00000009          0x0800020e   Section        0  __rtentry2.o(.ARM.Collect$$rtentry$$00000009)
    .ARM.Collect$$rtentry$$0000000A          0x0800020e   Section        4  __rtentry2.o(.ARM.Collect$$rtentry$$0000000A)
    .ARM.Collect$$rtentry$$0000000C          0x08000212   Section        0  __rtentry2.o(.ARM.Collect$$rtentry$$0000000C)
    .ARM.Collect$$rtentry$$0000000D          0x08000212   Section        8  __rtentry2.o(.ARM.Collect$$rtentry$$0000000D)
    .ARM.Collect$$rtexit$$00000000           0x0800021a   Section        2  rtexit.o(.ARM.Collect$$rtexit$$00000000)
    .ARM.Collect$$rtexit$$00000002           0x0800021c   Section        0  rtexit2.o(.ARM.Collect$$rtexit$$00000002)
    .ARM.Collect$$rtexit$$00000003           0x0800021c   Section        4  rtexit2.o(.ARM.Collect$$rtexit$$00000003)
    .ARM.Collect$$rtexit$$00000004           0x08000220   Section        6  rtexit2.o(.ARM.Collect$$rtexit$$00000004)
    .text                                    0x08000228   Section       64  startup_stm32f302xc.o(.text)
    $v0                                      0x08000228   Number         0  startup_stm32f302xc.o(.text)
    .text                                    0x08000268   Section        0  arm_cos_f32.o(.text)
    .text                                    0x080002e0   Section        0  arm_sin_f32.o(.text)
    .text                                    0x08000374   Section       78  rt_memclr_w.o(.text)
    .text                                    0x080003c2   Section        0  heapauxi.o(.text)
    .text                                    0x080003c8   Section        0  _rserrno.o(.text)
    .text                                    0x080003e0   Section        8  rt_errno_addr_intlibspace.o(.text)
    .text                                    0x080003e8   Section        0  _fptrap.o(.text)
    .text                                    0x08000418   Section        8  libspace.o(.text)
    .text                                    0x08000420   Section       74  sys_stackheap_outer.o(.text)
    .text                                    0x0800046a   Section        0  exit.o(.text)
    .text                                    0x0800047c   Section        0  defsig_fpe_outer.o(.text)
    .text                                    0x0800048a   Section        0  defsig_exit.o(.text)
    .text                                    0x08000494   Section        0  defsig_fpe_inner.o(.text)
    .text                                    0x08000540   Section        0  sys_exit.o(.text)
    .text                                    0x0800054c   Section        0  defsig_general.o(.text)
    .text                                    0x0800057e   Section        0  sys_wrch.o(.text)
    .text                                    0x0800058c   Section        2  use_no_semi.o(.text)
    .text                                    0x0800058e   Section        0  indicate_semi.o(.text)
    i.Data_Init                              0x08000590   Section        0  main.o(i.Data_Init)
    Data_Init                                0x08000591   Thumb Code  3492  main.o(i.Data_Init)
    i.LL_ADC_CommonInit                      0x080013a4   Section        0  stm32f3xx_ll_adc.o(i.LL_ADC_CommonInit)
    i.LL_ADC_Init                            0x08001404   Section        0  stm32f3xx_ll_adc.o(i.LL_ADC_Init)
    i.LL_ADC_IsEnabled                       0x08001432   Section        0  stm32f3xx_ll_adc.o(i.LL_ADC_IsEnabled)
    LL_ADC_IsEnabled                         0x08001433   Thumb Code    10  stm32f3xx_ll_adc.o(i.LL_ADC_IsEnabled)
    i.LL_ADC_REG_Init                        0x0800143c   Section        0  stm32f3xx_ll_adc.o(i.LL_ADC_REG_Init)
    i.LL_ADC_REG_SetSequencerRanks           0x080014a8   Section        0  main.o(i.LL_ADC_REG_SetSequencerRanks)
    LL_ADC_REG_SetSequencerRanks             0x080014a9   Thumb Code    56  main.o(i.LL_ADC_REG_SetSequencerRanks)
    i.LL_ADC_SetChannelSamplingTime          0x080014e0   Section        0  main.o(i.LL_ADC_SetChannelSamplingTime)
    LL_ADC_SetChannelSamplingTime            0x080014e1   Thumb Code    82  main.o(i.LL_ADC_SetChannelSamplingTime)
    i.LL_ADC_SetChannelSingleDiff            0x08001534   Section        0  main.o(i.LL_ADC_SetChannelSingleDiff)
    LL_ADC_SetChannelSingleDiff              0x08001535   Thumb Code    34  main.o(i.LL_ADC_SetChannelSingleDiff)
    i.LL_AHB1_GRP1_EnableClock               0x0800155c   Section        0  main.o(i.LL_AHB1_GRP1_EnableClock)
    LL_AHB1_GRP1_EnableClock                 0x0800155d   Thumb Code    24  main.o(i.LL_AHB1_GRP1_EnableClock)
    i.LL_APB1_GRP1_EnableClock               0x08001578   Section        0  main.o(i.LL_APB1_GRP1_EnableClock)
    LL_APB1_GRP1_EnableClock                 0x08001579   Thumb Code    24  main.o(i.LL_APB1_GRP1_EnableClock)
    i.LL_APB2_GRP1_EnableClock               0x08001594   Section        0  main.o(i.LL_APB2_GRP1_EnableClock)
    LL_APB2_GRP1_EnableClock                 0x08001595   Thumb Code    24  main.o(i.LL_APB2_GRP1_EnableClock)
    i.LL_COMP_Init                           0x080015b0   Section        0  stm32f3xx_ll_comp.o(i.LL_COMP_Init)
    i.LL_DAC_Init                            0x080015ec   Section        0  stm32f3xx_ll_dac.o(i.LL_DAC_Init)
    i.LL_DMA_ConfigAddresses                 0x0800166c   Section        0  main.o(i.LL_DMA_ConfigAddresses)
    LL_DMA_ConfigAddresses                   0x0800166d   Thumb Code    48  main.o(i.LL_DMA_ConfigAddresses)
    i.LL_DMA_EnableChannel                   0x080016a0   Section        0  main.o(i.LL_DMA_EnableChannel)
    LL_DMA_EnableChannel                     0x080016a1   Thumb Code    24  main.o(i.LL_DMA_EnableChannel)
    i.LL_DMA_SetChannelPriorityLevel         0x080016bc   Section        0  main.o(i.LL_DMA_SetChannelPriorityLevel)
    LL_DMA_SetChannelPriorityLevel           0x080016bd   Thumb Code    26  main.o(i.LL_DMA_SetChannelPriorityLevel)
    i.LL_DMA_SetDataLength                   0x080016dc   Section        0  main.o(i.LL_DMA_SetDataLength)
    LL_DMA_SetDataLength                     0x080016dd   Thumb Code    30  main.o(i.LL_DMA_SetDataLength)
    i.LL_DMA_SetMemoryIncMode                0x08001700   Section        0  main.o(i.LL_DMA_SetMemoryIncMode)
    LL_DMA_SetMemoryIncMode                  0x08001701   Thumb Code    26  main.o(i.LL_DMA_SetMemoryIncMode)
    i.LL_DMA_SetMemorySize                   0x08001720   Section        0  main.o(i.LL_DMA_SetMemorySize)
    LL_DMA_SetMemorySize                     0x08001721   Thumb Code    26  main.o(i.LL_DMA_SetMemorySize)
    i.LL_DMA_SetMode                         0x08001740   Section        0  main.o(i.LL_DMA_SetMode)
    LL_DMA_SetMode                           0x08001741   Thumb Code    26  main.o(i.LL_DMA_SetMode)
    i.LL_DMA_SetPeriphIncMode                0x08001760   Section        0  main.o(i.LL_DMA_SetPeriphIncMode)
    LL_DMA_SetPeriphIncMode                  0x08001761   Thumb Code    26  main.o(i.LL_DMA_SetPeriphIncMode)
    i.LL_DMA_SetPeriphSize                   0x08001780   Section        0  main.o(i.LL_DMA_SetPeriphSize)
    LL_DMA_SetPeriphSize                     0x08001781   Thumb Code    26  main.o(i.LL_DMA_SetPeriphSize)
    i.LL_GPIO_Init                           0x080017a0   Section        0  stm32f3xx_ll_gpio.o(i.LL_GPIO_Init)
    i.LL_GPIO_TogglePin                      0x080018d6   Section        0  stm32f3xx_it.o(i.LL_GPIO_TogglePin)
    LL_GPIO_TogglePin                        0x080018d7   Thumb Code    20  stm32f3xx_it.o(i.LL_GPIO_TogglePin)
    i.LL_Init1msTick                         0x080018ea   Section        0  stm32f3xx_ll_utils.o(i.LL_Init1msTick)
    i.LL_RCC_GetUARTClockFreq                0x08001908   Section        0  stm32f3xx_ll_rcc.o(i.LL_RCC_GetUARTClockFreq)
    i.LL_RCC_GetUARTClockSource              0x080019dc   Section        0  stm32f3xx_ll_rcc.o(i.LL_RCC_GetUARTClockSource)
    LL_RCC_GetUARTClockSource                0x080019dd   Thumb Code    14  stm32f3xx_ll_rcc.o(i.LL_RCC_GetUARTClockSource)
    i.LL_RCC_GetUSARTClockFreq               0x080019f0   Section        0  stm32f3xx_ll_rcc.o(i.LL_RCC_GetUSARTClockFreq)
    i.LL_RCC_GetUSARTClockSource             0x08001b0c   Section        0  stm32f3xx_ll_rcc.o(i.LL_RCC_GetUSARTClockSource)
    LL_RCC_GetUSARTClockSource               0x08001b0d   Thumb Code    18  stm32f3xx_ll_rcc.o(i.LL_RCC_GetUSARTClockSource)
    i.LL_RCC_HSI_IsReady                     0x08001b24   Section        0  stm32f3xx_ll_rcc.o(i.LL_RCC_HSI_IsReady)
    LL_RCC_HSI_IsReady                       0x08001b25   Thumb Code    10  stm32f3xx_ll_rcc.o(i.LL_RCC_HSI_IsReady)
    i.LL_RCC_LSE_IsReady                     0x08001b34   Section        0  stm32f3xx_ll_rcc.o(i.LL_RCC_LSE_IsReady)
    LL_RCC_LSE_IsReady                       0x08001b35   Thumb Code    10  stm32f3xx_ll_rcc.o(i.LL_RCC_LSE_IsReady)
    i.LL_SetSystemCoreClock                  0x08001b44   Section        0  stm32f3xx_ll_utils.o(i.LL_SetSystemCoreClock)
    i.LL_TIM_BDTR_Init                       0x08001b50   Section        0  stm32f3xx_ll_tim.o(i.LL_TIM_BDTR_Init)
    i.LL_TIM_EnableARRPreload                0x08001bdc   Section        0  main.o(i.LL_TIM_EnableARRPreload)
    LL_TIM_EnableARRPreload                  0x08001bdd   Thumb Code    10  main.o(i.LL_TIM_EnableARRPreload)
    i.LL_TIM_EnableCounter                   0x08001be6   Section        0  main.o(i.LL_TIM_EnableCounter)
    LL_TIM_EnableCounter                     0x08001be7   Thumb Code    10  main.o(i.LL_TIM_EnableCounter)
    i.LL_TIM_EnableIT_UPDATE                 0x08001bf0   Section        0  main.o(i.LL_TIM_EnableIT_UPDATE)
    LL_TIM_EnableIT_UPDATE                   0x08001bf1   Thumb Code    10  main.o(i.LL_TIM_EnableIT_UPDATE)
    i.LL_TIM_Init                            0x08001bfc   Section        0  stm32f3xx_ll_tim.o(i.LL_TIM_Init)
    i.LL_TIM_OC_DisableFast                  0x08001cb0   Section        0  main.o(i.LL_TIM_OC_DisableFast)
    LL_TIM_OC_DisableFast                    0x08001cb1   Thumb Code   106  main.o(i.LL_TIM_OC_DisableFast)
    i.LL_TIM_OC_EnablePreload                0x08001d24   Section        0  main.o(i.LL_TIM_OC_EnablePreload)
    LL_TIM_OC_EnablePreload                  0x08001d25   Thumb Code   106  main.o(i.LL_TIM_OC_EnablePreload)
    i.LL_TIM_OC_Init                         0x08001d98   Section        0  stm32f3xx_ll_tim.o(i.LL_TIM_OC_Init)
    i.LL_TIM_OC_SetCompareCH2                0x08001e1c   Section        0  stm32f3xx_it.o(i.LL_TIM_OC_SetCompareCH2)
    LL_TIM_OC_SetCompareCH2                  0x08001e1d   Thumb Code     4  stm32f3xx_it.o(i.LL_TIM_OC_SetCompareCH2)
    i.LL_TIM_OC_SetCompareCH2                0x08001e20   Section        0  stm32f3xx_ll_tim.o(i.LL_TIM_OC_SetCompareCH2)
    LL_TIM_OC_SetCompareCH2                  0x08001e21   Thumb Code     4  stm32f3xx_ll_tim.o(i.LL_TIM_OC_SetCompareCH2)
    i.LL_TIM_OC_SetCompareCH3                0x08001e24   Section        0  stm32f3xx_it.o(i.LL_TIM_OC_SetCompareCH3)
    LL_TIM_OC_SetCompareCH3                  0x08001e25   Thumb Code     4  stm32f3xx_it.o(i.LL_TIM_OC_SetCompareCH3)
    i.LL_TIM_SetClockSource                  0x08001e28   Section        0  main.o(i.LL_TIM_SetClockSource)
    LL_TIM_SetClockSource                    0x08001e29   Thumb Code    12  main.o(i.LL_TIM_SetClockSource)
    i.LL_USART_Init                          0x08001e38   Section        0  stm32f3xx_ll_usart.o(i.LL_USART_Init)
    i.LL_USART_IsEnabled                     0x08001f40   Section        0  stm32f3xx_ll_usart.o(i.LL_USART_IsEnabled)
    LL_USART_IsEnabled                       0x08001f41   Thumb Code    10  stm32f3xx_ll_usart.o(i.LL_USART_IsEnabled)
    i.MX_ADC1_Init                           0x08001f4c   Section        0  main.o(i.MX_ADC1_Init)
    MX_ADC1_Init                             0x08001f4d   Thumb Code   654  main.o(i.MX_ADC1_Init)
    i.MX_COMP2_Init                          0x08002214   Section        0  main.o(i.MX_COMP2_Init)
    MX_COMP2_Init                            0x08002215   Thumb Code   108  main.o(i.MX_COMP2_Init)
    i.MX_DAC_Init                            0x08002284   Section        0  main.o(i.MX_DAC_Init)
    MX_DAC_Init                              0x08002285   Thumb Code   106  main.o(i.MX_DAC_Init)
    i.MX_DMA_Init                            0x080022f8   Section        0  main.o(i.MX_DMA_Init)
    MX_DMA_Init                              0x080022f9   Thumb Code   328  main.o(i.MX_DMA_Init)
    i.MX_GPIO_Init                           0x08002458   Section        0  main.o(i.MX_GPIO_Init)
    MX_GPIO_Init                             0x08002459   Thumb Code   162  main.o(i.MX_GPIO_Init)
    i.MX_TIM1_Init                           0x08002500   Section        0  main.o(i.MX_TIM1_Init)
    MX_TIM1_Init                             0x08002501   Thumb Code   452  main.o(i.MX_TIM1_Init)
    i.MX_TIM2_Init                           0x080026d0   Section        0  main.o(i.MX_TIM2_Init)
    MX_TIM2_Init                             0x080026d1   Thumb Code   150  main.o(i.MX_TIM2_Init)
    i.MX_USART2_UART_Init                    0x08002768   Section        0  main.o(i.MX_USART2_UART_Init)
    MX_USART2_UART_Init                      0x08002769   Thumb Code   190  main.o(i.MX_USART2_UART_Init)
    i.NVIC_EncodePriority                    0x0800282c   Section        0  main.o(i.NVIC_EncodePriority)
    NVIC_EncodePriority                      0x0800282d   Thumb Code    64  main.o(i.NVIC_EncodePriority)
    i.OC1Config                              0x0800286c   Section        0  stm32f3xx_ll_tim.o(i.OC1Config)
    OC1Config                                0x0800286d   Thumb Code   134  stm32f3xx_ll_tim.o(i.OC1Config)
    i.OC2Config                              0x08002908   Section        0  stm32f3xx_ll_tim.o(i.OC2Config)
    OC2Config                                0x08002909   Thumb Code   144  stm32f3xx_ll_tim.o(i.OC2Config)
    i.OC3Config                              0x080029ac   Section        0  stm32f3xx_ll_tim.o(i.OC3Config)
    OC3Config                                0x080029ad   Thumb Code   134  stm32f3xx_ll_tim.o(i.OC3Config)
    i.OC4Config                              0x08002a48   Section        0  stm32f3xx_ll_tim.o(i.OC4Config)
    OC4Config                                0x08002a49   Thumb Code   102  stm32f3xx_ll_tim.o(i.OC4Config)
    i.OC5Config                              0x08002ac4   Section        0  stm32f3xx_ll_tim.o(i.OC5Config)
    OC5Config                                0x08002ac5   Thumb Code   102  stm32f3xx_ll_tim.o(i.OC5Config)
    i.OC6Config                              0x08002b40   Section        0  stm32f3xx_ll_tim.o(i.OC6Config)
    OC6Config                                0x08002b41   Thumb Code    98  stm32f3xx_ll_tim.o(i.OC6Config)
    i.RCC_GetHCLKClockFreq                   0x08002bb8   Section        0  stm32f3xx_ll_rcc.o(i.RCC_GetHCLKClockFreq)
    i.RCC_GetPCLK1ClockFreq                  0x08002bd8   Section        0  stm32f3xx_ll_rcc.o(i.RCC_GetPCLK1ClockFreq)
    i.RCC_GetPCLK2ClockFreq                  0x08002bfc   Section        0  stm32f3xx_ll_rcc.o(i.RCC_GetPCLK2ClockFreq)
    i.RCC_GetSystemClockFreq                 0x08002c20   Section        0  stm32f3xx_ll_rcc.o(i.RCC_GetSystemClockFreq)
    i.RCC_PLL_GetFreqDomain_SYS              0x08002c5c   Section        0  stm32f3xx_ll_rcc.o(i.RCC_PLL_GetFreqDomain_SYS)
    i.SystemClock_Config                     0x08002cc4   Section        0  main.o(i.SystemClock_Config)
    i.SystemInit                             0x08002e10   Section        0  system_stm32f3xx.o(i.SystemInit)
    i.TIM2_IRQHandler                        0x08002e24   Section        0  stm32f3xx_it.o(i.TIM2_IRQHandler)
    i.USART2_IRQHandler                      0x08003c5c   Section        0  stm32f3xx_it.o(i.USART2_IRQHandler)
    i.__NVIC_EnableIRQ                       0x08003c6c   Section        0  main.o(i.__NVIC_EnableIRQ)
    __NVIC_EnableIRQ                         0x08003c6d   Thumb Code    26  main.o(i.__NVIC_EnableIRQ)
    i.__NVIC_GetPriorityGrouping             0x08003c88   Section        0  main.o(i.__NVIC_GetPriorityGrouping)
    __NVIC_GetPriorityGrouping               0x08003c89   Thumb Code    10  main.o(i.__NVIC_GetPriorityGrouping)
    i.__NVIC_SetPriority                     0x08003c98   Section        0  main.o(i.__NVIC_SetPriority)
    __NVIC_SetPriority                       0x08003c99   Thumb Code    32  main.o(i.__NVIC_SetPriority)
    i.__hardfp_sqrtf                         0x08003cc0   Section        0  sqrtf_full.o(i.__hardfp_sqrtf)
    i.main                                   0x08003cfc   Section        0  main.o(i.main)
    x$fpl$d2f                                0x08003d74   Section      708  d2f_clz.o(x$fpl$d2f)
    $v0                                      0x08003d74   Number         0  d2f_clz.o(x$fpl$d2f)
    x$fpl$dadd                               0x08004038   Section      588  daddsub_clz.o(x$fpl$dadd)
    $v0                                      0x08004038   Number         0  daddsub_clz.o(x$fpl$dadd)
    _dadd1                                   0x08004063   Thumb Code     0  daddsub_clz.o(x$fpl$dadd)
    dadd_zerodenorm                          0x08004203   Thumb Code     0  daddsub_clz.o(x$fpl$dadd)
    x$fpl$dcmpinf                            0x08004284   Section       24  dcmpi.o(x$fpl$dcmpinf)
    $v0                                      0x08004284   Number         0  dcmpi.o(x$fpl$dcmpinf)
    x$fpl$ddiv                               0x0800429c   Section      892  ddiv_clz.o(x$fpl$ddiv)
    $v0                                      0x0800429c   Number         0  ddiv_clz.o(x$fpl$ddiv)
    ddiv_entry                               0x080042a3   Thumb Code     0  ddiv_clz.o(x$fpl$ddiv)
    x$fpl$dfltn                              0x08004618   Section       26  dflt_clz.o(x$fpl$dfltn)
    $v0                                      0x08004618   Number         0  dflt_clz.o(x$fpl$dfltn)
    x$fpl$dleqf                              0x08004634   Section      120  dleqf.o(x$fpl$dleqf)
    $v0                                      0x08004634   Number         0  dleqf.o(x$fpl$dleqf)
    x$fpl$dmul                               0x080046ac   Section      448  dmul_clz.o(x$fpl$dmul)
    $v0                                      0x080046ac   Number         0  dmul_clz.o(x$fpl$dmul)
    x$fpl$dnaninf                            0x0800486c   Section      258  dnaninf.o(x$fpl$dnaninf)
    $v0                                      0x0800486c   Number         0  dnaninf.o(x$fpl$dnaninf)
    x$fpl$drenorm                            0x0800496e   Section      112  drenorm_clz.o(x$fpl$drenorm)
    $v0                                      0x0800496e   Number         0  drenorm_clz.o(x$fpl$drenorm)
    x$fpl$dretinf                            0x080049de   Section       12  dretinf.o(x$fpl$dretinf)
    $v0                                      0x080049de   Number         0  dretinf.o(x$fpl$dretinf)
    x$fpl$drleqf                             0x080049ea   Section       98  drleqf.o(x$fpl$drleqf)
    $v0                                      0x080049ea   Number         0  drleqf.o(x$fpl$drleqf)
    x$fpl$dsub                               0x08004a4c   Section      668  daddsub_clz.o(x$fpl$dsub)
    $v0                                      0x08004a4c   Number         0  daddsub_clz.o(x$fpl$dsub)
    _dsub1                                   0x08004a77   Thumb Code     0  daddsub_clz.o(x$fpl$dsub)
    daddsub_denorm                           0x08004c3b   Thumb Code     0  daddsub_clz.o(x$fpl$dsub)
    dsub_uncommon_first                      0x08004c4f   Thumb Code     0  daddsub_clz.o(x$fpl$dsub)
    dsub_zerodenorm                          0x08004c6d   Thumb Code     0  daddsub_clz.o(x$fpl$dsub)
    x$fpl$dunder                             0x08004ce8   Section      378  dunder_clz.o(x$fpl$dunder)
    $v0                                      0x08004ce8   Number         0  dunder_clz.o(x$fpl$dunder)
    x$fpl$exception                          0x08004e64   Section      492  except.o(x$fpl$exception)
    $v0                                      0x08004e64   Number         0  except.o(x$fpl$exception)
    x$fpl$f2d                                0x08005050   Section      122  f2d.o(x$fpl$f2d)
    $v0                                      0x08005050   Number         0  f2d.o(x$fpl$f2d)
    x$fpl$fnaninf                            0x080050ca   Section      242  fnaninf.o(x$fpl$fnaninf)
    $v0                                      0x080050ca   Number         0  fnaninf.o(x$fpl$fnaninf)
    x$fpl$fpinit                             0x080051bc   Section       10  fpinit.o(x$fpl$fpinit)
    $v0                                      0x080051bc   Number         0  fpinit.o(x$fpl$fpinit)
    x$fpl$fretinf                            0x080051c6   Section       10  fretinf.o(x$fpl$fretinf)
    $v0                                      0x080051c6   Number         0  fretinf.o(x$fpl$fretinf)
    x$fpl$funder                             0x080051d0   Section      316  funder_clz.o(x$fpl$funder)
    $v0                                      0x080051d0   Number         0  funder_clz.o(x$fpl$funder)
    x$fpl$retnan                             0x0800530c   Section      178  retnan.o(x$fpl$retnan)
    $v0                                      0x0800530c   Number         0  retnan.o(x$fpl$retnan)
    x$fpl$trapveneer                         0x080053be   Section      126  trapv.o(x$fpl$trapveneer)
    $v0                                      0x080053be   Number         0  trapv.o(x$fpl$trapveneer)
    .constdata                               0x0800543c   Section       52  main.o(.constdata)
    x$fpl$usenofp                            0x0800543c   Section        0  usenofp.o(x$fpl$usenofp)
    CHANNEL_OFFSET_TAB                       0x0800543c   Data           7  main.o(.constdata)
    OFFSET_TAB_CCMRx                         0x08005443   Data           9  main.o(.constdata)
    SHIFT_TAB_OCxx                           0x0800544c   Data           9  main.o(.constdata)
    SHIFT_TAB_ICxx                           0x08005455   Data           9  main.o(.constdata)
    SHIFT_TAB_CCxP                           0x0800545e   Data           9  main.o(.constdata)
    SHIFT_TAB_OISx                           0x08005467   Data           9  main.o(.constdata)
    .constdata                               0x08005470   Section       24  system_stm32f3xx.o(.constdata)
    .constdata                               0x08005488   Section     2052  arm_common_tables.o(.constdata)
    .data                                    0x20000000   Section      116  main.o(.data)
    .data                                    0x20000078   Section      104  stm32f3xx_it.o(.data)
    .data                                    0x200000e0   Section        4  system_stm32f3xx.o(.data)
    .bss                                     0x200000e4   Section      210  main.o(.bss)
    .bss                                     0x200001b8   Section      444  stm32f3xx_it.o(.bss)
    .bss                                     0x20000374   Section       96  libspace.o(.bss)
    HEAP                                     0x200003d8   Section      512  startup_stm32f302xc.o(HEAP)
    Heap_Mem                                 0x200003d8   Data         512  startup_stm32f302xc.o(HEAP)
    STACK                                    0x200005d8   Section     1024  startup_stm32f302xc.o(STACK)
    Stack_Mem                                0x200005d8   Data        1024  startup_stm32f302xc.o(STACK)
    __initial_sp                             0x200009d8   Data           0  startup_stm32f302xc.o(STACK)

    Global Symbols

    Symbol Name                              Value     Ov Type        Size  Object(Section)

    BuildAttributes$$THM_ISAv4$E$P$D$K$B$S$7EM$VFPi3$EXTD16$VFPS$VFMA$PE$A:L22UL41UL21$X:L11$S22US41US21$IEEE1$IW$USESV6$~STKCKD$USESV7$~SHL$OTIME$ROPI$IEEEX$EBA8$UX$STANDARDLIB$REQ8$PRES8$EABIv2 0x00000000   Number         0  anon$$obj.o ABSOLUTE
    __ARM_use_no_argv                        0x00000000   Number         0  main.o ABSOLUTE
    __ARM_exceptions_init                     - Undefined Weak Reference
    __alloca_initialize                       - Undefined Weak Reference
    __arm_fini_                               - Undefined Weak Reference
    __arm_preinit_                            - Undefined Weak Reference
    __cpp_initialize__aeabi_                  - Undefined Weak Reference
    __cxa_finalize                            - Undefined Weak Reference
    __rt_locale                               - Undefined Weak Reference
    __sigvec_lookup                           - Undefined Weak Reference
    _atexit_init                              - Undefined Weak Reference
    _call_atexit_fns                          - Undefined Weak Reference
    _clock_init                               - Undefined Weak Reference
    _fp_trap_big                              - Undefined Weak Reference
    _fp_trap_init                             - Undefined Weak Reference
    _fp_trap_shutdown                         - Undefined Weak Reference
    _get_lc_collate                           - Undefined Weak Reference
    _get_lc_ctype                             - Undefined Weak Reference
    _get_lc_monetary                          - Undefined Weak Reference
    _get_lc_numeric                           - Undefined Weak Reference
    _get_lc_time                              - Undefined Weak Reference
    _getenv_init                              - Undefined Weak Reference
    _handle_redirection                       - Undefined Weak Reference
    _init_alloc                               - Undefined Weak Reference
    _init_user_alloc                          - Undefined Weak Reference
    _initio                                   - Undefined Weak Reference
    _rand_init                                - Undefined Weak Reference
    _signal_finish                            - Undefined Weak Reference
    _signal_init                              - Undefined Weak Reference
    _terminate_alloc                          - Undefined Weak Reference
    _terminate_user_alloc                     - Undefined Weak Reference
    _terminateio                              - Undefined Weak Reference
    __Vectors_Size                           0x00000188   Number         0  startup_stm32f302xc.o ABSOLUTE
    __Vectors                                0x08000000   Data           4  startup_stm32f302xc.o(RESET)
    __Vectors_End                            0x08000188   Data           0  startup_stm32f302xc.o(RESET)
    __main                                   0x08000189   Thumb Code     8  __main.o(!!!main)
    __scatterload                            0x08000191   Thumb Code     0  __scatter.o(!!!scatter)
    __scatterload_rt2                        0x08000191   Thumb Code    44  __scatter.o(!!!scatter)
    __scatterload_rt2_thumb_only             0x08000191   Thumb Code     0  __scatter.o(!!!scatter)
    __scatterload_null                       0x0800019f   Thumb Code     0  __scatter.o(!!!scatter)
    __scatterload_copy                       0x080001c5   Thumb Code    26  __scatter_copy.o(!!handler_copy)
    __scatterload_zeroinit                   0x080001e1   Thumb Code    28  __scatter_zi.o(!!handler_zi)
    __rt_lib_init                            0x080001fd   Thumb Code     0  libinit.o(.ARM.Collect$$libinit$$00000000)
    __rt_lib_init_fp_1                       0x080001ff   Thumb Code     0  libinit2.o(.ARM.Collect$$libinit$$00000001)
    __rt_lib_init_alloca_1                   0x08000203   Thumb Code     0  libinit2.o(.ARM.Collect$$libinit$$0000002E)
    __rt_lib_init_argv_1                     0x08000203   Thumb Code     0  libinit2.o(.ARM.Collect$$libinit$$0000002C)
    __rt_lib_init_atexit_1                   0x08000203   Thumb Code     0  libinit2.o(.ARM.Collect$$libinit$$0000001B)
    __rt_lib_init_clock_1                    0x08000203   Thumb Code     0  libinit2.o(.ARM.Collect$$libinit$$00000021)
    __rt_lib_init_cpp_1                      0x08000203   Thumb Code     0  libinit2.o(.ARM.Collect$$libinit$$00000032)
    __rt_lib_init_exceptions_1               0x08000203   Thumb Code     0  libinit2.o(.ARM.Collect$$libinit$$00000030)
    __rt_lib_init_fp_trap_1                  0x08000203   Thumb Code     0  libinit2.o(.ARM.Collect$$libinit$$0000001F)
    __rt_lib_init_getenv_1                   0x08000203   Thumb Code     0  libinit2.o(.ARM.Collect$$libinit$$00000023)
    __rt_lib_init_heap_1                     0x08000203   Thumb Code     0  libinit2.o(.ARM.Collect$$libinit$$0000000A)
    __rt_lib_init_lc_collate_1               0x08000203   Thumb Code     0  libinit2.o(.ARM.Collect$$libinit$$00000011)
    __rt_lib_init_lc_ctype_1                 0x08000203   Thumb Code     0  libinit2.o(.ARM.Collect$$libinit$$00000013)
    __rt_lib_init_lc_monetary_1              0x08000203   Thumb Code     0  libinit2.o(.ARM.Collect$$libinit$$00000015)
    __rt_lib_init_lc_numeric_1               0x08000203   Thumb Code     0  libinit2.o(.ARM.Collect$$libinit$$00000017)
    __rt_lib_init_lc_time_1                  0x08000203   Thumb Code     0  libinit2.o(.ARM.Collect$$libinit$$00000019)
    __rt_lib_init_preinit_1                  0x08000203   Thumb Code     0  libinit2.o(.ARM.Collect$$libinit$$00000004)
    __rt_lib_init_rand_1                     0x08000203   Thumb Code     0  libinit2.o(.ARM.Collect$$libinit$$0000000E)
    __rt_lib_init_return                     0x08000203   Thumb Code     0  libinit2.o(.ARM.Collect$$libinit$$00000033)
    __rt_lib_init_signal_1                   0x08000203   Thumb Code     0  libinit2.o(.ARM.Collect$$libinit$$0000001D)
    __rt_lib_init_stdio_1                    0x08000203   Thumb Code     0  libinit2.o(.ARM.Collect$$libinit$$00000025)
    __rt_lib_init_user_alloc_1               0x08000203   Thumb Code     0  libinit2.o(.ARM.Collect$$libinit$$0000000C)
    __rt_lib_shutdown                        0x08000205   Thumb Code     0  libshutdown.o(.ARM.Collect$$libshutdown$$00000000)
    __rt_lib_shutdown_cpp_1                  0x08000207   Thumb Code     0  libshutdown2.o(.ARM.Collect$$libshutdown$$00000004)
    __rt_lib_shutdown_fini_1                 0x08000207   Thumb Code     0  libshutdown2.o(.ARM.Collect$$libshutdown$$00000002)
    __rt_lib_shutdown_fp_trap_1              0x08000207   Thumb Code     0  libshutdown2.o(.ARM.Collect$$libshutdown$$00000009)
    __rt_lib_shutdown_heap_1                 0x08000207   Thumb Code     0  libshutdown2.o(.ARM.Collect$$libshutdown$$00000011)
    __rt_lib_shutdown_return                 0x08000207   Thumb Code     0  libshutdown2.o(.ARM.Collect$$libshutdown$$00000012)
    __rt_lib_shutdown_signal_1               0x08000207   Thumb Code     0  libshutdown2.o(.ARM.Collect$$libshutdown$$0000000C)
    __rt_lib_shutdown_stdio_1                0x08000207   Thumb Code     0  libshutdown2.o(.ARM.Collect$$libshutdown$$00000006)
    __rt_lib_shutdown_user_alloc_1           0x08000207   Thumb Code     0  libshutdown2.o(.ARM.Collect$$libshutdown$$0000000E)
    __rt_entry                               0x08000209   Thumb Code     0  __rtentry.o(.ARM.Collect$$rtentry$$00000000)
    __rt_entry_presh_1                       0x08000209   Thumb Code     0  __rtentry2.o(.ARM.Collect$$rtentry$$00000002)
    __rt_entry_sh                            0x08000209   Thumb Code     0  __rtentry4.o(.ARM.Collect$$rtentry$$00000004)
    __rt_entry_li                            0x0800020f   Thumb Code     0  __rtentry2.o(.ARM.Collect$$rtentry$$0000000A)
    __rt_entry_postsh_1                      0x0800020f   Thumb Code     0  __rtentry2.o(.ARM.Collect$$rtentry$$00000009)
    __rt_entry_main                          0x08000213   Thumb Code     0  __rtentry2.o(.ARM.Collect$$rtentry$$0000000D)
    __rt_entry_postli_1                      0x08000213   Thumb Code     0  __rtentry2.o(.ARM.Collect$$rtentry$$0000000C)
    __rt_exit                                0x0800021b   Thumb Code     0  rtexit.o(.ARM.Collect$$rtexit$$00000000)
    __rt_exit_ls                             0x0800021d   Thumb Code     0  rtexit2.o(.ARM.Collect$$rtexit$$00000003)
    __rt_exit_prels_1                        0x0800021d   Thumb Code     0  rtexit2.o(.ARM.Collect$$rtexit$$00000002)
    __rt_exit_exit                           0x08000221   Thumb Code     0  rtexit2.o(.ARM.Collect$$rtexit$$00000004)
    Reset_Handler                            0x08000229   Thumb Code     8  startup_stm32f302xc.o(.text)
    NMI_Handler                              0x08000231   Thumb Code     2  startup_stm32f302xc.o(.text)
    HardFault_Handler                        0x08000233   Thumb Code     2  startup_stm32f302xc.o(.text)
    MemManage_Handler                        0x08000235   Thumb Code     2  startup_stm32f302xc.o(.text)
    BusFault_Handler                         0x08000237   Thumb Code     2  startup_stm32f302xc.o(.text)
    UsageFault_Handler                       0x08000239   Thumb Code     2  startup_stm32f302xc.o(.text)
    SVC_Handler                              0x0800023b   Thumb Code     2  startup_stm32f302xc.o(.text)
    DebugMon_Handler                         0x0800023d   Thumb Code     2  startup_stm32f302xc.o(.text)
    PendSV_Handler                           0x0800023f   Thumb Code     2  startup_stm32f302xc.o(.text)
    SysTick_Handler                          0x08000241   Thumb Code     2  startup_stm32f302xc.o(.text)
    ADC1_2_IRQHandler                        0x08000243   Thumb Code     0  startup_stm32f302xc.o(.text)
    CAN_RX1_IRQHandler                       0x08000243   Thumb Code     0  startup_stm32f302xc.o(.text)
    CAN_SCE_IRQHandler                       0x08000243   Thumb Code     0  startup_stm32f302xc.o(.text)
    COMP1_2_IRQHandler                       0x08000243   Thumb Code     0  startup_stm32f302xc.o(.text)
    COMP4_6_IRQHandler                       0x08000243   Thumb Code     0  startup_stm32f302xc.o(.text)
    DMA1_Channel1_IRQHandler                 0x08000243   Thumb Code     0  startup_stm32f302xc.o(.text)
    DMA1_Channel2_IRQHandler                 0x08000243   Thumb Code     0  startup_stm32f302xc.o(.text)
    DMA1_Channel3_IRQHandler                 0x08000243   Thumb Code     0  startup_stm32f302xc.o(.text)
    DMA1_Channel4_IRQHandler                 0x08000243   Thumb Code     0  startup_stm32f302xc.o(.text)
    DMA1_Channel5_IRQHandler                 0x08000243   Thumb Code     0  startup_stm32f302xc.o(.text)
    DMA1_Channel6_IRQHandler                 0x08000243   Thumb Code     0  startup_stm32f302xc.o(.text)
    DMA1_Channel7_IRQHandler                 0x08000243   Thumb Code     0  startup_stm32f302xc.o(.text)
    DMA2_Channel1_IRQHandler                 0x08000243   Thumb Code     0  startup_stm32f302xc.o(.text)
    DMA2_Channel2_IRQHandler                 0x08000243   Thumb Code     0  startup_stm32f302xc.o(.text)
    DMA2_Channel3_IRQHandler                 0x08000243   Thumb Code     0  startup_stm32f302xc.o(.text)
    DMA2_Channel4_IRQHandler                 0x08000243   Thumb Code     0  startup_stm32f302xc.o(.text)
    DMA2_Channel5_IRQHandler                 0x08000243   Thumb Code     0  startup_stm32f302xc.o(.text)
    EXTI0_IRQHandler                         0x08000243   Thumb Code     0  startup_stm32f302xc.o(.text)
    EXTI15_10_IRQHandler                     0x08000243   Thumb Code     0  startup_stm32f302xc.o(.text)
    EXTI1_IRQHandler                         0x08000243   Thumb Code     0  startup_stm32f302xc.o(.text)
    EXTI2_TSC_IRQHandler                     0x08000243   Thumb Code     0  startup_stm32f302xc.o(.text)
    EXTI3_IRQHandler                         0x08000243   Thumb Code     0  startup_stm32f302xc.o(.text)
    EXTI4_IRQHandler                         0x08000243   Thumb Code     0  startup_stm32f302xc.o(.text)
    EXTI9_5_IRQHandler                       0x08000243   Thumb Code     0  startup_stm32f302xc.o(.text)
    FLASH_IRQHandler                         0x08000243   Thumb Code     0  startup_stm32f302xc.o(.text)
    FPU_IRQHandler                           0x08000243   Thumb Code     0  startup_stm32f302xc.o(.text)
    I2C1_ER_IRQHandler                       0x08000243   Thumb Code     0  startup_stm32f302xc.o(.text)
    I2C1_EV_IRQHandler                       0x08000243   Thumb Code     0  startup_stm32f302xc.o(.text)
    I2C2_ER_IRQHandler                       0x08000243   Thumb Code     0  startup_stm32f302xc.o(.text)
    I2C2_EV_IRQHandler                       0x08000243   Thumb Code     0  startup_stm32f302xc.o(.text)
    PVD_IRQHandler                           0x08000243   Thumb Code     0  startup_stm32f302xc.o(.text)
    RCC_IRQHandler                           0x08000243   Thumb Code     0  startup_stm32f302xc.o(.text)
    RTC_Alarm_IRQHandler                     0x08000243   Thumb Code     0  startup_stm32f302xc.o(.text)
    RTC_WKUP_IRQHandler                      0x08000243   Thumb Code     0  startup_stm32f302xc.o(.text)
    SPI1_IRQHandler                          0x08000243   Thumb Code     0  startup_stm32f302xc.o(.text)
    SPI2_IRQHandler                          0x08000243   Thumb Code     0  startup_stm32f302xc.o(.text)
    SPI3_IRQHandler                          0x08000243   Thumb Code     0  startup_stm32f302xc.o(.text)
    TAMP_STAMP_IRQHandler                    0x08000243   Thumb Code     0  startup_stm32f302xc.o(.text)
    TIM1_BRK_TIM15_IRQHandler                0x08000243   Thumb Code     0  startup_stm32f302xc.o(.text)
    TIM1_CC_IRQHandler                       0x08000243   Thumb Code     0  startup_stm32f302xc.o(.text)
    TIM1_TRG_COM_TIM17_IRQHandler            0x08000243   Thumb Code     0  startup_stm32f302xc.o(.text)
    TIM1_UP_TIM16_IRQHandler                 0x08000243   Thumb Code     0  startup_stm32f302xc.o(.text)
    TIM3_IRQHandler                          0x08000243   Thumb Code     0  startup_stm32f302xc.o(.text)
    TIM4_IRQHandler                          0x08000243   Thumb Code     0  startup_stm32f302xc.o(.text)
    TIM6_DAC_IRQHandler                      0x08000243   Thumb Code     0  startup_stm32f302xc.o(.text)
    UART4_IRQHandler                         0x08000243   Thumb Code     0  startup_stm32f302xc.o(.text)
    UART5_IRQHandler                         0x08000243   Thumb Code     0  startup_stm32f302xc.o(.text)
    USART1_IRQHandler                        0x08000243   Thumb Code     0  startup_stm32f302xc.o(.text)
    USART3_IRQHandler                        0x08000243   Thumb Code     0  startup_stm32f302xc.o(.text)
    USBWakeUp_IRQHandler                     0x08000243   Thumb Code     0  startup_stm32f302xc.o(.text)
    USBWakeUp_RMP_IRQHandler                 0x08000243   Thumb Code     0  startup_stm32f302xc.o(.text)
    USB_HP_CAN_TX_IRQHandler                 0x08000243   Thumb Code     0  startup_stm32f302xc.o(.text)
    USB_HP_IRQHandler                        0x08000243   Thumb Code     0  startup_stm32f302xc.o(.text)
    USB_LP_CAN_RX0_IRQHandler                0x08000243   Thumb Code     0  startup_stm32f302xc.o(.text)
    USB_LP_IRQHandler                        0x08000243   Thumb Code     0  startup_stm32f302xc.o(.text)
    WWDG_IRQHandler                          0x08000243   Thumb Code     0  startup_stm32f302xc.o(.text)
    __user_initial_stackheap                 0x08000245   Thumb Code     0  startup_stm32f302xc.o(.text)
    arm_cos_f32                              0x08000269   Thumb Code   108  arm_cos_f32.o(.text)
    arm_sin_f32                              0x080002e1   Thumb Code   130  arm_sin_f32.o(.text)
    __aeabi_memclr4                          0x08000375   Thumb Code     0  rt_memclr_w.o(.text)
    __aeabi_memclr8                          0x08000375   Thumb Code     0  rt_memclr_w.o(.text)
    __rt_memclr_w                            0x08000375   Thumb Code    78  rt_memclr_w.o(.text)
    _memset_w                                0x08000379   Thumb Code     0  rt_memclr_w.o(.text)
    __use_two_region_memory                  0x080003c3   Thumb Code     2  heapauxi.o(.text)
    __rt_heap_escrow$2region                 0x080003c5   Thumb Code     2  heapauxi.o(.text)
    __rt_heap_expand$2region                 0x080003c7   Thumb Code     2  heapauxi.o(.text)
    __read_errno                             0x080003c9   Thumb Code    10  _rserrno.o(.text)
    __set_errno                              0x080003d3   Thumb Code    12  _rserrno.o(.text)
    __aeabi_errno_addr                       0x080003e1   Thumb Code     8  rt_errno_addr_intlibspace.o(.text)
    __errno$intlibspace                      0x080003e1   Thumb Code     0  rt_errno_addr_intlibspace.o(.text)
    __rt_errno_addr$intlibspace              0x080003e1   Thumb Code     0  rt_errno_addr_intlibspace.o(.text)
    _fp_trap                                 0x080003e9   Thumb Code    44  _fptrap.o(.text)
    __user_libspace                          0x08000419   Thumb Code     8  libspace.o(.text)
    __user_perproc_libspace                  0x08000419   Thumb Code     0  libspace.o(.text)
    __user_perthread_libspace                0x08000419   Thumb Code     0  libspace.o(.text)
    __user_setup_stackheap                   0x08000421   Thumb Code    74  sys_stackheap_outer.o(.text)
    exit                                     0x0800046b   Thumb Code    18  exit.o(.text)
    __rt_SIGFPE                              0x0800047d   Thumb Code    14  defsig_fpe_outer.o(.text)
    __sig_exit                               0x0800048b   Thumb Code    10  defsig_exit.o(.text)
    __rt_SIGFPE_inner                        0x08000495   Thumb Code    62  defsig_fpe_inner.o(.text)
    _sys_exit                                0x08000541   Thumb Code     8  sys_exit.o(.text)
    __default_signal_display                 0x0800054d   Thumb Code    50  defsig_general.o(.text)
    _ttywrch                                 0x0800057f   Thumb Code    14  sys_wrch.o(.text)
    __I$use$semihosting                      0x0800058d   Thumb Code     0  use_no_semi.o(.text)
    __use_no_semihosting_swi                 0x0800058d   Thumb Code     2  use_no_semi.o(.text)
    __semihosting_library_function           0x0800058f   Thumb Code     0  indicate_semi.o(.text)
    LL_ADC_CommonInit                        0x080013a5   Thumb Code    88  stm32f3xx_ll_adc.o(i.LL_ADC_CommonInit)
    LL_ADC_Init                              0x08001405   Thumb Code    46  stm32f3xx_ll_adc.o(i.LL_ADC_Init)
    LL_ADC_REG_Init                          0x0800143d   Thumb Code   102  stm32f3xx_ll_adc.o(i.LL_ADC_REG_Init)
    LL_COMP_Init                             0x080015b1   Thumb Code    56  stm32f3xx_ll_comp.o(i.LL_COMP_Init)
    LL_DAC_Init                              0x080015ed   Thumb Code   126  stm32f3xx_ll_dac.o(i.LL_DAC_Init)
    LL_GPIO_Init                             0x080017a1   Thumb Code   310  stm32f3xx_ll_gpio.o(i.LL_GPIO_Init)
    LL_Init1msTick                           0x080018eb   Thumb Code    28  stm32f3xx_ll_utils.o(i.LL_Init1msTick)
    LL_RCC_GetUARTClockFreq                  0x08001909   Thumb Code   198  stm32f3xx_ll_rcc.o(i.LL_RCC_GetUARTClockFreq)
    LL_RCC_GetUSARTClockFreq                 0x080019f1   Thumb Code   272  stm32f3xx_ll_rcc.o(i.LL_RCC_GetUSARTClockFreq)
    LL_SetSystemCoreClock                    0x08001b45   Thumb Code     6  stm32f3xx_ll_utils.o(i.LL_SetSystemCoreClock)
    LL_TIM_BDTR_Init                         0x08001b51   Thumb Code   134  stm32f3xx_ll_tim.o(i.LL_TIM_BDTR_Init)
    LL_TIM_Init                              0x08001bfd   Thumb Code   154  stm32f3xx_ll_tim.o(i.LL_TIM_Init)
    LL_TIM_OC_Init                           0x08001d99   Thumb Code   132  stm32f3xx_ll_tim.o(i.LL_TIM_OC_Init)
    LL_USART_Init                            0x08001e39   Thumb Code   242  stm32f3xx_ll_usart.o(i.LL_USART_Init)
    RCC_GetHCLKClockFreq                     0x08002bb9   Thumb Code    24  stm32f3xx_ll_rcc.o(i.RCC_GetHCLKClockFreq)
    RCC_GetPCLK1ClockFreq                    0x08002bd9   Thumb Code    26  stm32f3xx_ll_rcc.o(i.RCC_GetPCLK1ClockFreq)
    RCC_GetPCLK2ClockFreq                    0x08002bfd   Thumb Code    26  stm32f3xx_ll_rcc.o(i.RCC_GetPCLK2ClockFreq)
    RCC_GetSystemClockFreq                   0x08002c21   Thumb Code    52  stm32f3xx_ll_rcc.o(i.RCC_GetSystemClockFreq)
    RCC_PLL_GetFreqDomain_SYS                0x08002c5d   Thumb Code    90  stm32f3xx_ll_rcc.o(i.RCC_PLL_GetFreqDomain_SYS)
    SystemClock_Config                       0x08002cc5   Thumb Code   316  main.o(i.SystemClock_Config)
    SystemInit                               0x08002e11   Thumb Code    14  system_stm32f3xx.o(i.SystemInit)
    TIM2_IRQHandler                          0x08002e25   Thumb Code  3628  stm32f3xx_it.o(i.TIM2_IRQHandler)
    USART2_IRQHandler                        0x08003c5d   Thumb Code    12  stm32f3xx_it.o(i.USART2_IRQHandler)
    __hardfp_sqrtf                           0x08003cc1   Thumb Code    58  sqrtf_full.o(i.__hardfp_sqrtf)
    main                                     0x08003cfd   Thumb Code   112  main.o(i.main)
    __aeabi_d2f                              0x08003d75   Thumb Code     0  d2f_clz.o(x$fpl$d2f)
    _d2f                                     0x08003d75   Thumb Code   700  d2f_clz.o(x$fpl$d2f)
    __aeabi_dadd                             0x08004039   Thumb Code     0  daddsub_clz.o(x$fpl$dadd)
    _dadd                                    0x08004039   Thumb Code   580  daddsub_clz.o(x$fpl$dadd)
    __fpl_dcmp_Inf                           0x08004285   Thumb Code    24  dcmpi.o(x$fpl$dcmpinf)
    __aeabi_ddiv                             0x0800429d   Thumb Code     0  ddiv_clz.o(x$fpl$ddiv)
    _ddiv                                    0x0800429d   Thumb Code   748  ddiv_clz.o(x$fpl$ddiv)
    __dflt_normalise                         0x08004619   Thumb Code    26  dflt_clz.o(x$fpl$dfltn)
    __aeabi_cdcmple                          0x08004635   Thumb Code     0  dleqf.o(x$fpl$dleqf)
    _dcmple                                  0x08004635   Thumb Code   120  dleqf.o(x$fpl$dleqf)
    __fpl_dcmple_InfNaN                      0x0800468d   Thumb Code     0  dleqf.o(x$fpl$dleqf)
    __aeabi_dmul                             0x080046ad   Thumb Code     0  dmul_clz.o(x$fpl$dmul)
    _dmul                                    0x080046ad   Thumb Code   440  dmul_clz.o(x$fpl$dmul)
    __fpl_dnaninf                            0x0800486d   Thumb Code   258  dnaninf.o(x$fpl$dnaninf)
    __fpl_drenorm2                           0x0800496f   Thumb Code   106  drenorm_clz.o(x$fpl$drenorm)
    __fpl_drenorm1                           0x080049d9   Thumb Code     6  drenorm_clz.o(x$fpl$drenorm)
    __fpl_dretinf                            0x080049df   Thumb Code    12  dretinf.o(x$fpl$dretinf)
    __aeabi_cdrcmple                         0x080049eb   Thumb Code     0  drleqf.o(x$fpl$drleqf)
    _drcmple                                 0x080049eb   Thumb Code    98  drleqf.o(x$fpl$drleqf)
    __aeabi_dsub                             0x08004a4d   Thumb Code     0  daddsub_clz.o(x$fpl$dsub)
    _dsub                                    0x08004a4d   Thumb Code   664  daddsub_clz.o(x$fpl$dsub)
    __dunder                                 0x08004ce9   Thumb Code   314  dunder_clz.o(x$fpl$dunder)
    __dunder_d                               0x08004e23   Thumb Code    64  dunder_clz.o(x$fpl$dunder)
    __fpl_exception                          0x08004e65   Thumb Code   454  except.o(x$fpl$exception)
    __aeabi_f2d                              0x08005051   Thumb Code     0  f2d.o(x$fpl$f2d)
    _f2d                                     0x08005051   Thumb Code   122  f2d.o(x$fpl$f2d)
    __fpl_fnaninf                            0x080050cb   Thumb Code   242  fnaninf.o(x$fpl$fnaninf)
    _fp_init                                 0x080051bd   Thumb Code    10  fpinit.o(x$fpl$fpinit)
    __fplib_config_fpu_vfp                   0x080051c5   Thumb Code     0  fpinit.o(x$fpl$fpinit)
    __fplib_config_pureend_doubles           0x080051c5   Thumb Code     0  fpinit.o(x$fpl$fpinit)
    __fpl_fretinf                            0x080051c7   Thumb Code    10  fretinf.o(x$fpl$fretinf)
    __funder                                 0x080051d1   Thumb Code   254  funder_clz.o(x$fpl$funder)
    __funder_d                               0x080052cf   Thumb Code    62  funder_clz.o(x$fpl$funder)
    __fpl_return_NaN                         0x0800530d   Thumb Code   178  retnan.o(x$fpl$retnan)
    _fp_trapveneer                           0x080053bf   Thumb Code    36  trapv.o(x$fpl$trapveneer)
    __fpl_cmpreturn                          0x080053e3   Thumb Code    90  trapv.o(x$fpl$trapveneer)
    __I$use$fp                               0x0800543c   Number         0  usenofp.o(x$fpl$usenofp)
    AHBPrescTable                            0x08005470   Data          16  system_stm32f3xx.o(.constdata)
    APBPrescTable                            0x08005480   Data           8  system_stm32f3xx.o(.constdata)
    sinTable_f32                             0x08005488   Data        2052  arm_common_tables.o(.constdata)
    Region$$Table$$Base                      0x08005c8c   Number         0  anon$$obj.o(Region$$Table)
    Region$$Table$$Limit                     0x08005cac   Number         0  anon$$obj.o(Region$$Table)
    ADCValue_VIN                             0x20000000   Data           2  main.o(.data)
    ADCValue_VACL                            0x20000002   Data           2  main.o(.data)
    ADCValue_VACN                            0x20000004   Data           2  main.o(.data)
    ADCValue_IIN                             0x20000006   Data           2  main.o(.data)
    ADCValue_IAC                             0x20000008   Data           2  main.o(.data)
    f32_VIN                                  0x2000000c   Data           4  main.o(.data)
    f32_VIN_filter                           0x20000010   Data           4  main.o(.data)
    f32_VIN_filtered                         0x20000014   Data           4  main.o(.data)
    f32_VAC                                  0x20000018   Data           4  main.o(.data)
    f32_VAC_filter                           0x2000001c   Data           4  main.o(.data)
    f32_VAC_filtered                         0x20000020   Data           4  main.o(.data)
    f32_IIN                                  0x20000024   Data           4  main.o(.data)
    f32_IAC                                  0x20000028   Data           4  main.o(.data)
    f32_IAC_filter                           0x2000002c   Data           4  main.o(.data)
    f32_IAC_filtered                         0x20000030   Data           4  main.o(.data)
    f32_VAC_Rms_Counter                      0x20000034   Data           2  main.o(.data)
    f32RMSValue                              0x20000038   Data           4  main.o(.data)
    f32SUMValue                              0x2000003c   Data           4  main.o(.data)
    f32_VDC_Set                              0x20000040   Data           4  main.o(.data)
    f32_VRms_Set                             0x20000044   Data           4  main.o(.data)
    f32_IAC_Ref                              0x20000048   Data           4  main.o(.data)
    f32_VAC_Set                              0x2000004c   Data           4  main.o(.data)
    f32_VAC_Set_Step                         0x20000050   Data           4  main.o(.data)
    f32_VAC_Set_Update                       0x20000054   Data           4  main.o(.data)
    f32_IAC_Set                              0x20000058   Data           4  main.o(.data)
    f32_IAC_Set_Step                         0x2000005c   Data           4  main.o(.data)
    f32_IAC_Set_Update                       0x20000060   Data           4  main.o(.data)
    f32_VAC_Gain                             0x20000068   Data           8  main.o(.data)
    UsartTxValue                             0x20000070   Data           2  main.o(.data)
    UsartRxValue                             0x20000072   Data           2  main.o(.data)
    ACState                                  0x20000078   Data           1  stm32f3xx_it.o(.data)
    u16VacState                              0x2000007a   Data           2  stm32f3xx_it.o(.data)
    Mode                                     0x2000007c   Data           1  stm32f3xx_it.o(.data)
    u16Mode                                  0x2000007e   Data           2  stm32f3xx_it.o(.data)
    OnGridState                              0x20000080   Data           1  stm32f3xx_it.o(.data)
    u16OnGridState                           0x20000082   Data           2  stm32f3xx_it.o(.data)
    TIM2_Counter                             0x20000084   Data           2  stm32f3xx_it.o(.data)
    TIM2_Delay_Counter                       0x20000086   Data           2  stm32f3xx_it.o(.data)
    VacRmsVal                                0x20000088   Data           4  stm32f3xx_it.o(.data)
    VacPeakVal                               0x2000008c   Data           2  stm32f3xx_it.o(.data)
    SinVal                                   0x20000090   Data           4  stm32f3xx_it.o(.data)
    f32VacVal                                0x20000094   Data           4  stm32f3xx_it.o(.data)
    f32VacSin                                0x20000098   Data           4  stm32f3xx_it.o(.data)
    u16VacVal                                0x2000009c   Data           2  stm32f3xx_it.o(.data)
    u16VacAbsVal                             0x2000009e   Data           2  stm32f3xx_it.o(.data)
    u16VacFreqCounter                        0x200000a0   Data           2  stm32f3xx_it.o(.data)
    f32VacFreqCounter                        0x200000a4   Data           4  stm32f3xx_it.o(.data)
    f32VacFreq                               0x200000a8   Data           4  stm32f3xx_it.o(.data)
    VacTimer                                 0x200000b0   Data           8  stm32f3xx_it.o(.data)
    VacGain                                  0x200000b8   Data           4  stm32f3xx_it.o(.data)
    u16PwmUpdate                             0x200000bc   Data           2  stm32f3xx_it.o(.data)
    u16PwmUpdateCH2                          0x200000be   Data           2  stm32f3xx_it.o(.data)
    u16PwmUpdateCH3                          0x200000c0   Data           2  stm32f3xx_it.o(.data)
    f32PwmUpdate                             0x200000c4   Data           4  stm32f3xx_it.o(.data)
    DataTailSendTx                           0x200000c8   Data           1  stm32f3xx_it.o(.data)
    USARTf32TxADDr                           0x200000cc   Data           4  stm32f3xx_it.o(.data)
    f32MaxValue                              0x200000d0   Data           4  stm32f3xx_it.o(.data)
    f32MaxValueBefore                        0x200000d4   Data           4  stm32f3xx_it.o(.data)
    f32MinValue                              0x200000d8   Data           4  stm32f3xx_it.o(.data)
    f32MinValueBefore                        0x200000dc   Data           4  stm32f3xx_it.o(.data)
    SystemCoreClock                          0x200000e0   Data           4  system_stm32f3xx.o(.data)
    f32_VAC_Rms                              0x200000e4   Data         200  main.o(.bss)
    aADCxConvertedValues                     0x200001ac   Data          10  main.o(.bss)
    OnGridDQ                                 0x200001b8   Data          96  stm32f3xx_it.o(.bss)
    OffGridPID                               0x20000218   Data          60  stm32f3xx_it.o(.bss)
    OnGridPID                                0x20000254   Data          60  stm32f3xx_it.o(.bss)
    OnGridPR                                 0x20000290   Data          76  stm32f3xx_it.o(.bss)
    SOGIPLL                                  0x200002dc   Data         108  stm32f3xx_it.o(.bss)
    USARTBufferTx                            0x20000348   Data          16  stm32f3xx_it.o(.bss)
    USARTBufferRx                            0x20000358   Data          12  stm32f3xx_it.o(.bss)
    USARTf32Tx                               0x20000364   Data          16  stm32f3xx_it.o(.bss)
    __libspace_start                         0x20000374   Data          96  libspace.o(.bss)
    __temporary_stack_top$libspace           0x200003d4   Data           0  libspace.o(.bss)



==============================================================================

Memory Map of the image

  Image Entry point : 0x08000189

  Load Region LR_IROM1 (Base: 0x08000000, Size: 0x00005d90, Max: 0x00020000, ABSOLUTE)

    Execution Region ER_IROM1 (Exec base: 0x08000000, Load base: 0x08000000, Size: 0x00005cac, Max: 0x00020000, ABSOLUTE)

    Exec Addr    Load Addr    Size         Type   Attr      Idx    E Section Name        Object

    0x08000000   0x08000000   0x00000188   Data   RO            3    RESET               startup_stm32f302xc.o
    0x08000188   0x08000188   0x00000008   Code   RO         1511  * !!!main             c_w.l(__main.o)
    0x08000190   0x08000190   0x00000034   Code   RO         1744    !!!scatter          c_w.l(__scatter.o)
    0x080001c4   0x080001c4   0x0000001a   Code   RO         1746    !!handler_copy      c_w.l(__scatter_copy.o)
    0x080001de   0x080001de   0x00000002   PAD
    0x080001e0   0x080001e0   0x0000001c   Code   RO         1748    !!handler_zi        c_w.l(__scatter_zi.o)
    0x080001fc   0x080001fc   0x00000002   Code   RO         1615    .ARM.Collect$$libinit$$00000000  c_w.l(libinit.o)
    0x080001fe   0x080001fe   0x00000004   Code   RO         1624    .ARM.Collect$$libinit$$00000001  c_w.l(libinit2.o)
    0x08000202   0x08000202   0x00000000   Code   RO         1627    .ARM.Collect$$libinit$$00000004  c_w.l(libinit2.o)
    0x08000202   0x08000202   0x00000000   Code   RO         1630    .ARM.Collect$$libinit$$0000000A  c_w.l(libinit2.o)
    0x08000202   0x08000202   0x00000000   Code   RO         1632    .ARM.Collect$$libinit$$0000000C  c_w.l(libinit2.o)
    0x08000202   0x08000202   0x00000000   Code   RO         1634    .ARM.Collect$$libinit$$0000000E  c_w.l(libinit2.o)
    0x08000202   0x08000202   0x00000000   Code   RO         1637    .ARM.Collect$$libinit$$00000011  c_w.l(libinit2.o)
    0x08000202   0x08000202   0x00000000   Code   RO         1639    .ARM.Collect$$libinit$$00000013  c_w.l(libinit2.o)
    0x08000202   0x08000202   0x00000000   Code   RO         1641    .ARM.Collect$$libinit$$00000015  c_w.l(libinit2.o)
    0x08000202   0x08000202   0x00000000   Code   RO         1643    .ARM.Collect$$libinit$$00000017  c_w.l(libinit2.o)
    0x08000202   0x08000202   0x00000000   Code   RO         1645    .ARM.Collect$$libinit$$00000019  c_w.l(libinit2.o)
    0x08000202   0x08000202   0x00000000   Code   RO         1647    .ARM.Collect$$libinit$$0000001B  c_w.l(libinit2.o)
    0x08000202   0x08000202   0x00000000   Code   RO         1649    .ARM.Collect$$libinit$$0000001D  c_w.l(libinit2.o)
    0x08000202   0x08000202   0x00000000   Code   RO         1651    .ARM.Collect$$libinit$$0000001F  c_w.l(libinit2.o)
    0x08000202   0x08000202   0x00000000   Code   RO         1653    .ARM.Collect$$libinit$$00000021  c_w.l(libinit2.o)
    0x08000202   0x08000202   0x00000000   Code   RO         1655    .ARM.Collect$$libinit$$00000023  c_w.l(libinit2.o)
    0x08000202   0x08000202   0x00000000   Code   RO         1657    .ARM.Collect$$libinit$$00000025  c_w.l(libinit2.o)
    0x08000202   0x08000202   0x00000000   Code   RO         1661    .ARM.Collect$$libinit$$0000002C  c_w.l(libinit2.o)
    0x08000202   0x08000202   0x00000000   Code   RO         1663    .ARM.Collect$$libinit$$0000002E  c_w.l(libinit2.o)
    0x08000202   0x08000202   0x00000000   Code   RO         1665    .ARM.Collect$$libinit$$00000030  c_w.l(libinit2.o)
    0x08000202   0x08000202   0x00000000   Code   RO         1667    .ARM.Collect$$libinit$$00000032  c_w.l(libinit2.o)
    0x08000202   0x08000202   0x00000002   Code   RO         1668    .ARM.Collect$$libinit$$00000033  c_w.l(libinit2.o)
    0x08000204   0x08000204   0x00000002   Code   RO         1699    .ARM.Collect$$libshutdown$$00000000  c_w.l(libshutdown.o)
    0x08000206   0x08000206   0x00000000   Code   RO         1725    .ARM.Collect$$libshutdown$$00000002  c_w.l(libshutdown2.o)
    0x08000206   0x08000206   0x00000000   Code   RO         1727    .ARM.Collect$$libshutdown$$00000004  c_w.l(libshutdown2.o)
    0x08000206   0x08000206   0x00000000   Code   RO         1729    .ARM.Collect$$libshutdown$$00000006  c_w.l(libshutdown2.o)
    0x08000206   0x08000206   0x00000000   Code   RO         1732    .ARM.Collect$$libshutdown$$00000009  c_w.l(libshutdown2.o)
    0x08000206   0x08000206   0x00000000   Code   RO         1735    .ARM.Collect$$libshutdown$$0000000C  c_w.l(libshutdown2.o)
    0x08000206   0x08000206   0x00000000   Code   RO         1737    .ARM.Collect$$libshutdown$$0000000E  c_w.l(libshutdown2.o)
    0x08000206   0x08000206   0x00000000   Code   RO         1740    .ARM.Collect$$libshutdown$$00000011  c_w.l(libshutdown2.o)
    0x08000206   0x08000206   0x00000002   Code   RO         1741    .ARM.Collect$$libshutdown$$00000012  c_w.l(libshutdown2.o)
    0x08000208   0x08000208   0x00000000   Code   RO         1545    .ARM.Collect$$rtentry$$00000000  c_w.l(__rtentry.o)
    0x08000208   0x08000208   0x00000000   Code   RO         1576    .ARM.Collect$$rtentry$$00000002  c_w.l(__rtentry2.o)
    0x08000208   0x08000208   0x00000006   Code   RO         1588    .ARM.Collect$$rtentry$$00000004  c_w.l(__rtentry4.o)
    0x0800020e   0x0800020e   0x00000000   Code   RO         1578    .ARM.Collect$$rtentry$$00000009  c_w.l(__rtentry2.o)
    0x0800020e   0x0800020e   0x00000004   Code   RO         1579    .ARM.Collect$$rtentry$$0000000A  c_w.l(__rtentry2.o)
    0x08000212   0x08000212   0x00000000   Code   RO         1581    .ARM.Collect$$rtentry$$0000000C  c_w.l(__rtentry2.o)
    0x08000212   0x08000212   0x00000008   Code   RO         1582    .ARM.Collect$$rtentry$$0000000D  c_w.l(__rtentry2.o)
    0x0800021a   0x0800021a   0x00000002   Code   RO         1616    .ARM.Collect$$rtexit$$00000000  c_w.l(rtexit.o)
    0x0800021c   0x0800021c   0x00000000   Code   RO         1672    .ARM.Collect$$rtexit$$00000002  c_w.l(rtexit2.o)
    0x0800021c   0x0800021c   0x00000004   Code   RO         1673    .ARM.Collect$$rtexit$$00000003  c_w.l(rtexit2.o)
    0x08000220   0x08000220   0x00000006   Code   RO         1674    .ARM.Collect$$rtexit$$00000004  c_w.l(rtexit2.o)
    0x08000226   0x08000226   0x00000002   PAD
    0x08000228   0x08000228   0x00000040   Code   RO            4    .text               startup_stm32f302xc.o
    0x08000268   0x08000268   0x00000078   Code   RO         1352    .text               arm_cortexM4lf_math.lib(arm_cos_f32.o)
    0x080002e0   0x080002e0   0x00000094   Code   RO         1402    .text               arm_cortexM4lf_math.lib(arm_sin_f32.o)
    0x08000374   0x08000374   0x0000004e   Code   RO         1507    .text               c_w.l(rt_memclr_w.o)
    0x080003c2   0x080003c2   0x00000006   Code   RO         1509    .text               c_w.l(heapauxi.o)
    0x080003c8   0x080003c8   0x00000016   Code   RO         1546    .text               c_w.l(_rserrno.o)
    0x080003de   0x080003de   0x00000002   PAD
    0x080003e0   0x080003e0   0x00000008   Code   RO         1593    .text               c_w.l(rt_errno_addr_intlibspace.o)
    0x080003e8   0x080003e8   0x00000030   Code   RO         1595    .text               c_w.l(_fptrap.o)
    0x08000418   0x08000418   0x00000008   Code   RO         1599    .text               c_w.l(libspace.o)
    0x08000420   0x08000420   0x0000004a   Code   RO         1602    .text               c_w.l(sys_stackheap_outer.o)
    0x0800046a   0x0800046a   0x00000012   Code   RO         1604    .text               c_w.l(exit.o)
    0x0800047c   0x0800047c   0x0000000e   Code   RO         1606    .text               c_w.l(defsig_fpe_outer.o)
    0x0800048a   0x0800048a   0x0000000a   Code   RO         1620    .text               c_w.l(defsig_exit.o)
    0x08000494   0x08000494   0x000000ac   Code   RO         1622    .text               c_w.l(defsig_fpe_inner.o)
    0x08000540   0x08000540   0x0000000c   Code   RO         1669    .text               c_w.l(sys_exit.o)
    0x0800054c   0x0800054c   0x00000032   Code   RO         1680    .text               c_w.l(defsig_general.o)
    0x0800057e   0x0800057e   0x0000000e   Code   RO         1686    .text               c_w.l(sys_wrch.o)
    0x0800058c   0x0800058c   0x00000002   Code   RO         1688    .text               c_w.l(use_no_semi.o)
    0x0800058e   0x0800058e   0x00000000   Code   RO         1690    .text               c_w.l(indicate_semi.o)
    0x0800058e   0x0800058e   0x00000002   PAD
    0x08000590   0x08000590   0x00000e14   Code   RO           13    i.Data_Init         main.o
    0x080013a4   0x080013a4   0x00000060   Code   RO          680    i.LL_ADC_CommonInit  stm32f3xx_ll_adc.o
    0x08001404   0x08001404   0x0000002e   Code   RO          686    i.LL_ADC_Init       stm32f3xx_ll_adc.o
    0x08001432   0x08001432   0x0000000a   Code   RO          687    i.LL_ADC_IsEnabled  stm32f3xx_ll_adc.o
    0x0800143c   0x0800143c   0x0000006c   Code   RO          688    i.LL_ADC_REG_Init   stm32f3xx_ll_adc.o
    0x080014a8   0x080014a8   0x00000038   Code   RO           15    i.LL_ADC_REG_SetSequencerRanks  main.o
    0x080014e0   0x080014e0   0x00000052   Code   RO           16    i.LL_ADC_SetChannelSamplingTime  main.o
    0x08001532   0x08001532   0x00000002   PAD
    0x08001534   0x08001534   0x00000028   Code   RO           17    i.LL_ADC_SetChannelSingleDiff  main.o
    0x0800155c   0x0800155c   0x0000001c   Code   RO           18    i.LL_AHB1_GRP1_EnableClock  main.o
    0x08001578   0x08001578   0x0000001c   Code   RO           19    i.LL_APB1_GRP1_EnableClock  main.o
    0x08001594   0x08001594   0x0000001c   Code   RO           20    i.LL_APB2_GRP1_EnableClock  main.o
    0x080015b0   0x080015b0   0x0000003c   Code   RO          958    i.LL_COMP_Init      stm32f3xx_ll_comp.o
    0x080015ec   0x080015ec   0x0000007e   Code   RO          997    i.LL_DAC_Init       stm32f3xx_ll_dac.o
    0x0800166a   0x0800166a   0x00000002   PAD
    0x0800166c   0x0800166c   0x00000034   Code   RO           21    i.LL_DMA_ConfigAddresses  main.o
    0x080016a0   0x080016a0   0x0000001c   Code   RO           22    i.LL_DMA_EnableChannel  main.o
    0x080016bc   0x080016bc   0x00000020   Code   RO           23    i.LL_DMA_SetChannelPriorityLevel  main.o
    0x080016dc   0x080016dc   0x00000024   Code   RO           24    i.LL_DMA_SetDataLength  main.o
    0x08001700   0x08001700   0x00000020   Code   RO           25    i.LL_DMA_SetMemoryIncMode  main.o
    0x08001720   0x08001720   0x00000020   Code   RO           26    i.LL_DMA_SetMemorySize  main.o
    0x08001740   0x08001740   0x00000020   Code   RO           27    i.LL_DMA_SetMode    main.o
    0x08001760   0x08001760   0x00000020   Code   RO           28    i.LL_DMA_SetPeriphIncMode  main.o
    0x08001780   0x08001780   0x00000020   Code   RO           29    i.LL_DMA_SetPeriphSize  main.o
    0x080017a0   0x080017a0   0x00000136   Code   RO          630    i.LL_GPIO_Init      stm32f3xx_ll_gpio.o
    0x080018d6   0x080018d6   0x00000014   Code   RO          300    i.LL_GPIO_TogglePin  stm32f3xx_it.o
    0x080018ea   0x080018ea   0x0000001c   Code   RO          401    i.LL_Init1msTick    stm32f3xx_ll_utils.o
    0x08001906   0x08001906   0x00000002   PAD
    0x08001908   0x08001908   0x000000d4   Code   RO          826    i.LL_RCC_GetUARTClockFreq  stm32f3xx_ll_rcc.o
    0x080019dc   0x080019dc   0x00000014   Code   RO          827    i.LL_RCC_GetUARTClockSource  stm32f3xx_ll_rcc.o
    0x080019f0   0x080019f0   0x0000011c   Code   RO          828    i.LL_RCC_GetUSARTClockFreq  stm32f3xx_ll_rcc.o
    0x08001b0c   0x08001b0c   0x00000018   Code   RO          829    i.LL_RCC_GetUSARTClockSource  stm32f3xx_ll_rcc.o
    0x08001b24   0x08001b24   0x00000010   Code   RO          831    i.LL_RCC_HSI_IsReady  stm32f3xx_ll_rcc.o
    0x08001b34   0x08001b34   0x00000010   Code   RO          832    i.LL_RCC_LSE_IsReady  stm32f3xx_ll_rcc.o
    0x08001b44   0x08001b44   0x0000000c   Code   RO          409    i.LL_SetSystemCoreClock  stm32f3xx_ll_utils.o
    0x08001b50   0x08001b50   0x0000008c   Code   RO         1046    i.LL_TIM_BDTR_Init  stm32f3xx_ll_tim.o
    0x08001bdc   0x08001bdc   0x0000000a   Code   RO           30    i.LL_TIM_EnableARRPreload  main.o
    0x08001be6   0x08001be6   0x0000000a   Code   RO           31    i.LL_TIM_EnableCounter  main.o
    0x08001bf0   0x08001bf0   0x0000000a   Code   RO           32    i.LL_TIM_EnableIT_UPDATE  main.o
    0x08001bfa   0x08001bfa   0x00000002   PAD
    0x08001bfc   0x08001bfc   0x000000b4   Code   RO         1055    i.LL_TIM_Init       stm32f3xx_ll_tim.o
    0x08001cb0   0x08001cb0   0x00000074   Code   RO           33    i.LL_TIM_OC_DisableFast  main.o
    0x08001d24   0x08001d24   0x00000074   Code   RO           34    i.LL_TIM_OC_EnablePreload  main.o
    0x08001d98   0x08001d98   0x00000084   Code   RO         1056    i.LL_TIM_OC_Init    stm32f3xx_ll_tim.o
    0x08001e1c   0x08001e1c   0x00000004   Code   RO          301    i.LL_TIM_OC_SetCompareCH2  stm32f3xx_it.o
    0x08001e20   0x08001e20   0x00000004   Code   RO         1057    i.LL_TIM_OC_SetCompareCH2  stm32f3xx_ll_tim.o
    0x08001e24   0x08001e24   0x00000004   Code   RO          302    i.LL_TIM_OC_SetCompareCH3  stm32f3xx_it.o
    0x08001e28   0x08001e28   0x00000010   Code   RO           35    i.LL_TIM_SetClockSource  main.o
    0x08001e38   0x08001e38   0x00000108   Code   RO         1248    i.LL_USART_Init     stm32f3xx_ll_usart.o
    0x08001f40   0x08001f40   0x0000000a   Code   RO         1249    i.LL_USART_IsEnabled  stm32f3xx_ll_usart.o
    0x08001f4a   0x08001f4a   0x00000002   PAD
    0x08001f4c   0x08001f4c   0x000002c8   Code   RO           36    i.MX_ADC1_Init      main.o
    0x08002214   0x08002214   0x00000070   Code   RO           37    i.MX_COMP2_Init     main.o
    0x08002284   0x08002284   0x00000074   Code   RO           38    i.MX_DAC_Init       main.o
    0x080022f8   0x080022f8   0x00000160   Code   RO           39    i.MX_DMA_Init       main.o
    0x08002458   0x08002458   0x000000a8   Code   RO           40    i.MX_GPIO_Init      main.o
    0x08002500   0x08002500   0x000001d0   Code   RO           41    i.MX_TIM1_Init      main.o
    0x080026d0   0x080026d0   0x00000096   Code   RO           42    i.MX_TIM2_Init      main.o
    0x08002766   0x08002766   0x00000002   PAD
    0x08002768   0x08002768   0x000000c4   Code   RO           43    i.MX_USART2_UART_Init  main.o
    0x0800282c   0x0800282c   0x00000040   Code   RO           44    i.NVIC_EncodePriority  main.o
    0x0800286c   0x0800286c   0x0000009c   Code   RO         1060    i.OC1Config         stm32f3xx_ll_tim.o
    0x08002908   0x08002908   0x000000a4   Code   RO         1061    i.OC2Config         stm32f3xx_ll_tim.o
    0x080029ac   0x080029ac   0x0000009c   Code   RO         1062    i.OC3Config         stm32f3xx_ll_tim.o
    0x08002a48   0x08002a48   0x0000007c   Code   RO         1063    i.OC4Config         stm32f3xx_ll_tim.o
    0x08002ac4   0x08002ac4   0x0000007c   Code   RO         1064    i.OC5Config         stm32f3xx_ll_tim.o
    0x08002b40   0x08002b40   0x00000078   Code   RO         1065    i.OC6Config         stm32f3xx_ll_tim.o
    0x08002bb8   0x08002bb8   0x00000020   Code   RO          834    i.RCC_GetHCLKClockFreq  stm32f3xx_ll_rcc.o
    0x08002bd8   0x08002bd8   0x00000024   Code   RO          835    i.RCC_GetPCLK1ClockFreq  stm32f3xx_ll_rcc.o
    0x08002bfc   0x08002bfc   0x00000024   Code   RO          836    i.RCC_GetPCLK2ClockFreq  stm32f3xx_ll_rcc.o
    0x08002c20   0x08002c20   0x0000003c   Code   RO          837    i.RCC_GetSystemClockFreq  stm32f3xx_ll_rcc.o
    0x08002c5c   0x08002c5c   0x00000068   Code   RO          838    i.RCC_PLL_GetFreqDomain_SYS  stm32f3xx_ll_rcc.o
    0x08002cc4   0x08002cc4   0x0000014c   Code   RO           45    i.SystemClock_Config  main.o
    0x08002e10   0x08002e10   0x00000014   Code   RO         1316    i.SystemInit        system_stm32f3xx.o
    0x08002e24   0x08002e24   0x00000e38   Code   RO          303    i.TIM2_IRQHandler   stm32f3xx_it.o
    0x08003c5c   0x08003c5c   0x00000010   Code   RO          304    i.USART2_IRQHandler  stm32f3xx_it.o
    0x08003c6c   0x08003c6c   0x0000001a   Code   RO           46    i.__NVIC_EnableIRQ  main.o
    0x08003c86   0x08003c86   0x00000002   PAD
    0x08003c88   0x08003c88   0x00000010   Code   RO           47    i.__NVIC_GetPriorityGrouping  main.o
    0x08003c98   0x08003c98   0x00000028   Code   RO           48    i.__NVIC_SetPriority  main.o
    0x08003cc0   0x08003cc0   0x0000003a   Code   RO         1533    i.__hardfp_sqrtf    m_wm.l(sqrtf_full.o)
    0x08003cfa   0x08003cfa   0x00000002   PAD
    0x08003cfc   0x08003cfc   0x00000078   Code   RO           49    i.main              main.o
    0x08003d74   0x08003d74   0x000002c4   Code   RO         1513    x$fpl$d2f           g_wm.l(d2f_clz.o)
    0x08004038   0x08004038   0x0000024c   Code   RO         1515    x$fpl$dadd          g_wm.l(daddsub_clz.o)
    0x08004284   0x08004284   0x00000018   Code   RO         1548    x$fpl$dcmpinf       g_wm.l(dcmpi.o)
    0x0800429c   0x0800429c   0x0000037c   Code   RO         1522    x$fpl$ddiv          g_wm.l(ddiv_clz.o)
    0x08004618   0x08004618   0x0000001a   Code   RO         1552    x$fpl$dfltn         g_wm.l(dflt_clz.o)
    0x08004632   0x08004632   0x00000002   PAD
    0x08004634   0x08004634   0x00000078   Code   RO         1525    x$fpl$dleqf         g_wm.l(dleqf.o)
    0x080046ac   0x080046ac   0x000001c0   Code   RO         1527    x$fpl$dmul          g_wm.l(dmul_clz.o)
    0x0800486c   0x0800486c   0x00000102   Code   RO         1556    x$fpl$dnaninf       g_wm.l(dnaninf.o)
    0x0800496e   0x0800496e   0x00000070   Code   RO         1558    x$fpl$drenorm       g_wm.l(drenorm_clz.o)
    0x080049de   0x080049de   0x0000000c   Code   RO         1560    x$fpl$dretinf       g_wm.l(dretinf.o)
    0x080049ea   0x080049ea   0x00000062   Code   RO         1529    x$fpl$drleqf        g_wm.l(drleqf.o)
    0x08004a4c   0x08004a4c   0x0000029c   Code   RO         1517    x$fpl$dsub          g_wm.l(daddsub_clz.o)
    0x08004ce8   0x08004ce8   0x0000017a   Code   RO         1562    x$fpl$dunder        g_wm.l(dunder_clz.o)
    0x08004e62   0x08004e62   0x00000002   PAD
    0x08004e64   0x08004e64   0x000001ec   Code   RO         1564    x$fpl$exception     g_wm.l(except.o)
    0x08005050   0x08005050   0x0000007a   Code   RO         1531    x$fpl$f2d           g_wm.l(f2d.o)
    0x080050ca   0x080050ca   0x000000f2   Code   RO         1566    x$fpl$fnaninf       g_wm.l(fnaninf.o)
    0x080051bc   0x080051bc   0x0000000a   Code   RO         1684    x$fpl$fpinit        g_wm.l(fpinit.o)
    0x080051c6   0x080051c6   0x0000000a   Code   RO         1568    x$fpl$fretinf       g_wm.l(fretinf.o)
    0x080051d0   0x080051d0   0x0000013c   Code   RO         1570    x$fpl$funder        g_wm.l(funder_clz.o)
    0x0800530c   0x0800530c   0x000000b2   Code   RO         1597    x$fpl$retnan        g_wm.l(retnan.o)
    0x080053be   0x080053be   0x0000007e   Code   RO         1572    x$fpl$trapveneer    g_wm.l(trapv.o)
    0x0800543c   0x0800543c   0x00000000   Code   RO         1574    x$fpl$usenofp       g_wm.l(usenofp.o)
    0x0800543c   0x0800543c   0x00000034   Data   RO           51    .constdata          main.o
    0x08005470   0x08005470   0x00000018   Data   RO         1317    .constdata          system_stm32f3xx.o
    0x08005488   0x08005488   0x00000804   Data   RO         1482    .constdata          arm_cortexM4lf_math.lib(arm_common_tables.o)
    0x08005c8c   0x08005c8c   0x00000020   Data   RO         1742    Region$$Table       anon$$obj.o


    Execution Region RW_IRAM1 (Exec base: 0x20000000, Load base: 0x08005cac, Size: 0x000009d8, Max: 0x00006000, ABSOLUTE)

    Exec Addr    Load Addr    Size         Type   Attr      Idx    E Section Name        Object

    0x20000000   0x08005cac   0x00000074   Data   RW           52    .data               main.o
    0x20000074   0x08005d20   0x00000004   PAD
    0x20000078   0x08005d24   0x00000068   Data   RW          307    .data               stm32f3xx_it.o
    0x200000e0   0x08005d8c   0x00000004   Data   RW         1318    .data               system_stm32f3xx.o
    0x200000e4        -       0x000000d2   Zero   RW           50    .bss                main.o
    0x200001b6   0x08005d90   0x00000002   PAD
    0x200001b8        -       0x000001bc   Zero   RW          305    .bss                stm32f3xx_it.o
    0x20000374        -       0x00000060   Zero   RW         1600    .bss                c_w.l(libspace.o)
    0x200003d4   0x08005d90   0x00000004   PAD
    0x200003d8        -       0x00000200   Zero   RW            2    HEAP                startup_stm32f302xc.o
    0x200005d8        -       0x00000400   Zero   RW            1    STACK               startup_stm32f302xc.o


==============================================================================

Image component sizes


      Code (inc. data)   RO Data    RW Data    ZI Data      Debug   Object Name

      7320        494         52        116        210     650629   main.o
        64         26        392          0       1536        864   startup_stm32f302xc.o
      3684        514          0        104        444      75449   stm32f3xx_it.o
       260         14          0          0          0      63224   stm32f3xx_ll_adc.o
        60          4          0          0          0      12475   stm32f3xx_ll_comp.o
       126          0          0          0          0      11298   stm32f3xx_ll_dac.o
       310          0          0          0          0       7279   stm32f3xx_ll_gpio.o
       840        100          0          0          0      23933   stm32f3xx_ll_rcc.o
      1300        162          0          0          0     477954   stm32f3xx_ll_tim.o
       274         22          0          0          0      21896   stm32f3xx_ll_usart.o
        40          6          0          0          0     435269   stm32f3xx_ll_utils.o
        20          6         24          4          0       1187   system_stm32f3xx.o

    ----------------------------------------------------------------------
     14312       1348        500        228       2192    1781457   Object Totals
         0          0         32          0          0          0   (incl. Generated)
        14          0          0          4          2          0   (incl. Padding)

    ----------------------------------------------------------------------

      Code (inc. data)   RO Data    RW Data    ZI Data      Debug   Library Member Name

         0          0       2052          0          0       4704   arm_common_tables.o
       120         12          0          0          0      17170   arm_cos_f32.o
       148         18          0          0          0        814   arm_sin_f32.o
         8          0          0          0          0         68   __main.o
         0          0          0          0          0          0   __rtentry.o
        12          0          0          0          0          0   __rtentry2.o
         6          0          0          0          0          0   __rtentry4.o
        52          8          0          0          0          0   __scatter.o
        26          0          0          0          0          0   __scatter_copy.o
        28          0          0          0          0          0   __scatter_zi.o
        48          4          0          0          0         84   _fptrap.o
        22          0          0          0          0        100   _rserrno.o
        10          0          0          0          0         68   defsig_exit.o
       172        110          0          0          0         76   defsig_fpe_inner.o
        14          0          0          0          0         80   defsig_fpe_outer.o
        50          0          0          0          0         88   defsig_general.o
        18          0          0          0          0         80   exit.o
         6          0          0          0          0        152   heapauxi.o
         0          0          0          0          0          0   indicate_semi.o
         2          0          0          0          0          0   libinit.o
         6          0          0          0          0          0   libinit2.o
         2          0          0          0          0          0   libshutdown.o
         2          0          0          0          0          0   libshutdown2.o
         8          4          0          0         96         68   libspace.o
         8          4          0          0          0         68   rt_errno_addr_intlibspace.o
        78          0          0          0          0         80   rt_memclr_w.o
         2          0          0          0          0          0   rtexit.o
        10          0          0          0          0          0   rtexit2.o
        12          4          0          0          0         68   sys_exit.o
        74          0          0          0          0         80   sys_stackheap_outer.o
        14          0          0          0          0         76   sys_wrch.o
         2          0          0          0          0         68   use_no_semi.o
       708         16          0          0          0        140   d2f_clz.o
      1256         28          0          0          0        408   daddsub_clz.o
        24          0          0          0          0        116   dcmpi.o
       892        152          0          0          0        292   ddiv_clz.o
        26          0          0          0          0        116   dflt_clz.o
       120          8          0          0          0        140   dleqf.o
       448         16          0          0          0        164   dmul_clz.o
       258          4          0          0          0        156   dnaninf.o
       112          0          0          0          0        160   drenorm_clz.o
        12          0          0          0          0        116   dretinf.o
        98          0          0          0          0        128   drleqf.o
       378          0          0          0          0        168   dunder_clz.o
       492         36          0          0          0        148   except.o
       122          8          0          0          0        132   f2d.o
       242          4          0          0          0        144   fnaninf.o
        10          0          0          0          0        116   fpinit.o
        10          0          0          0          0        116   fretinf.o
       316          0          0          0          0        132   funder_clz.o
       178          0          0          0          0        116   retnan.o
       126          0          0          0          0        148   trapv.o
         0          0          0          0          0          0   usenofp.o
        58          0          0          0          0        136   sqrtf_full.o

    ----------------------------------------------------------------------
      6860        436       2052          0        100      27284   Library Totals
        14          0          0          0          4          0   (incl. Padding)

    ----------------------------------------------------------------------

      Code (inc. data)   RO Data    RW Data    ZI Data      Debug   Library Name

       268         30       2052          0          0      22688   arm_cortexM4lf_math.lib
       692        134          0          0         96       1304   c_w.l
      5828        272          0          0          0       3156   g_wm.l
        58          0          0          0          0        136   m_wm.l

    ----------------------------------------------------------------------
      6860        436       2052          0        100      27284   Library Totals

    ----------------------------------------------------------------------

==============================================================================


      Code (inc. data)   RO Data    RW Data    ZI Data      Debug   

     21172       1784       2552        228       2292    1798917   Grand Totals
     21172       1784       2552        228       2292    1798917   ELF Image Totals
     21172       1784       2552        228          0          0   ROM Totals

==============================================================================

    Total RO  Size (Code + RO Data)                23724 (  23.17kB)
    Total RW  Size (RW Data + ZI Data)              2520 (   2.46kB)
    Total ROM Size (Code + RO Data + RW Data)      23952 (  23.39kB)

==============================================================================

